{
  "_format": "hh-sol-artifact-1",
  "contractName": "TestOracle",
  "sourceName": "contracts/EIP4337/test/TestOracle.sol",
  "abi": [
    {
      "inputs": [
        {
          "internalType": "uint256",
          "name": "ethOutput",
          "type": "uint256"
        }
      ],
      "name": "getTokenValueOfEth",
      "outputs": [
        {
          "internalType": "uint256",
          "name": "tokenInput",
          "type": "uint256"
        }
      ],
      "stateMutability": "pure",
      "type": "function"
    }
  ],
  "bytecode": "0x608060405234801561001057600080fd5b5060ea8061001f6000396000f3fe6080604052348015600f57600080fd5b506004361060285760003560e01c8063d1eca9cf14602d575b600080fd5b603c6038366004605f565b604e565b60405190815260200160405180910390f35b600060598260026077565b92915050565b600060208284031215607057600080fd5b5035919050565b80820281158282048414176059577f4e487b7100000000000000000000000000000000000000000000000000000000600052601160045260246000fdfea264697066735822122089dd6224e9836624c51544de7a024295f45768c2f05ead945d1b3732b0439b8f64736f6c63430008120033",
  "linkReferences": {},
  "deployedLinkReferences": {}
}