{
  "_format": "hh-sol-artifact-1",
  "contractName": "GnosisSafeAccountFactory",
  "sourceName": "contracts/EIP4337/samples/gnosis/GnosisAccountFactory.sol",
  "abi": [
    {
      "inputs": [
        {
          "internalType": "contract GnosisSafeProxyFactory",
          "name": "_proxyFactory",
          "type": "address"
        },
        {
          "internalType": "address",
          "name": "_safeSingleton",
          "type": "address"
        },
        {
          "internalType": "contract EIP4337Manager",
          "name": "_eip4337Manager",
          "type": "address"
        }
      ],
      "stateMutability": "nonpayable",
      "type": "constructor"
    },
    {
      "inputs": [
        {
          "internalType": "address",
          "name": "owner",
          "type": "address"
        },
        {
          "internalType": "uint256",
          "name": "salt",
          "type": "uint256"
        }
      ],
      "name": "createAccount",
      "outputs": [
        {
          "internalType": "address",
          "name": "",
          "type": "address"
        }
      ],
      "stateMutability": "nonpayable",
      "type": "function"
    },
    {
      "inputs": [],
      "name": "eip4337Manager",
      "outputs": [
        {
          "internalType": "contract EIP4337Manager",
          "name": "",
          "type": "address"
        }
      ],
      "stateMutability": "view",
      "type": "function"
    },
    {
      "inputs": [
        {
          "internalType": "address",
          "name": "owner",
          "type": "address"
        },
        {
          "internalType": "uint256",
          "name": "salt",
          "type": "uint256"
        }
      ],
      "name": "getAddress",
      "outputs": [
        {
          "internalType": "address",
          "name": "",
          "type": "address"
        }
      ],
      "stateMutability": "view",
      "type": "function"
    },
    {
      "inputs": [],
      "name": "proxyFactory",
      "outputs": [
        {
          "internalType": "contract GnosisSafeProxyFactory",
          "name": "",
          "type": "address"
        }
      ],
      "stateMutability": "view",
      "type": "function"
    },
    {
      "inputs": [],
      "name": "safeSingleton",
      "outputs": [
        {
          "internalType": "address",
          "name": "",
          "type": "address"
        }
      ],
      "stateMutability": "view",
      "type": "function"
    }
  ],
  "bytecode": "0x60e060405234801561001057600080fd5b5060405161099d38038061099d83398101604081905261002f91610064565b6001600160a01b0392831660805290821660a0521660c0526100b1565b6001600160a01b038116811461006157600080fd5b50565b60008060006060848603121561007957600080fd5b83516100848161004c565b60208501519093506100958161004c565b60408501519092506100a68161004c565b809150509250925092565b60805160a05160c051610887610116600039600081816071015281816103d00152818161045d01526104f101526000818160da0152818161017c01526102e60152600081816101010152818161014d01528181610260015261033e01526108876000f3fe608060405234801561001057600080fd5b50600436106100675760003560e01c80638cb84e18116100505780638cb84e18146100c2578063ac7d146b146100d5578063c10f1a75146100fc57600080fd5b80630e8ac4881461006c5780635fbfb9cf146100af575b600080fd5b6100937f000000000000000000000000000000000000000000000000000000000000000081565b6040516001600160a01b03909116815260200160405180910390f35b6100936100bd3660046105c8565b610123565b6100936100d03660046105c8565b610211565b6100937f000000000000000000000000000000000000000000000000000000000000000081565b6100937f000000000000000000000000000000000000000000000000000000000000000081565b6000806101308484610211565b90506001600160a01b0381163b801561014b5750905061020b565b7f00000000000000000000000000000000000000000000000000000000000000006001600160a01b0316631688f0b97f00000000000000000000000000000000000000000000000000000000000000006101a48861036c565b876040518463ffffffff1660e01b81526004016101c393929190610644565b6020604051808303816000875af11580156101e2573d6000803e3d6000fd5b505050506040513d601f19601f820116820180604052508101906102069190610676565b925050505b92915050565b60008061021d8461036c565b90506000818051906020012084604051602001610244929190918252602082015260400190565b60405160208183030381529060405280519060200120905060007f00000000000000000000000000000000000000000000000000000000000000006001600160a01b03166353e5d9356040518163ffffffff1660e01b8152600401600060405180830381865afa1580156102bc573d6000803e3d6000fd5b505050506040513d6000823e601f3d908101601f191682016040526102e491908101906106b0565b7f00000000000000000000000000000000000000000000000000000000000000006001600160a01b031660405160200161031f92919061075d565b60405160208183030381529060405290506103628282805190602001207f0000000000000000000000000000000000000000000000000000000000000000610586565b9695505050505050565b604080516001808252818301909252606091600091906020808301908036833701905050905082816000815181106103a6576103a661077f565b60200260200101906001600160a01b031690816001600160a01b03168152505060006001905060007f00000000000000000000000000000000000000000000000000000000000000006001600160a01b03166370b8a01d6040518163ffffffff1660e01b8152600401602060405180830381865afa15801561042c573d6000803e3d6000fd5b505050506040513d601f19601f820116820180604052508101906104509190610676565b6040516001600160a01b037f000000000000000000000000000000000000000000000000000000000000000016602482015290915060009060440160408051601f198184030181529181526020820180517bffffffffffffffffffffffffffffffffffffffffffffffffffffffff167fd041593b000000000000000000000000000000000000000000000000000000001790525190915061052490859085907f0000000000000000000000000000000000000000000000000000000000000000908590879060009081908190602401610795565b60408051601f198184030181529190526020810180517bffffffffffffffffffffffffffffffffffffffffffffffffffffffff167fb63e800d000000000000000000000000000000000000000000000000000000001790529695505050505050565b6000604051836040820152846020820152828152600b8101905060ff815360559020949350505050565b6001600160a01b03811681146105c557600080fd5b50565b600080604083850312156105db57600080fd5b82356105e6816105b0565b946020939093013593505050565b60005b8381101561060f5781810151838201526020016105f7565b50506000910152565b600081518084526106308160208601602086016105f4565b601f01601f19169290920160200192915050565b6001600160a01b03841681526060602082015260006106666060830185610618565b9050826040830152949350505050565b60006020828403121561068857600080fd5b8151610693816105b0565b9392505050565b634e487b7160e01b600052604160045260246000fd5b6000602082840312156106c257600080fd5b815167ffffffffffffffff808211156106da57600080fd5b818401915084601f8301126106ee57600080fd5b8151818111156107005761070061069a565b604051601f8201601f19908116603f011681019083821181831017156107285761072861069a565b8160405282815287602084870101111561074157600080fd5b6107528360208301602088016105f4565b979650505050505050565b6000835161076f8184602088016105f4565b9190910191825250602001919050565b634e487b7160e01b600052603260045260246000fd5b6101008082528951908201819052600090610120830190602090818d01845b828110156107d95781516001600160a01b0316855293830193908301906001016107b4565b50505083018a90526001600160a01b038916604084015282810360608401526108028189610618565b91505061081a60808301876001600160a01b03169052565b6001600160a01b03851660a08301528360c083015261084460e08301846001600160a01b03169052565b999850505050505050505056fea2646970667358221220bf9e9ecf35770dbb74d9d8a0a033cac5ab00f167f30ea1a8086e0ac94ee84bc964736f6c63430008120033",
  "linkReferences": {},
  "deployedLinkReferences": {}
}