{
  "_format": "hh-sol-artifact-1",
  "contractName": "Escrow",
  "sourceName": "contracts/Escrow.sol",
  "abi": [
    {
      "inputs": [
        {
          "internalType": "address",
          "name": "_entrypoint",
          "type": "address"
        },
        {
          "internalType": "address",
          "name": "_token",
          "type": "address"
        }
      ],
      "stateMutability": "nonpayable",
      "type": "constructor"
    },
    {
      "anonymous": false,
      "inputs": [
        {
          "indexed": true,
          "internalType": "address",
          "name": "previousOwner",
          "type": "address"
        },
        {
          "indexed": true,
          "internalType": "address",
          "name": "newOwner",
          "type": "address"
        }
      ],
      "name": "OwnershipTransferred",
      "type": "event"
    },
    {
      "inputs": [
        {
          "internalType": "address",
          "name": "",
          "type": "address"
        }
      ],
      "name": "bills",
      "outputs": [
        {
          "internalType": "uint256",
          "name": "epoch",
          "type": "uint256"
        },
        {
          "internalType": "uint256",
          "name": "amount",
          "type": "uint256"
        }
      ],
      "stateMutability": "view",
      "type": "function"
    },
    {
      "inputs": [],
      "name": "entrypoint",
      "outputs": [
        {
          "internalType": "contract IEntryPoint",
          "name": "",
          "type": "address"
        }
      ],
      "stateMutability": "view",
      "type": "function"
    },
    {
      "inputs": [],
      "name": "epoch",
      "outputs": [
        {
          "internalType": "uint256",
          "name": "",
          "type": "uint256"
        }
      ],
      "stateMutability": "view",
      "type": "function"
    },
    {
      "inputs": [
        {
          "components": [
            {
              "internalType": "address",
              "name": "sender",
              "type": "address"
            },
            {
              "internalType": "uint256",
              "name": "nonce",
              "type": "uint256"
            },
            {
              "internalType": "bytes",
              "name": "initCode",
              "type": "bytes"
            },
            {
              "internalType": "bytes",
              "name": "callData",
              "type": "bytes"
            },
            {
              "internalType": "uint256",
              "name": "callGasLimit",
              "type": "uint256"
            },
            {
              "internalType": "uint256",
              "name": "verificationGasLimit",
              "type": "uint256"
            },
            {
              "internalType": "uint256",
              "name": "preVerificationGas",
              "type": "uint256"
            },
            {
              "internalType": "uint256",
              "name": "maxFeePerGas",
              "type": "uint256"
            },
            {
              "internalType": "uint256",
              "name": "maxPriorityFeePerGas",
              "type": "uint256"
            },
            {
              "internalType": "bytes",
              "name": "paymasterAndData",
              "type": "bytes"
            },
            {
              "internalType": "bytes",
              "name": "signature",
              "type": "bytes"
            }
          ],
          "internalType": "struct UserOperation",
          "name": "_ops",
          "type": "tuple"
        }
      ],
      "name": "execute_transaction",
      "outputs": [],
      "stateMutability": "nonpayable",
      "type": "function"
    },
    {
      "inputs": [
        {
          "internalType": "uint32",
          "name": "_origin",
          "type": "uint32"
        },
        {
          "internalType": "bytes32",
          "name": "_sender",
          "type": "bytes32"
        },
        {
          "internalType": "bytes",
          "name": "_body",
          "type": "bytes"
        }
      ],
      "name": "handle",
      "outputs": [],
      "stateMutability": "nonpayable",
      "type": "function"
    },
    {
      "inputs": [],
      "name": "increaseEpoch",
      "outputs": [],
      "stateMutability": "nonpayable",
      "type": "function"
    },
    {
      "inputs": [],
      "name": "owner",
      "outputs": [
        {
          "internalType": "address",
          "name": "",
          "type": "address"
        }
      ],
      "stateMutability": "view",
      "type": "function"
    },
    {
      "inputs": [],
      "name": "renounceOwnership",
      "outputs": [],
      "stateMutability": "nonpayable",
      "type": "function"
    },
    {
      "inputs": [],
      "name": "token",
      "outputs": [
        {
          "internalType": "contract USDC",
          "name": "",
          "type": "address"
        }
      ],
      "stateMutability": "view",
      "type": "function"
    },
    {
      "inputs": [
        {
          "internalType": "address",
          "name": "newOwner",
          "type": "address"
        }
      ],
      "name": "transferOwnership",
      "outputs": [],
      "stateMutability": "nonpayable",
      "type": "function"
    }
  ],
  "bytecode": "0x608060405234801561001057600080fd5b50604051610df1380380610df183398101604081905261002f916100d5565b61003833610069565b600280546001600160a01b039384166001600160a01b03199182161790915560038054929093169116179055610108565b600080546001600160a01b038381166001600160a01b0319831681178455604051919092169283917f8be0079c531659141344cd1fd0a4f28419497f9722a3daafe3b4186f6b6457e09190a35050565b80516001600160a01b03811681146100d057600080fd5b919050565b600080604083850312156100e857600080fd5b6100f1836100b9565b91506100ff602084016100b9565b90509250929050565b610cda806101176000396000f3fe608060405234801561001057600080fd5b50600436106100be5760003560e01c8063a65d69d411610076578063bda624501161005b578063bda6245014610178578063f2fde38b1461018b578063fc0c546a1461019e57600080fd5b8063a65d69d41461015d578063b00835ed1461017057600080fd5b8063715018a6116100a7578063715018a6146101195780638da5cb5b14610121578063900cf0cf1461014657600080fd5b80630cfba556146100c357806356d5d47514610104575b600080fd5b6100ea6100d136600461079b565b6001602081905260009182526040909120805491015482565b604080519283526020830191909152015b60405180910390f35b6101176101123660046107bf565b6101b1565b005b6101176103c2565b6000546001600160a01b03165b6040516001600160a01b0390911681526020016100fb565b61014f60045481565b6040519081526020016100fb565b60025461012e906001600160a01b031681565b6101176103d6565b61011761018636600461091e565b6103f5565b61011761019936600461079b565b610624565b60035461012e906001600160a01b031681565b3373cc737a94fecaec165abcf12ded095bb13f037685146102195760405162461bcd60e51b815260206004820152601560248201527f6f6e6c79206d61696c626f782063616e2063616c6c000000000000000000000060448201526064015b60405180910390fd5b730f239f07a19dbe69d41ef62ea0169e8ad6adacfb836001600160a01b0316146102ab5760405162461bcd60e51b815260206004820152602160248201527f6f6e6c7920637265646974206361726420666163746f72792063616e2063616c60448201527f6c000000000000000000000000000000000000000000000000000000000000006064820152608401610210565b6000806102ba83850185610a4d565b6001600160a01b038216600081815260016020818152604092839020909101548251918201939093528082019290925260608083018490528151808403909101815260808301918290527ffa31de010000000000000000000000000000000000000000000000000000000090915292945090925073cc737a94fecaec165abcf12ded095bb13f0376859063fa31de01906103759062aa36a790730f239f07a19dbe69d41ef62ea0169e8ad6adacfb908a908a90608401610a79565b6020604051808303816000875af1158015610394573d6000803e3d6000fd5b505050506040513d601f19601f820116820180604052508101906103b89190610abc565b5050505050505050565b6103ca6106b4565b6103d4600061070e565b565b6103de6106b4565b600480549060006103ee83610ad5565b9190505550565b6103fd6106b4565b604080516001808252818301909252600091816020015b61047a60405180610160016040528060006001600160a01b03168152602001600081526020016060815260200160608152602001600081526020016000815260200160008152602001600081526020016000815260200160608152602001606081525090565b81526020019060019003908161041457905050905081816000815181106104a3576104a3610afc565b60200260200101819052506000806104cd8460600151602081015160a882015160c8909201519092565b60408051808201825260048054825260208083018581528b516001600160a01b03908116600090815260019384905286902094518555905193909101929092556003548a5193517fa9059cbb00000000000000000000000000000000000000000000000000000000815296985093965092169363a9059cbb9350610567928691016001600160a01b03929092168252602082015260400190565b6020604051808303816000875af1158015610586573d6000803e3d6000fd5b505050506040513d601f19601f820116820180604052508101906105aa9190610b12565b506002546040517f1fad948c0000000000000000000000000000000000000000000000000000000081526001600160a01b0390911690631fad948c906105f69086903390600401610b7a565b600060405180830381600087803b15801561061057600080fd5b505af11580156103b8573d6000803e3d6000fd5b61062c6106b4565b6001600160a01b0381166106a85760405162461bcd60e51b815260206004820152602660248201527f4f776e61626c653a206e6577206f776e657220697320746865207a65726f206160448201527f64647265737300000000000000000000000000000000000000000000000000006064820152608401610210565b6106b18161070e565b50565b6000546001600160a01b031633146103d45760405162461bcd60e51b815260206004820181905260248201527f4f776e61626c653a2063616c6c6572206973206e6f7420746865206f776e65726044820152606401610210565b600080546001600160a01b038381167fffffffffffffffffffffffff0000000000000000000000000000000000000000831681178455604051919092169283917f8be0079c531659141344cd1fd0a4f28419497f9722a3daafe3b4186f6b6457e09190a35050565b6001600160a01b03811681146106b157600080fd5b803561079681610776565b919050565b6000602082840312156107ad57600080fd5b81356107b881610776565b9392505050565b600080600080606085870312156107d557600080fd5b843563ffffffff811681146107e957600080fd5b935060208501359250604085013567ffffffffffffffff8082111561080d57600080fd5b818701915087601f83011261082157600080fd5b81358181111561083057600080fd5b88602082850101111561084257600080fd5b95989497505060200194505050565b634e487b7160e01b600052604160045260246000fd5b604051610160810167ffffffffffffffff8111828210171561088b5761088b610851565b60405290565b600082601f8301126108a257600080fd5b813567ffffffffffffffff808211156108bd576108bd610851565b604051601f8301601f19908116603f011681019082821181831017156108e5576108e5610851565b816040528381528660208588010111156108fe57600080fd5b836020870160208301376000602085830101528094505050505092915050565b60006020828403121561093057600080fd5b813567ffffffffffffffff8082111561094857600080fd5b90830190610160828603121561095d57600080fd5b610965610867565b61096e8361078b565b81526020830135602082015260408301358281111561098c57600080fd5b61099887828601610891565b6040830152506060830135828111156109b057600080fd5b6109bc87828601610891565b6060830152506080830135608082015260a083013560a082015260c083013560c082015260e083013560e08201526101008084013581830152506101208084013583811115610a0a57600080fd5b610a1688828701610891565b8284015250506101408084013583811115610a3057600080fd5b610a3c88828701610891565b918301919091525095945050505050565b60008060408385031215610a6057600080fd5b8235610a6b81610776565b946020939093013593505050565b63ffffffff8516815283602082015260606040820152816060820152818360808301376000818301608090810191909152601f909201601f191601019392505050565b600060208284031215610ace57600080fd5b5051919050565b600060018201610af557634e487b7160e01b600052601160045260246000fd5b5060010190565b634e487b7160e01b600052603260045260246000fd5b600060208284031215610b2457600080fd5b815180151581146107b857600080fd5b6000815180845260005b81811015610b5a57602081850181015186830182015201610b3e565b506000602082860101526020601f19601f83011685010191505092915050565b60006040808301818452808651808352606092508286019150828160051b8701016020808a0160005b84811015610c7e57898403605f19018652815180516001600160a01b03168552610160848201518587015289820151818b880152610be382880182610b34565b915050888201518682038a880152610bfb8282610b34565b6080848101519089015260a0808501519089015260c0808501519089015260e08085015190890152610100808501519089015261012080850151898303828b01529193509150610c4b8382610b34565b925050506101408083015192508682038188015250610c6a8183610b34565b978501979550505090820190600101610ba3565b5050819650610c978189018a6001600160a01b03169052565b505050505050939250505056fea2646970667358221220cdba0f102af23b2757fde4f06384fa47aacddad8ad2437de18ea869ac8b6c96b64736f6c63430008120033",
  "linkReferences": {},
  "deployedLinkReferences": {}
}