{
  "_format": "hh-sol-artifact-1",
  "contractName": "TestAggregatedAccountFactory",
  "sourceName": "contracts/EIP4337/test/TestAggregatedAccountFactory.sol",
  "abi": [
    {
      "inputs": [
        {
          "internalType": "contract IEntryPoint",
          "name": "anEntryPoint",
          "type": "address"
        },
        {
          "internalType": "address",
          "name": "anAggregator",
          "type": "address"
        }
      ],
      "stateMutability": "nonpayable",
      "type": "constructor"
    },
    {
      "inputs": [],
      "name": "accountImplementation",
      "outputs": [
        {
          "internalType": "contract TestAggregatedAccount",
          "name": "",
          "type": "address"
        }
      ],
      "stateMutability": "view",
      "type": "function"
    },
    {
      "inputs": [
        {
          "internalType": "address",
          "name": "owner",
          "type": "address"
        },
        {
          "internalType": "uint256",
          "name": "salt",
          "type": "uint256"
        }
      ],
      "name": "createAccount",
      "outputs": [
        {
          "internalType": "contract TestAggregatedAccount",
          "name": "ret",
          "type": "address"
        }
      ],
      "stateMutability": "nonpayable",
      "type": "function"
    },
    {
      "inputs": [
        {
          "internalType": "address",
          "name": "owner",
          "type": "address"
        },
        {
          "internalType": "uint256",
          "name": "salt",
          "type": "uint256"
        }
      ],
      "name": "getAddress",
      "outputs": [
        {
          "internalType": "address",
          "name": "",
          "type": "address"
        }
      ],
      "stateMutability": "view",
      "type": "function"
    }
  ],
  "bytecode": "0x60a060405234801561001057600080fd5b5060405161297538038061297583398101604081905261002f916100aa565b818160405161003d90610085565b6001600160a01b03928316815291166020820152604001604051809103906000f080158015610070573d6000803e3d6000fd5b506001600160a01b0316608052506100e49050565b611d4c80610c2983390190565b6001600160a01b03811681146100a757600080fd5b50565b600080604083850312156100bd57600080fd5b82516100c881610092565b60208401519092506100d981610092565b809150509250929050565b608051610b1e61010b60003960008181604b0152818160ed01526101cf0152610b1e6000f3fe608060405234801561001057600080fd5b50600436106100415760003560e01c806311464fbe146100465780635fbfb9cf146100895780638cb84e181461009c575b600080fd5b61006d7f000000000000000000000000000000000000000000000000000000000000000081565b6040516001600160a01b03909116815260200160405180910390f35b61006d6100973660046102bf565b6100af565b61006d6100aa3660046102bf565b610190565b6000806100bc8484610190565b90506001600160a01b0381163b80156100d75750905061018a565b6040516001600160a01b038616602482015284907f00000000000000000000000000000000000000000000000000000000000000009060440160408051601f198184030181529181526020820180517bffffffffffffffffffffffffffffffffffffffffffffffffffffffff1663189acdbd60e31b17905251610159906102b2565b61016492919061031b565b8190604051809103906000f5905080158015610184573d6000803e3d6000fd5b50925050505b92915050565b60006102798260001b604051806020016101a9906102b2565b601f1982820381018352601f9091011660408190526001600160a01b03871660248201527f00000000000000000000000000000000000000000000000000000000000000009060440160408051601f19818403018152918152602080830180517bffffffffffffffffffffffffffffffffffffffffffffffffffffffff1663189acdbd60e31b17905290516102409392910161031b565b60408051601f198184030181529082905261025e929160200161035e565b60405160208183030381529060405280519060200120610280565b9392505050565b60006102798383306000604051836040820152846020820152828152600b8101905060ff815360559020949350505050565b61075b8061038e83390190565b600080604083850312156102d257600080fd5b82356001600160a01b03811681146102e957600080fd5b946020939093013593505050565b60005b838110156103125781810151838201526020016102fa565b50506000910152565b6001600160a01b038316815260406020820152600082518060408401526103498160608501602087016102f7565b601f01601f1916919091016060019392505050565b600083516103708184602088016102f7565b8351908301906103848183602088016102f7565b0194935050505056fe608060405260405161075b38038061075b83398101604081905261002291610319565b61002e82826000610035565b5050610436565b61003e8361006b565b60008251118061004b5750805b156100665761006483836100ab60201b6100291760201c565b505b505050565b610074816100d7565b6040516001600160a01b038216907fbc7cd75a20ee27fd9adebab32041f755214dbc6bffa90cc0225b39da2e5c2d3b90600090a250565b60606100d08383604051806060016040528060278152602001610734602791396101a9565b9392505050565b6100ea8161022260201b6100551760201c565b6101515760405162461bcd60e51b815260206004820152602d60248201527f455243313936373a206e657720696d706c656d656e746174696f6e206973206e60448201526c1bdd08184818dbdb9d1c9858dd609a1b60648201526084015b60405180910390fd5b806101887f360894a13ba1a3210667c828492db98dca3e2076cc3735a920a3ca505d382bbc60001b61023160201b6100711760201c565b80546001600160a01b0319166001600160a01b039290921691909117905550565b6060600080856001600160a01b0316856040516101c691906103e7565b600060405180830381855af49150503d8060008114610201576040519150601f19603f3d011682016040523d82523d6000602084013e610206565b606091505b50909250905061021886838387610234565b9695505050505050565b6001600160a01b03163b151590565b90565b606083156102a357825160000361029c576001600160a01b0385163b61029c5760405162461bcd60e51b815260206004820152601d60248201527f416464726573733a2063616c6c20746f206e6f6e2d636f6e74726163740000006044820152606401610148565b50816102ad565b6102ad83836102b5565b949350505050565b8151156102c55781518083602001fd5b8060405162461bcd60e51b81526004016101489190610403565b634e487b7160e01b600052604160045260246000fd5b60005b838110156103105781810151838201526020016102f8565b50506000910152565b6000806040838503121561032c57600080fd5b82516001600160a01b038116811461034357600080fd5b60208401519092506001600160401b038082111561036057600080fd5b818501915085601f83011261037457600080fd5b815181811115610386576103866102df565b604051601f8201601f19908116603f011681019083821181831017156103ae576103ae6102df565b816040528281528860208487010111156103c757600080fd5b6103d88360208301602088016102f5565b80955050505050509250929050565b600082516103f98184602087016102f5565b9190910192915050565b60208152600082518060208401526104228160408501602087016102f5565b601f01601f19169190910160400192915050565b6102ef806104456000396000f3fe60806040523661001357610011610017565b005b6100115b610027610022610074565b6100b9565b565b606061004e8383604051806060016040528060278152602001610293602791396100dd565b9392505050565b73ffffffffffffffffffffffffffffffffffffffff163b151590565b90565b60006100b47f360894a13ba1a3210667c828492db98dca3e2076cc3735a920a3ca505d382bbc5473ffffffffffffffffffffffffffffffffffffffff1690565b905090565b3660008037600080366000845af43d6000803e8080156100d8573d6000f35b3d6000fd5b60606000808573ffffffffffffffffffffffffffffffffffffffff16856040516101079190610243565b600060405180830381855af49150503d8060008114610142576040519150601f19603f3d011682016040523d82523d6000602084013e610147565b606091505b509150915061015886838387610162565b9695505050505050565b606083156101e35782516000036101dc5773ffffffffffffffffffffffffffffffffffffffff85163b6101dc5760405162461bcd60e51b815260206004820152601d60248201527f416464726573733a2063616c6c20746f206e6f6e2d636f6e747261637400000060448201526064015b60405180910390fd5b50816101ed565b6101ed83836101f5565b949350505050565b8151156102055781518083602001fd5b8060405162461bcd60e51b81526004016101d3919061025f565b60005b8381101561023a578181015183820152602001610222565b50506000910152565b6000825161025581846020870161021f565b9190910192915050565b602081526000825180602084015261027e81604085016020870161021f565b601f01601f1916919091016040019291505056fe416464726573733a206c6f772d6c6576656c2064656c65676174652063616c6c206661696c6564a26469706673582212204f67a5057d069cb7af5fec40e1775dfbff032525c818d6d448959287c496f00664736f6c63430008120033416464726573733a206c6f772d6c6576656c2064656c65676174652063616c6c206661696c6564a2646970667358221220865e86b1c6f109765bd3fc58f92011dd941d1ac2ef1b5136ad179086c4a4db5964736f6c6343000812003360e0604052306080523480156200001557600080fd5b5060405162001d4c38038062001d4c83398101604081905262000038916200013e565b6001600160a01b03821660a052816200005062000064565b506001600160a01b031660c052506200017d565b600054610100900460ff1615620000d15760405162461bcd60e51b815260206004820152602760248201527f496e697469616c697a61626c653a20636f6e747261637420697320696e697469604482015266616c697a696e6760c81b606482015260840160405180910390fd5b60005460ff9081161462000123576000805460ff191660ff9081179091556040519081527f7f26b83ff96e1f2b6a682f133852f6798a09c465da95921460cefb38474024989060200160405180910390a15b565b6001600160a01b03811681146200013b57600080fd5b50565b600080604083850312156200015257600080fd5b82516200015f8162000125565b6020840151909250620001728162000125565b809150509250929050565b60805160a05160c051611b4b62000201600039600081816102260152610777015260008181610333015281816107ba0152818161085401528181610bad01528181610d8001528181610dba0152818161106c01526111d90152600081816105e70152818161066c015281816108fe015281816109830152610a6d0152611b4b6000f3fe6080604052600436106101475760003560e01c80634f1ef286116100c0578063bc197c8111610074578063c4d66de811610059578063c4d66de8146103d4578063d087d288146103f4578063f23a6e611461040957600080fd5b8063bc197c8114610377578063c399ec88146103bf57600080fd5b80638da5cb5b116100a55780638da5cb5b146102fe578063b0d691fe14610324578063b61d27f61461035757600080fd5b80634f1ef286146102d657806352d1902d146102e957600080fd5b8063245a7bfc116101175780633a871cdd116100fc5780633a871cdd146102805780634a58db19146102ae5780634d44560d146102b657600080fd5b8063245a7bfc146102145780633659cfe61461026057600080fd5b806223de291461015357806301ffc9a71461017a578063150b7a02146101af57806318dfb3c7146101f457600080fd5b3661014e57005b600080fd5b34801561015f57600080fd5b5061017861016e3660046114fe565b5050505050505050565b005b34801561018657600080fd5b5061019a6101953660046115af565b61044f565b60405190151581526020015b60405180910390f35b3480156101bb57600080fd5b506101db6101ca3660046115d9565b630a85bd0160e11b95945050505050565b6040516001600160e01b031990911681526020016101a6565b34801561020057600080fd5b5061017861020f366004611691565b6104d3565b34801561022057600080fd5b506102487f000000000000000000000000000000000000000000000000000000000000000081565b6040516001600160a01b0390911681526020016101a6565b34801561026c57600080fd5b5061017861027b3660046116fd565b6105dd565b34801561028c57600080fd5b506102a061029b36600461171a565b610758565b6040519081526020016101a6565b6101786107b8565b3480156102c257600080fd5b506101786102d136600461176e565b61084a565b6101786102e43660046117b0565b6108f4565b3480156102f557600080fd5b506102a0610a60565b34801561030a57600080fd5b50600054610248906201000090046001600160a01b031681565b34801561033057600080fd5b507f0000000000000000000000000000000000000000000000000000000000000000610248565b34801561036357600080fd5b50610178610372366004611874565b610b25565b34801561038357600080fd5b506101db6103923660046118c4565b7fbc197c810000000000000000000000000000000000000000000000000000000098975050505050505050565b3480156103cb57600080fd5b506102a0610b74565b3480156103e057600080fd5b506101786103ef3660046116fd565b610c1e565b34801561040057600080fd5b506102a0610d40565b34801561041557600080fd5b506101db610424366004611962565b7ff23a6e61000000000000000000000000000000000000000000000000000000009695505050505050565b60006001600160e01b03198216630a85bd0160e11b148061049957506001600160e01b031982167f4e2312e000000000000000000000000000000000000000000000000000000000145b806104cd57506001600160e01b031982167f01ffc9a700000000000000000000000000000000000000000000000000000000145b92915050565b6104db610daf565b82811461052f5760405162461bcd60e51b815260206004820152601360248201527f77726f6e67206172726179206c656e677468730000000000000000000000000060448201526064015b60405180910390fd5b60005b838110156105d6576105c485858381811061054f5761054f6119de565b905060200201602081019061056491906116fd565b6000858585818110610578576105786119de565b905060200281019061058a91906119f4565b8080601f016020809104026020016040519081016040528093929190818152602001838380828437600092019190915250610e4492505050565b806105ce81611a3b565b915050610532565b5050505050565b6001600160a01b037f000000000000000000000000000000000000000000000000000000000000000016300361066a5760405162461bcd60e51b815260206004820152602c60248201527f46756e6374696f6e206d7573742062652063616c6c6564207468726f7567682060448201526b19195b1959d85d1958d85b1b60a21b6064820152608401610526565b7f00000000000000000000000000000000000000000000000000000000000000006001600160a01b03166106c57f360894a13ba1a3210667c828492db98dca3e2076cc3735a920a3ca505d382bbc546001600160a01b031690565b6001600160a01b0316146107305760405162461bcd60e51b815260206004820152602c60248201527f46756e6374696f6e206d7573742062652063616c6c6564207468726f7567682060448201526b6163746976652070726f787960a01b6064820152608401610526565b61073981610eb4565b6040805160008082526020820190925261075591839190610ebc565b50565b6000610762611061565b50604080516060810182526001600160a01b037f00000000000000000000000000000000000000000000000000000000000000001680825260006020830181905291909201526107b1826110d9565b9392505050565b7f00000000000000000000000000000000000000000000000000000000000000006040517fb760faf90000000000000000000000000000000000000000000000000000000081523060048201526001600160a01b03919091169063b760faf99034906024016000604051808303818588803b15801561083657600080fd5b505af11580156105d6573d6000803e3d6000fd5b610852611126565b7f00000000000000000000000000000000000000000000000000000000000000006040517f205c28780000000000000000000000000000000000000000000000000000000081526001600160a01b03848116600483015260248201849052919091169063205c287890604401600060405180830381600087803b1580156108d857600080fd5b505af11580156108ec573d6000803e3d6000fd5b505050505050565b6001600160a01b037f00000000000000000000000000000000000000000000000000000000000000001630036109815760405162461bcd60e51b815260206004820152602c60248201527f46756e6374696f6e206d7573742062652063616c6c6564207468726f7567682060448201526b19195b1959d85d1958d85b1b60a21b6064820152608401610526565b7f00000000000000000000000000000000000000000000000000000000000000006001600160a01b03166109dc7f360894a13ba1a3210667c828492db98dca3e2076cc3735a920a3ca505d382bbc546001600160a01b031690565b6001600160a01b031614610a475760405162461bcd60e51b815260206004820152602c60248201527f46756e6374696f6e206d7573742062652063616c6c6564207468726f7567682060448201526b6163746976652070726f787960a01b6064820152608401610526565b610a5082610eb4565b610a5c82826001610ebc565b5050565b6000306001600160a01b037f00000000000000000000000000000000000000000000000000000000000000001614610b005760405162461bcd60e51b815260206004820152603860248201527f555550535570677261646561626c653a206d757374206e6f742062652063616c60448201527f6c6564207468726f7567682064656c656761746563616c6c00000000000000006064820152608401610526565b507f360894a13ba1a3210667c828492db98dca3e2076cc3735a920a3ca505d382bbc90565b610b2d610daf565b610b6e848484848080601f016020809104026020016040519081016040528093929190818152602001838380828437600092019190915250610e4492505050565b50505050565b6040517f70a082310000000000000000000000000000000000000000000000000000000081523060048201526000906001600160a01b037f000000000000000000000000000000000000000000000000000000000000000016906370a08231906024015b602060405180830381865afa158015610bf5573d6000803e3d6000fd5b505050506040513d601f19601f82011682018060405250810190610c199190611a62565b905090565b600054610100900460ff1615808015610c3e5750600054600160ff909116105b80610c585750303b158015610c58575060005460ff166001145b610cca5760405162461bcd60e51b815260206004820152602e60248201527f496e697469616c697a61626c653a20636f6e747261637420697320616c72656160448201527f647920696e697469616c697a65640000000000000000000000000000000000006064820152608401610526565b6000805460ff191660011790558015610ced576000805461ff0019166101001790555b610cf76000611190565b8015610a5c576000805461ff0019169055604051600181527f7f26b83ff96e1f2b6a682f133852f6798a09c465da95921460cefb38474024989060200160405180910390a15050565b6040517f35567e1a000000000000000000000000000000000000000000000000000000008152306004820152600060248201819052906001600160a01b037f000000000000000000000000000000000000000000000000000000000000000016906335567e1a90604401610bd8565b336001600160a01b037f0000000000000000000000000000000000000000000000000000000000000000161480610df657506000546201000090046001600160a01b031633145b610e425760405162461bcd60e51b815260206004820181905260248201527f6163636f756e743a206e6f74204f776e6572206f7220456e747279506f696e746044820152606401610526565b565b600080846001600160a01b03168484604051610e609190611a9f565b60006040518083038185875af1925050503d8060008114610e9d576040519150601f19603f3d011682016040523d82523d6000602084013e610ea2565b606091505b5091509150816105d657805160208201fd5b610755611126565b7f4910fdfa16fed3260ed0e7147f7cc6da11a60208b5b9406d12a635614ffd91435460ff1615610ef457610eef83611222565b505050565b826001600160a01b03166352d1902d6040518163ffffffff1660e01b8152600401602060405180830381865afa925050508015610f4e575060408051601f3d908101601f19168201909252610f4b91810190611a62565b60015b610fc05760405162461bcd60e51b815260206004820152602e60248201527f45524331393637557067726164653a206e657720696d706c656d656e7461746960448201527f6f6e206973206e6f7420555550530000000000000000000000000000000000006064820152608401610526565b7f360894a13ba1a3210667c828492db98dca3e2076cc3735a920a3ca505d382bbc81146110555760405162461bcd60e51b815260206004820152602960248201527f45524331393637557067726164653a20756e737570706f727465642070726f7860448201527f6961626c655555494400000000000000000000000000000000000000000000006064820152608401610526565b50610eef8383836112f8565b336001600160a01b037f00000000000000000000000000000000000000000000000000000000000000001614610e425760405162461bcd60e51b815260206004820152601c60248201527f6163636f756e743a206e6f742066726f6d20456e747279506f696e74000000006044820152606401610526565b801561075557604051600090339060001990849084818181858888f193505050503d80600081146105d6576040519150601f19603f3d011682016040523d82523d6000602084013e6105d6565b6000546201000090046001600160a01b031633148061114457503330145b610e425760405162461bcd60e51b815260206004820152600a60248201527f6f6e6c79206f776e6572000000000000000000000000000000000000000000006044820152606401610526565b600080547fffffffffffffffffffff0000000000000000000000000000000000000000ffff16620100006001600160a01b038481168202929092178084556040519190048216927f0000000000000000000000000000000000000000000000000000000000000000909216917f47e55c76e7a6f1fd8996a1da8008c1ea29699cca35e7bcd057f2dec313b6e5de91a350565b6001600160a01b0381163b61129f5760405162461bcd60e51b815260206004820152602d60248201527f455243313936373a206e657720696d706c656d656e746174696f6e206973206e60448201527f6f74206120636f6e7472616374000000000000000000000000000000000000006064820152608401610526565b7f360894a13ba1a3210667c828492db98dca3e2076cc3735a920a3ca505d382bbc80547fffffffffffffffffffffffff0000000000000000000000000000000000000000166001600160a01b0392909216919091179055565b6113018361131d565b60008251118061130e5750805b15610eef57610b6e838361135d565b61132681611222565b6040516001600160a01b038216907fbc7cd75a20ee27fd9adebab32041f755214dbc6bffa90cc0225b39da2e5c2d3b90600090a250565b60606107b18383604051806060016040528060278152602001611aef602791396060600080856001600160a01b03168560405161139a9190611a9f565b600060405180830381855af49150503d80600081146113d5576040519150601f19603f3d011682016040523d82523d6000602084013e6113da565b606091505b50915091506113eb868383876113f5565b9695505050505050565b6060831561146457825160000361145d576001600160a01b0385163b61145d5760405162461bcd60e51b815260206004820152601d60248201527f416464726573733a2063616c6c20746f206e6f6e2d636f6e74726163740000006044820152606401610526565b508161146e565b61146e8383611476565b949350505050565b8151156114865781518083602001fd5b8060405162461bcd60e51b81526004016105269190611abb565b6001600160a01b038116811461075557600080fd5b60008083601f8401126114c757600080fd5b50813567ffffffffffffffff8111156114df57600080fd5b6020830191508360208285010111156114f757600080fd5b9250929050565b60008060008060008060008060c0898b03121561151a57600080fd5b8835611525816114a0565b97506020890135611535816114a0565b96506040890135611545816114a0565b955060608901359450608089013567ffffffffffffffff8082111561156957600080fd5b6115758c838d016114b5565b909650945060a08b013591508082111561158e57600080fd5b5061159b8b828c016114b5565b999c989b5096995094979396929594505050565b6000602082840312156115c157600080fd5b81356001600160e01b0319811681146107b157600080fd5b6000806000806000608086880312156115f157600080fd5b85356115fc816114a0565b9450602086013561160c816114a0565b935060408601359250606086013567ffffffffffffffff81111561162f57600080fd5b61163b888289016114b5565b969995985093965092949392505050565b60008083601f84011261165e57600080fd5b50813567ffffffffffffffff81111561167657600080fd5b6020830191508360208260051b85010111156114f757600080fd5b600080600080604085870312156116a757600080fd5b843567ffffffffffffffff808211156116bf57600080fd5b6116cb8883890161164c565b909650945060208701359150808211156116e457600080fd5b506116f18782880161164c565b95989497509550505050565b60006020828403121561170f57600080fd5b81356107b1816114a0565b60008060006060848603121561172f57600080fd5b833567ffffffffffffffff81111561174657600080fd5b8401610160818703121561175957600080fd5b95602085013595506040909401359392505050565b6000806040838503121561178157600080fd5b823561178c816114a0565b946020939093013593505050565b634e487b7160e01b600052604160045260246000fd5b600080604083850312156117c357600080fd5b82356117ce816114a0565b9150602083013567ffffffffffffffff808211156117eb57600080fd5b818501915085601f8301126117ff57600080fd5b8135818111156118115761181161179a565b604051601f8201601f19908116603f011681019083821181831017156118395761183961179a565b8160405282815288602084870101111561185257600080fd5b8260208601602083013760006020848301015280955050505050509250929050565b6000806000806060858703121561188a57600080fd5b8435611895816114a0565b935060208501359250604085013567ffffffffffffffff8111156118b857600080fd5b6116f1878288016114b5565b60008060008060008060008060a0898b0312156118e057600080fd5b88356118eb816114a0565b975060208901356118fb816114a0565b9650604089013567ffffffffffffffff8082111561191857600080fd5b6119248c838d0161164c565b909850965060608b013591508082111561193d57600080fd5b6119498c838d0161164c565b909650945060808b013591508082111561158e57600080fd5b60008060008060008060a0878903121561197b57600080fd5b8635611986816114a0565b95506020870135611996816114a0565b94506040870135935060608701359250608087013567ffffffffffffffff8111156119c057600080fd5b6119cc89828a016114b5565b979a9699509497509295939492505050565b634e487b7160e01b600052603260045260246000fd5b6000808335601e19843603018112611a0b57600080fd5b83018035915067ffffffffffffffff821115611a2657600080fd5b6020019150368190038213156114f757600080fd5b600060018201611a5b57634e487b7160e01b600052601160045260246000fd5b5060010190565b600060208284031215611a7457600080fd5b5051919050565b60005b83811015611a96578181015183820152602001611a7e565b50506000910152565b60008251611ab1818460208701611a7b565b9190910192915050565b6020815260008251806020840152611ada816040850160208701611a7b565b601f01601f1916919091016040019291505056fe416464726573733a206c6f772d6c6576656c2064656c65676174652063616c6c206661696c6564a264697066735822122047ac28984d55ff20a975775755ec0709f49ee06bb7629abe7492b44161c2d0cd64736f6c63430008120033",
  "linkReferences": {},
  "deployedLinkReferences": {}
}