{
  "_format": "hh-sol-artifact-1",
  "contractName": "BrokenBLSAccount",
  "sourceName": "contracts/EIP4337/test/BrokenBlsAccount.sol",
  "abi": [
    {
      "inputs": [
        {
          "internalType": "contract IEntryPoint",
          "name": "anEntryPoint",
          "type": "address"
        },
        {
          "internalType": "address",
          "name": "anAggregator",
          "type": "address"
        }
      ],
      "stateMutability": "nonpayable",
      "type": "constructor"
    },
    {
      "anonymous": false,
      "inputs": [
        {
          "indexed": false,
          "internalType": "address",
          "name": "previousAdmin",
          "type": "address"
        },
        {
          "indexed": false,
          "internalType": "address",
          "name": "newAdmin",
          "type": "address"
        }
      ],
      "name": "AdminChanged",
      "type": "event"
    },
    {
      "anonymous": false,
      "inputs": [
        {
          "indexed": true,
          "internalType": "address",
          "name": "beacon",
          "type": "address"
        }
      ],
      "name": "BeaconUpgraded",
      "type": "event"
    },
    {
      "anonymous": false,
      "inputs": [
        {
          "indexed": false,
          "internalType": "uint8",
          "name": "version",
          "type": "uint8"
        }
      ],
      "name": "Initialized",
      "type": "event"
    },
    {
      "anonymous": false,
      "inputs": [
        {
          "indexed": false,
          "internalType": "uint256[4]",
          "name": "oldPublicKey",
          "type": "uint256[4]"
        },
        {
          "indexed": false,
          "internalType": "uint256[4]",
          "name": "newPublicKey",
          "type": "uint256[4]"
        }
      ],
      "name": "PublicKeyChanged",
      "type": "event"
    },
    {
      "anonymous": false,
      "inputs": [
        {
          "indexed": true,
          "internalType": "contract IEntryPoint",
          "name": "entryPoint",
          "type": "address"
        },
        {
          "indexed": true,
          "internalType": "address",
          "name": "owner",
          "type": "address"
        }
      ],
      "name": "SimpleAccountInitialized",
      "type": "event"
    },
    {
      "anonymous": false,
      "inputs": [
        {
          "indexed": true,
          "internalType": "address",
          "name": "implementation",
          "type": "address"
        }
      ],
      "name": "Upgraded",
      "type": "event"
    },
    {
      "inputs": [],
      "name": "addDeposit",
      "outputs": [],
      "stateMutability": "payable",
      "type": "function"
    },
    {
      "inputs": [],
      "name": "aggregator",
      "outputs": [
        {
          "internalType": "address",
          "name": "",
          "type": "address"
        }
      ],
      "stateMutability": "view",
      "type": "function"
    },
    {
      "inputs": [],
      "name": "entryPoint",
      "outputs": [
        {
          "internalType": "contract IEntryPoint",
          "name": "",
          "type": "address"
        }
      ],
      "stateMutability": "view",
      "type": "function"
    },
    {
      "inputs": [
        {
          "internalType": "address",
          "name": "dest",
          "type": "address"
        },
        {
          "internalType": "uint256",
          "name": "value",
          "type": "uint256"
        },
        {
          "internalType": "bytes",
          "name": "func",
          "type": "bytes"
        }
      ],
      "name": "execute",
      "outputs": [],
      "stateMutability": "nonpayable",
      "type": "function"
    },
    {
      "inputs": [
        {
          "internalType": "address[]",
          "name": "dest",
          "type": "address[]"
        },
        {
          "internalType": "bytes[]",
          "name": "func",
          "type": "bytes[]"
        }
      ],
      "name": "executeBatch",
      "outputs": [],
      "stateMutability": "nonpayable",
      "type": "function"
    },
    {
      "inputs": [],
      "name": "getBlsPublicKey",
      "outputs": [
        {
          "internalType": "uint256[4]",
          "name": "",
          "type": "uint256[4]"
        }
      ],
      "stateMutability": "pure",
      "type": "function"
    },
    {
      "inputs": [],
      "name": "getDeposit",
      "outputs": [
        {
          "internalType": "uint256",
          "name": "",
          "type": "uint256"
        }
      ],
      "stateMutability": "view",
      "type": "function"
    },
    {
      "inputs": [],
      "name": "getNonce",
      "outputs": [
        {
          "internalType": "uint256",
          "name": "",
          "type": "uint256"
        }
      ],
      "stateMutability": "view",
      "type": "function"
    },
    {
      "inputs": [
        {
          "internalType": "address",
          "name": "anOwner",
          "type": "address"
        }
      ],
      "name": "initialize",
      "outputs": [],
      "stateMutability": "nonpayable",
      "type": "function"
    },
    {
      "inputs": [
        {
          "internalType": "uint256[4]",
          "name": "aPublicKey",
          "type": "uint256[4]"
        }
      ],
      "name": "initialize",
      "outputs": [],
      "stateMutability": "nonpayable",
      "type": "function"
    },
    {
      "inputs": [
        {
          "internalType": "address",
          "name": "",
          "type": "address"
        },
        {
          "internalType": "address",
          "name": "",
          "type": "address"
        },
        {
          "internalType": "uint256[]",
          "name": "",
          "type": "uint256[]"
        },
        {
          "internalType": "uint256[]",
          "name": "",
          "type": "uint256[]"
        },
        {
          "internalType": "bytes",
          "name": "",
          "type": "bytes"
        }
      ],
      "name": "onERC1155BatchReceived",
      "outputs": [
        {
          "internalType": "bytes4",
          "name": "",
          "type": "bytes4"
        }
      ],
      "stateMutability": "pure",
      "type": "function"
    },
    {
      "inputs": [
        {
          "internalType": "address",
          "name": "",
          "type": "address"
        },
        {
          "internalType": "address",
          "name": "",
          "type": "address"
        },
        {
          "internalType": "uint256",
          "name": "",
          "type": "uint256"
        },
        {
          "internalType": "uint256",
          "name": "",
          "type": "uint256"
        },
        {
          "internalType": "bytes",
          "name": "",
          "type": "bytes"
        }
      ],
      "name": "onERC1155Received",
      "outputs": [
        {
          "internalType": "bytes4",
          "name": "",
          "type": "bytes4"
        }
      ],
      "stateMutability": "pure",
      "type": "function"
    },
    {
      "inputs": [
        {
          "internalType": "address",
          "name": "",
          "type": "address"
        },
        {
          "internalType": "address",
          "name": "",
          "type": "address"
        },
        {
          "internalType": "uint256",
          "name": "",
          "type": "uint256"
        },
        {
          "internalType": "bytes",
          "name": "",
          "type": "bytes"
        }
      ],
      "name": "onERC721Received",
      "outputs": [
        {
          "internalType": "bytes4",
          "name": "",
          "type": "bytes4"
        }
      ],
      "stateMutability": "pure",
      "type": "function"
    },
    {
      "inputs": [],
      "name": "owner",
      "outputs": [
        {
          "internalType": "address",
          "name": "",
          "type": "address"
        }
      ],
      "stateMutability": "view",
      "type": "function"
    },
    {
      "inputs": [],
      "name": "proxiableUUID",
      "outputs": [
        {
          "internalType": "bytes32",
          "name": "",
          "type": "bytes32"
        }
      ],
      "stateMutability": "view",
      "type": "function"
    },
    {
      "inputs": [
        {
          "internalType": "bytes4",
          "name": "interfaceId",
          "type": "bytes4"
        }
      ],
      "name": "supportsInterface",
      "outputs": [
        {
          "internalType": "bool",
          "name": "",
          "type": "bool"
        }
      ],
      "stateMutability": "view",
      "type": "function"
    },
    {
      "inputs": [
        {
          "internalType": "address",
          "name": "",
          "type": "address"
        },
        {
          "internalType": "address",
          "name": "",
          "type": "address"
        },
        {
          "internalType": "address",
          "name": "",
          "type": "address"
        },
        {
          "internalType": "uint256",
          "name": "",
          "type": "uint256"
        },
        {
          "internalType": "bytes",
          "name": "",
          "type": "bytes"
        },
        {
          "internalType": "bytes",
          "name": "",
          "type": "bytes"
        }
      ],
      "name": "tokensReceived",
      "outputs": [],
      "stateMutability": "pure",
      "type": "function"
    },
    {
      "inputs": [
        {
          "internalType": "address",
          "name": "newImplementation",
          "type": "address"
        }
      ],
      "name": "upgradeTo",
      "outputs": [],
      "stateMutability": "nonpayable",
      "type": "function"
    },
    {
      "inputs": [
        {
          "internalType": "address",
          "name": "newImplementation",
          "type": "address"
        },
        {
          "internalType": "bytes",
          "name": "data",
          "type": "bytes"
        }
      ],
      "name": "upgradeToAndCall",
      "outputs": [],
      "stateMutability": "payable",
      "type": "function"
    },
    {
      "inputs": [
        {
          "components": [
            {
              "internalType": "address",
              "name": "sender",
              "type": "address"
            },
            {
              "internalType": "uint256",
              "name": "nonce",
              "type": "uint256"
            },
            {
              "internalType": "bytes",
              "name": "initCode",
              "type": "bytes"
            },
            {
              "internalType": "bytes",
              "name": "callData",
              "type": "bytes"
            },
            {
              "internalType": "uint256",
              "name": "callGasLimit",
              "type": "uint256"
            },
            {
              "internalType": "uint256",
              "name": "verificationGasLimit",
              "type": "uint256"
            },
            {
              "internalType": "uint256",
              "name": "preVerificationGas",
              "type": "uint256"
            },
            {
              "internalType": "uint256",
              "name": "maxFeePerGas",
              "type": "uint256"
            },
            {
              "internalType": "uint256",
              "name": "maxPriorityFeePerGas",
              "type": "uint256"
            },
            {
              "internalType": "bytes",
              "name": "paymasterAndData",
              "type": "bytes"
            },
            {
              "internalType": "bytes",
              "name": "signature",
              "type": "bytes"
            }
          ],
          "internalType": "struct UserOperation",
          "name": "userOp",
          "type": "tuple"
        },
        {
          "internalType": "bytes32",
          "name": "userOpHash",
          "type": "bytes32"
        },
        {
          "internalType": "uint256",
          "name": "missingAccountFunds",
          "type": "uint256"
        }
      ],
      "name": "validateUserOp",
      "outputs": [
        {
          "internalType": "uint256",
          "name": "validationData",
          "type": "uint256"
        }
      ],
      "stateMutability": "nonpayable",
      "type": "function"
    },
    {
      "inputs": [
        {
          "internalType": "address payable",
          "name": "withdrawAddress",
          "type": "address"
        },
        {
          "internalType": "uint256",
          "name": "amount",
          "type": "uint256"
        }
      ],
      "name": "withdrawDepositTo",
      "outputs": [],
      "stateMutability": "nonpayable",
      "type": "function"
    },
    {
      "stateMutability": "payable",
      "type": "receive"
    }
  ],
  "bytecode": "0x60e0604052306080523480156200001557600080fd5b5060405162001f8338038062001f8383398101604081905262000038916200013e565b6001600160a01b03821660a052816200005062000064565b506001600160a01b031660c052506200017d565b600054610100900460ff1615620000d15760405162461bcd60e51b815260206004820152602760248201527f496e697469616c697a61626c653a20636f6e747261637420697320696e697469604482015266616c697a696e6760c81b606482015260840160405180910390fd5b60005460ff9081161462000123576000805460ff191660ff9081179091556040519081527f7f26b83ff96e1f2b6a682f133852f6798a09c465da95921460cefb38474024989060200160405180910390a15b565b6001600160a01b03811681146200013b57600080fd5b50565b600080604083850312156200015257600080fd5b82516200015f8162000125565b6020840151909250620001728162000125565b809150509250929050565b60805160a05160c051611d82620002016000396000818161024c01526107df01526000818161035901528181610822015281816108bc01528181610c1501528181610de701528181610f0f015281816111c1015261132e01526000818161064f015281816106d401528181610966015281816109eb0152610ad50152611d826000f3fe60806040526004361061016d5760003560e01c806352d1902d116100cb578063c399ec881161007f578063e02afbae11610059578063e02afbae1461042f578063ee472f3614610451578063f23a6e611461047157600080fd5b8063c399ec88146103e5578063c4d66de8146103fa578063d087d2881461041a57600080fd5b8063b0d691fe116100b0578063b0d691fe1461034a578063b61d27f61461037d578063bc197c811461039d57600080fd5b806352d1902d1461030f5780638da5cb5b1461032457600080fd5b80633659cfe6116101225780634a58db19116101075780634a58db19146102d45780634d44560d146102dc5780634f1ef286146102fc57600080fd5b80633659cfe6146102865780633a871cdd146102a657600080fd5b8063150b7a0211610153578063150b7a02146101d557806318dfb3c71461021a578063245a7bfc1461023a57600080fd5b806223de291461017957806301ffc9a7146101a057600080fd5b3661017457005b600080fd5b34801561018557600080fd5b5061019e610194366004611671565b5050505050505050565b005b3480156101ac57600080fd5b506101c06101bb366004611722565b6104b7565b60405190151581526020015b60405180910390f35b3480156101e157600080fd5b506102016101f036600461174c565b630a85bd0160e11b95945050505050565b6040516001600160e01b031990911681526020016101cc565b34801561022657600080fd5b5061019e610235366004611804565b61053b565b34801561024657600080fd5b5061026e7f000000000000000000000000000000000000000000000000000000000000000081565b6040516001600160a01b0390911681526020016101cc565b34801561029257600080fd5b5061019e6102a1366004611870565b610645565b3480156102b257600080fd5b506102c66102c136600461188d565b6107c0565b6040519081526020016101cc565b61019e610820565b3480156102e857600080fd5b5061019e6102f73660046118e1565b6108b2565b61019e61030a366004611954565b61095c565b34801561031b57600080fd5b506102c6610ac8565b34801561033057600080fd5b5060005461026e906201000090046001600160a01b031681565b34801561035657600080fd5b507f000000000000000000000000000000000000000000000000000000000000000061026e565b34801561038957600080fd5b5061019e6103983660046119fc565b610b8d565b3480156103a957600080fd5b506102016103b8366004611a4c565b7fbc197c810000000000000000000000000000000000000000000000000000000098975050505050505050565b3480156103f157600080fd5b506102c6610bdc565b34801561040657600080fd5b5061019e610415366004611870565b610c86565b34801561042657600080fd5b506102c6610da7565b34801561043b57600080fd5b50610444610e16565b6040516101cc9190611aea565b34801561045d57600080fd5b5061019e61046c366004611b1b565b610e2b565b34801561047d57600080fd5b5061020161048c366004611b99565b7ff23a6e61000000000000000000000000000000000000000000000000000000009695505050505050565b60006001600160e01b03198216630a85bd0160e11b148061050157506001600160e01b031982167f4e2312e000000000000000000000000000000000000000000000000000000000145b8061053557506001600160e01b031982167f01ffc9a700000000000000000000000000000000000000000000000000000000145b92915050565b610543610f04565b8281146105975760405162461bcd60e51b815260206004820152601360248201527f77726f6e67206172726179206c656e677468730000000000000000000000000060448201526064015b60405180910390fd5b60005b8381101561063e5761062c8585838181106105b7576105b7611c15565b90506020020160208101906105cc9190611870565b60008585858181106105e0576105e0611c15565b90506020028101906105f29190611c2b565b8080601f016020809104026020016040519081016040528093929190818152602001838380828437600092019190915250610f9992505050565b8061063681611c72565b91505061059a565b5050505050565b6001600160a01b037f00000000000000000000000000000000000000000000000000000000000000001630036106d25760405162461bcd60e51b815260206004820152602c60248201527f46756e6374696f6e206d7573742062652063616c6c6564207468726f7567682060448201526b19195b1959d85d1958d85b1b60a21b606482015260840161058e565b7f00000000000000000000000000000000000000000000000000000000000000006001600160a01b031661072d7f360894a13ba1a3210667c828492db98dca3e2076cc3735a920a3ca505d382bbc546001600160a01b031690565b6001600160a01b0316146107985760405162461bcd60e51b815260206004820152602c60248201527f46756e6374696f6e206d7573742062652063616c6c6564207468726f7567682060448201526b6163746976652070726f787960a01b606482015260840161058e565b6107a181611009565b604080516000808252602082019092526107bd91839190611011565b50565b60006107ca6111b6565b50604080516060810182526001600160a01b037f00000000000000000000000000000000000000000000000000000000000000001680825260006020830181905291909201526108198261122e565b9392505050565b7f00000000000000000000000000000000000000000000000000000000000000006040517fb760faf90000000000000000000000000000000000000000000000000000000081523060048201526001600160a01b03919091169063b760faf99034906024016000604051808303818588803b15801561089e57600080fd5b505af115801561063e573d6000803e3d6000fd5b6108ba61127b565b7f00000000000000000000000000000000000000000000000000000000000000006040517f205c28780000000000000000000000000000000000000000000000000000000081526001600160a01b03848116600483015260248201849052919091169063205c287890604401600060405180830381600087803b15801561094057600080fd5b505af1158015610954573d6000803e3d6000fd5b505050505050565b6001600160a01b037f00000000000000000000000000000000000000000000000000000000000000001630036109e95760405162461bcd60e51b815260206004820152602c60248201527f46756e6374696f6e206d7573742062652063616c6c6564207468726f7567682060448201526b19195b1959d85d1958d85b1b60a21b606482015260840161058e565b7f00000000000000000000000000000000000000000000000000000000000000006001600160a01b0316610a447f360894a13ba1a3210667c828492db98dca3e2076cc3735a920a3ca505d382bbc546001600160a01b031690565b6001600160a01b031614610aaf5760405162461bcd60e51b815260206004820152602c60248201527f46756e6374696f6e206d7573742062652063616c6c6564207468726f7567682060448201526b6163746976652070726f787960a01b606482015260840161058e565b610ab882611009565b610ac482826001611011565b5050565b6000306001600160a01b037f00000000000000000000000000000000000000000000000000000000000000001614610b685760405162461bcd60e51b815260206004820152603860248201527f555550535570677261646561626c653a206d757374206e6f742062652063616c60448201527f6c6564207468726f7567682064656c656761746563616c6c0000000000000000606482015260840161058e565b507f360894a13ba1a3210667c828492db98dca3e2076cc3735a920a3ca505d382bbc90565b610b95610f04565b610bd6848484848080601f016020809104026020016040519081016040528093929190818152602001838380828437600092019190915250610f9992505050565b50505050565b6040517f70a082310000000000000000000000000000000000000000000000000000000081523060048201526000906001600160a01b037f000000000000000000000000000000000000000000000000000000000000000016906370a08231906024015b602060405180830381865afa158015610c5d573d6000803e3d6000fd5b505050506040513d601f19601f82011682018060405250810190610c819190611c99565b905090565b600054610100900460ff1615808015610ca65750600054600160ff909116105b80610cc05750303b158015610cc0575060005460ff166001145b610d325760405162461bcd60e51b815260206004820152602e60248201527f496e697469616c697a61626c653a20636f6e747261637420697320616c72656160448201527f647920696e697469616c697a6564000000000000000000000000000000000000606482015260840161058e565b6000805460ff191660011790558015610d55576000805461ff0019166101001790555b610d5e826112e5565b8015610ac4576000805461ff0019169055604051600181527f7f26b83ff96e1f2b6a682f133852f6798a09c465da95921460cefb38474024989060200160405180910390a15050565b6040517f35567e1a000000000000000000000000000000000000000000000000000000008152306004820152600060248201819052906001600160a01b037f000000000000000000000000000000000000000000000000000000000000000016906335567e1a90604401610c40565b610e1e6115f5565b610e266115f5565b919050565b600054610100900460ff1615808015610e4b5750600054600160ff909116105b80610e655750303b158015610e65575060005460ff166001145b610ed75760405162461bcd60e51b815260206004820152602e60248201527f496e697469616c697a61626c653a20636f6e747261637420697320616c72656160448201527f647920696e697469616c697a6564000000000000000000000000000000000000606482015260840161058e565b6000805460ff191660011790558015610efa576000805461ff0019166101001790555b610d5e60006112e5565b336001600160a01b037f0000000000000000000000000000000000000000000000000000000000000000161480610f4b57506000546201000090046001600160a01b031633145b610f975760405162461bcd60e51b815260206004820181905260248201527f6163636f756e743a206e6f74204f776e6572206f7220456e747279506f696e74604482015260640161058e565b565b600080846001600160a01b03168484604051610fb59190611cd6565b60006040518083038185875af1925050503d8060008114610ff2576040519150601f19603f3d011682016040523d82523d6000602084013e610ff7565b606091505b50915091508161063e57805160208201fd5b6107bd61127b565b7f4910fdfa16fed3260ed0e7147f7cc6da11a60208b5b9406d12a635614ffd91435460ff16156110495761104483611377565b505050565b826001600160a01b03166352d1902d6040518163ffffffff1660e01b8152600401602060405180830381865afa9250505080156110a3575060408051601f3d908101601f191682019092526110a091810190611c99565b60015b6111155760405162461bcd60e51b815260206004820152602e60248201527f45524331393637557067726164653a206e657720696d706c656d656e7461746960448201527f6f6e206973206e6f742055555053000000000000000000000000000000000000606482015260840161058e565b7f360894a13ba1a3210667c828492db98dca3e2076cc3735a920a3ca505d382bbc81146111aa5760405162461bcd60e51b815260206004820152602960248201527f45524331393637557067726164653a20756e737570706f727465642070726f7860448201527f6961626c65555549440000000000000000000000000000000000000000000000606482015260840161058e565b5061104483838361144d565b336001600160a01b037f00000000000000000000000000000000000000000000000000000000000000001614610f975760405162461bcd60e51b815260206004820152601c60248201527f6163636f756e743a206e6f742066726f6d20456e747279506f696e7400000000604482015260640161058e565b80156107bd57604051600090339060001990849084818181858888f193505050503d806000811461063e576040519150601f19603f3d011682016040523d82523d6000602084013e61063e565b6000546201000090046001600160a01b031633148061129957503330145b610f975760405162461bcd60e51b815260206004820152600a60248201527f6f6e6c79206f776e657200000000000000000000000000000000000000000000604482015260640161058e565b600080547fffffffffffffffffffff0000000000000000000000000000000000000000ffff16620100006001600160a01b038481168202929092178084556040519190048216927f0000000000000000000000000000000000000000000000000000000000000000909216917f47e55c76e7a6f1fd8996a1da8008c1ea29699cca35e7bcd057f2dec313b6e5de91a350565b6001600160a01b0381163b6113f45760405162461bcd60e51b815260206004820152602d60248201527f455243313936373a206e657720696d706c656d656e746174696f6e206973206e60448201527f6f74206120636f6e747261637400000000000000000000000000000000000000606482015260840161058e565b7f360894a13ba1a3210667c828492db98dca3e2076cc3735a920a3ca505d382bbc80547fffffffffffffffffffffffff0000000000000000000000000000000000000000166001600160a01b0392909216919091179055565b61145683611472565b6000825111806114635750805b1561104457610bd683836114b2565b61147b81611377565b6040516001600160a01b038216907fbc7cd75a20ee27fd9adebab32041f755214dbc6bffa90cc0225b39da2e5c2d3b90600090a250565b60606108198383604051806060016040528060278152602001611d26602791396060600080856001600160a01b0316856040516114ef9190611cd6565b600060405180830381855af49150503d806000811461152a576040519150601f19603f3d011682016040523d82523d6000602084013e61152f565b606091505b50915091506115408683838761154a565b9695505050505050565b606083156115b95782516000036115b2576001600160a01b0385163b6115b25760405162461bcd60e51b815260206004820152601d60248201527f416464726573733a2063616c6c20746f206e6f6e2d636f6e7472616374000000604482015260640161058e565b50816115c3565b6115c383836115cb565b949350505050565b8151156115db5781518083602001fd5b8060405162461bcd60e51b815260040161058e9190611cf2565b60405180608001604052806004906020820280368337509192915050565b6001600160a01b03811681146107bd57600080fd5b60008083601f84011261163a57600080fd5b50813567ffffffffffffffff81111561165257600080fd5b60208301915083602082850101111561166a57600080fd5b9250929050565b60008060008060008060008060c0898b03121561168d57600080fd5b883561169881611613565b975060208901356116a881611613565b965060408901356116b881611613565b955060608901359450608089013567ffffffffffffffff808211156116dc57600080fd5b6116e88c838d01611628565b909650945060a08b013591508082111561170157600080fd5b5061170e8b828c01611628565b999c989b5096995094979396929594505050565b60006020828403121561173457600080fd5b81356001600160e01b03198116811461081957600080fd5b60008060008060006080868803121561176457600080fd5b853561176f81611613565b9450602086013561177f81611613565b935060408601359250606086013567ffffffffffffffff8111156117a257600080fd5b6117ae88828901611628565b969995985093965092949392505050565b60008083601f8401126117d157600080fd5b50813567ffffffffffffffff8111156117e957600080fd5b6020830191508360208260051b850101111561166a57600080fd5b6000806000806040858703121561181a57600080fd5b843567ffffffffffffffff8082111561183257600080fd5b61183e888389016117bf565b9096509450602087013591508082111561185757600080fd5b50611864878288016117bf565b95989497509550505050565b60006020828403121561188257600080fd5b813561081981611613565b6000806000606084860312156118a257600080fd5b833567ffffffffffffffff8111156118b957600080fd5b840161016081870312156118cc57600080fd5b95602085013595506040909401359392505050565b600080604083850312156118f457600080fd5b82356118ff81611613565b946020939093013593505050565b634e487b7160e01b600052604160045260246000fd5b604051601f8201601f1916810167ffffffffffffffff8111828210171561194c5761194c61190d565b604052919050565b6000806040838503121561196757600080fd5b823561197281611613565b915060208381013567ffffffffffffffff8082111561199057600080fd5b818601915086601f8301126119a457600080fd5b8135818111156119b6576119b661190d565b6119c8601f8201601f19168501611923565b915080825287848285010111156119de57600080fd5b80848401858401376000848284010152508093505050509250929050565b60008060008060608587031215611a1257600080fd5b8435611a1d81611613565b935060208501359250604085013567ffffffffffffffff811115611a4057600080fd5b61186487828801611628565b60008060008060008060008060a0898b031215611a6857600080fd5b8835611a7381611613565b97506020890135611a8381611613565b9650604089013567ffffffffffffffff80821115611aa057600080fd5b611aac8c838d016117bf565b909850965060608b0135915080821115611ac557600080fd5b611ad18c838d016117bf565b909650945060808b013591508082111561170157600080fd5b60808101818360005b6004811015611b12578151835260209283019290910190600101611af3565b50505092915050565b600060808284031215611b2d57600080fd5b82601f830112611b3c57600080fd5b6040516080810181811067ffffffffffffffff82111715611b5f57611b5f61190d565b604052806080840185811115611b7457600080fd5b845b81811015611b8e578035835260209283019201611b76565b509195945050505050565b60008060008060008060a08789031215611bb257600080fd5b8635611bbd81611613565b95506020870135611bcd81611613565b94506040870135935060608701359250608087013567ffffffffffffffff811115611bf757600080fd5b611c0389828a01611628565b979a9699509497509295939492505050565b634e487b7160e01b600052603260045260246000fd5b6000808335601e19843603018112611c4257600080fd5b83018035915067ffffffffffffffff821115611c5d57600080fd5b60200191503681900382131561166a57600080fd5b600060018201611c9257634e487b7160e01b600052601160045260246000fd5b5060010190565b600060208284031215611cab57600080fd5b5051919050565b60005b83811015611ccd578181015183820152602001611cb5565b50506000910152565b60008251611ce8818460208701611cb2565b9190910192915050565b6020815260008251806020840152611d11816040850160208701611cb2565b601f01601f1916919091016040019291505056fe416464726573733a206c6f772d6c6576656c2064656c65676174652063616c6c206661696c6564a2646970667358221220d7ef0bb1ea22be1ef12626c32aa064e5556d18b4e917cb6aaa2fbf15a47833bd64736f6c63430008120033",
  "linkReferences": {},
  "deployedLinkReferences": {}
}