{
  "_format": "hh-sol-artifact-1",
  "contractName": "TestExpiryAccount",
  "sourceName": "contracts/EIP4337/test/TestExpiryAccount.sol",
  "abi": [
    {
      "inputs": [
        {
          "internalType": "contract IEntryPoint",
          "name": "anEntryPoint",
          "type": "address"
        }
      ],
      "stateMutability": "nonpayable",
      "type": "constructor"
    },
    {
      "anonymous": false,
      "inputs": [
        {
          "indexed": false,
          "internalType": "address",
          "name": "previousAdmin",
          "type": "address"
        },
        {
          "indexed": false,
          "internalType": "address",
          "name": "newAdmin",
          "type": "address"
        }
      ],
      "name": "AdminChanged",
      "type": "event"
    },
    {
      "anonymous": false,
      "inputs": [
        {
          "indexed": true,
          "internalType": "address",
          "name": "beacon",
          "type": "address"
        }
      ],
      "name": "BeaconUpgraded",
      "type": "event"
    },
    {
      "anonymous": false,
      "inputs": [
        {
          "indexed": false,
          "internalType": "uint8",
          "name": "version",
          "type": "uint8"
        }
      ],
      "name": "Initialized",
      "type": "event"
    },
    {
      "anonymous": false,
      "inputs": [
        {
          "indexed": true,
          "internalType": "contract IEntryPoint",
          "name": "entryPoint",
          "type": "address"
        },
        {
          "indexed": true,
          "internalType": "address",
          "name": "owner",
          "type": "address"
        }
      ],
      "name": "SimpleAccountInitialized",
      "type": "event"
    },
    {
      "anonymous": false,
      "inputs": [
        {
          "indexed": true,
          "internalType": "address",
          "name": "implementation",
          "type": "address"
        }
      ],
      "name": "Upgraded",
      "type": "event"
    },
    {
      "inputs": [],
      "name": "addDeposit",
      "outputs": [],
      "stateMutability": "payable",
      "type": "function"
    },
    {
      "inputs": [
        {
          "internalType": "address",
          "name": "owner",
          "type": "address"
        },
        {
          "internalType": "uint48",
          "name": "_after",
          "type": "uint48"
        },
        {
          "internalType": "uint48",
          "name": "_until",
          "type": "uint48"
        }
      ],
      "name": "addTemporaryOwner",
      "outputs": [],
      "stateMutability": "nonpayable",
      "type": "function"
    },
    {
      "inputs": [],
      "name": "entryPoint",
      "outputs": [
        {
          "internalType": "contract IEntryPoint",
          "name": "",
          "type": "address"
        }
      ],
      "stateMutability": "view",
      "type": "function"
    },
    {
      "inputs": [
        {
          "internalType": "address",
          "name": "dest",
          "type": "address"
        },
        {
          "internalType": "uint256",
          "name": "value",
          "type": "uint256"
        },
        {
          "internalType": "bytes",
          "name": "func",
          "type": "bytes"
        }
      ],
      "name": "execute",
      "outputs": [],
      "stateMutability": "nonpayable",
      "type": "function"
    },
    {
      "inputs": [
        {
          "internalType": "address[]",
          "name": "dest",
          "type": "address[]"
        },
        {
          "internalType": "bytes[]",
          "name": "func",
          "type": "bytes[]"
        }
      ],
      "name": "executeBatch",
      "outputs": [],
      "stateMutability": "nonpayable",
      "type": "function"
    },
    {
      "inputs": [],
      "name": "getDeposit",
      "outputs": [
        {
          "internalType": "uint256",
          "name": "",
          "type": "uint256"
        }
      ],
      "stateMutability": "view",
      "type": "function"
    },
    {
      "inputs": [],
      "name": "getNonce",
      "outputs": [
        {
          "internalType": "uint256",
          "name": "",
          "type": "uint256"
        }
      ],
      "stateMutability": "view",
      "type": "function"
    },
    {
      "inputs": [
        {
          "internalType": "address",
          "name": "anOwner",
          "type": "address"
        }
      ],
      "name": "initialize",
      "outputs": [],
      "stateMutability": "nonpayable",
      "type": "function"
    },
    {
      "inputs": [
        {
          "internalType": "address",
          "name": "",
          "type": "address"
        },
        {
          "internalType": "address",
          "name": "",
          "type": "address"
        },
        {
          "internalType": "uint256[]",
          "name": "",
          "type": "uint256[]"
        },
        {
          "internalType": "uint256[]",
          "name": "",
          "type": "uint256[]"
        },
        {
          "internalType": "bytes",
          "name": "",
          "type": "bytes"
        }
      ],
      "name": "onERC1155BatchReceived",
      "outputs": [
        {
          "internalType": "bytes4",
          "name": "",
          "type": "bytes4"
        }
      ],
      "stateMutability": "pure",
      "type": "function"
    },
    {
      "inputs": [
        {
          "internalType": "address",
          "name": "",
          "type": "address"
        },
        {
          "internalType": "address",
          "name": "",
          "type": "address"
        },
        {
          "internalType": "uint256",
          "name": "",
          "type": "uint256"
        },
        {
          "internalType": "uint256",
          "name": "",
          "type": "uint256"
        },
        {
          "internalType": "bytes",
          "name": "",
          "type": "bytes"
        }
      ],
      "name": "onERC1155Received",
      "outputs": [
        {
          "internalType": "bytes4",
          "name": "",
          "type": "bytes4"
        }
      ],
      "stateMutability": "pure",
      "type": "function"
    },
    {
      "inputs": [
        {
          "internalType": "address",
          "name": "",
          "type": "address"
        },
        {
          "internalType": "address",
          "name": "",
          "type": "address"
        },
        {
          "internalType": "uint256",
          "name": "",
          "type": "uint256"
        },
        {
          "internalType": "bytes",
          "name": "",
          "type": "bytes"
        }
      ],
      "name": "onERC721Received",
      "outputs": [
        {
          "internalType": "bytes4",
          "name": "",
          "type": "bytes4"
        }
      ],
      "stateMutability": "pure",
      "type": "function"
    },
    {
      "inputs": [],
      "name": "owner",
      "outputs": [
        {
          "internalType": "address",
          "name": "",
          "type": "address"
        }
      ],
      "stateMutability": "view",
      "type": "function"
    },
    {
      "inputs": [
        {
          "internalType": "address",
          "name": "",
          "type": "address"
        }
      ],
      "name": "ownerAfter",
      "outputs": [
        {
          "internalType": "uint48",
          "name": "",
          "type": "uint48"
        }
      ],
      "stateMutability": "view",
      "type": "function"
    },
    {
      "inputs": [
        {
          "internalType": "address",
          "name": "",
          "type": "address"
        }
      ],
      "name": "ownerUntil",
      "outputs": [
        {
          "internalType": "uint48",
          "name": "",
          "type": "uint48"
        }
      ],
      "stateMutability": "view",
      "type": "function"
    },
    {
      "inputs": [],
      "name": "proxiableUUID",
      "outputs": [
        {
          "internalType": "bytes32",
          "name": "",
          "type": "bytes32"
        }
      ],
      "stateMutability": "view",
      "type": "function"
    },
    {
      "inputs": [
        {
          "internalType": "bytes4",
          "name": "interfaceId",
          "type": "bytes4"
        }
      ],
      "name": "supportsInterface",
      "outputs": [
        {
          "internalType": "bool",
          "name": "",
          "type": "bool"
        }
      ],
      "stateMutability": "view",
      "type": "function"
    },
    {
      "inputs": [
        {
          "internalType": "address",
          "name": "",
          "type": "address"
        },
        {
          "internalType": "address",
          "name": "",
          "type": "address"
        },
        {
          "internalType": "address",
          "name": "",
          "type": "address"
        },
        {
          "internalType": "uint256",
          "name": "",
          "type": "uint256"
        },
        {
          "internalType": "bytes",
          "name": "",
          "type": "bytes"
        },
        {
          "internalType": "bytes",
          "name": "",
          "type": "bytes"
        }
      ],
      "name": "tokensReceived",
      "outputs": [],
      "stateMutability": "pure",
      "type": "function"
    },
    {
      "inputs": [
        {
          "internalType": "address",
          "name": "newImplementation",
          "type": "address"
        }
      ],
      "name": "upgradeTo",
      "outputs": [],
      "stateMutability": "nonpayable",
      "type": "function"
    },
    {
      "inputs": [
        {
          "internalType": "address",
          "name": "newImplementation",
          "type": "address"
        },
        {
          "internalType": "bytes",
          "name": "data",
          "type": "bytes"
        }
      ],
      "name": "upgradeToAndCall",
      "outputs": [],
      "stateMutability": "payable",
      "type": "function"
    },
    {
      "inputs": [
        {
          "components": [
            {
              "internalType": "address",
              "name": "sender",
              "type": "address"
            },
            {
              "internalType": "uint256",
              "name": "nonce",
              "type": "uint256"
            },
            {
              "internalType": "bytes",
              "name": "initCode",
              "type": "bytes"
            },
            {
              "internalType": "bytes",
              "name": "callData",
              "type": "bytes"
            },
            {
              "internalType": "uint256",
              "name": "callGasLimit",
              "type": "uint256"
            },
            {
              "internalType": "uint256",
              "name": "verificationGasLimit",
              "type": "uint256"
            },
            {
              "internalType": "uint256",
              "name": "preVerificationGas",
              "type": "uint256"
            },
            {
              "internalType": "uint256",
              "name": "maxFeePerGas",
              "type": "uint256"
            },
            {
              "internalType": "uint256",
              "name": "maxPriorityFeePerGas",
              "type": "uint256"
            },
            {
              "internalType": "bytes",
              "name": "paymasterAndData",
              "type": "bytes"
            },
            {
              "internalType": "bytes",
              "name": "signature",
              "type": "bytes"
            }
          ],
          "internalType": "struct UserOperation",
          "name": "userOp",
          "type": "tuple"
        },
        {
          "internalType": "bytes32",
          "name": "userOpHash",
          "type": "bytes32"
        },
        {
          "internalType": "uint256",
          "name": "missingAccountFunds",
          "type": "uint256"
        }
      ],
      "name": "validateUserOp",
      "outputs": [
        {
          "internalType": "uint256",
          "name": "validationData",
          "type": "uint256"
        }
      ],
      "stateMutability": "nonpayable",
      "type": "function"
    },
    {
      "inputs": [
        {
          "internalType": "address payable",
          "name": "withdrawAddress",
          "type": "address"
        },
        {
          "internalType": "uint256",
          "name": "amount",
          "type": "uint256"
        }
      ],
      "name": "withdrawDepositTo",
      "outputs": [],
      "stateMutability": "nonpayable",
      "type": "function"
    },
    {
      "stateMutability": "payable",
      "type": "receive"
    }
  ],
  "bytecode": "0x60c06040523060805234801561001457600080fd5b506040516200215c3803806200215c83398101604081905261003591610046565b6001600160a01b031660a052610076565b60006020828403121561005857600080fd5b81516001600160a01b038116811461006f57600080fd5b9392505050565b60805160a051612073620000e9600039600081816103a601528181610813015281816108ad01528181610c0601528181610e9e01528181610ed80152818161118a01526113c301526000818161067a015281816106ff01528181610957015281816109dc0152610ac601526120736000f3fe60806040526004361061016d5760003560e01c80634f1ef286116100cb578063bc197c811161007f578063cf6dca5511610059578063cf6dca5514610467578063d087d28814610487578063f23a6e611461049c57600080fd5b8063bc197c81146103ea578063c399ec8814610432578063c4d66de81461044757600080fd5b80638da5cb5b116100b05780638da5cb5b14610359578063b0d691fe14610397578063b61d27f6146103ca57600080fd5b80634f1ef2861461033157806352d1902d1461034457600080fd5b80633a871cdd116101225780633fb5a7a1116101075780633fb5a7a1146102d45780634a58db19146103095780634d44560d1461031157600080fd5b80633a871cdd1461025a5780633e4769511461028857600080fd5b8063150b7a0211610153578063150b7a02146101d557806318dfb3c71461021a5780633659cfe61461023a57600080fd5b806223de291461017957806301ffc9a7146101a057600080fd5b3661017457005b600080fd5b34801561018557600080fd5b5061019e6101943660046119b0565b5050505050505050565b005b3480156101ac57600080fd5b506101c06101bb366004611a61565b6104e2565b60405190151581526020015b60405180910390f35b3480156101e157600080fd5b506102016101f0366004611a8b565b630a85bd0160e11b95945050505050565b6040516001600160e01b031990911681526020016101cc565b34801561022657600080fd5b5061019e610235366004611b43565b610566565b34801561024657600080fd5b5061019e610255366004611baf565b610670565b34801561026657600080fd5b5061027a610275366004611bcc565b6107eb565b6040519081526020016101cc565b34801561029457600080fd5b506102bd6102a3366004611baf565b60026020526000908152604090205465ffffffffffff1681565b60405165ffffffffffff90911681526020016101cc565b3480156102e057600080fd5b506102bd6102ef366004611baf565b60016020526000908152604090205465ffffffffffff1681565b61019e610811565b34801561031d57600080fd5b5061019e61032c366004611c20565b6108a3565b61019e61033f366004611c62565b61094d565b34801561035057600080fd5b5061027a610ab9565b34801561036557600080fd5b5060005461037f906201000090046001600160a01b031681565b6040516001600160a01b0390911681526020016101cc565b3480156103a357600080fd5b507f000000000000000000000000000000000000000000000000000000000000000061037f565b3480156103d657600080fd5b5061019e6103e5366004611d26565b610b7e565b3480156103f657600080fd5b50610201610405366004611d76565b7fbc197c810000000000000000000000000000000000000000000000000000000098975050505050505050565b34801561043e57600080fd5b5061027a610bcd565b34801561045357600080fd5b5061019e610462366004611baf565b610c77565b34801561047357600080fd5b5061019e610482366004611e2f565b610daa565b34801561049357600080fd5b5061027a610e5e565b3480156104a857600080fd5b506102016104b7366004611e74565b7ff23a6e61000000000000000000000000000000000000000000000000000000009695505050505050565b60006001600160e01b03198216630a85bd0160e11b148061052c57506001600160e01b031982167f4e2312e000000000000000000000000000000000000000000000000000000000145b8061056057506001600160e01b031982167f01ffc9a700000000000000000000000000000000000000000000000000000000145b92915050565b61056e610ecd565b8281146105c25760405162461bcd60e51b815260206004820152601360248201527f77726f6e67206172726179206c656e677468730000000000000000000000000060448201526064015b60405180910390fd5b60005b83811015610669576106578585838181106105e2576105e2611ef0565b90506020020160208101906105f79190611baf565b600085858581811061060b5761060b611ef0565b905060200281019061061d9190611f06565b8080601f016020809104026020016040519081016040528093929190818152602001838380828437600092019190915250610f6292505050565b8061066181611f4d565b9150506105c5565b5050505050565b6001600160a01b037f00000000000000000000000000000000000000000000000000000000000000001630036106fd5760405162461bcd60e51b815260206004820152602c60248201527f46756e6374696f6e206d7573742062652063616c6c6564207468726f7567682060448201526b19195b1959d85d1958d85b1b60a21b60648201526084016105b9565b7f00000000000000000000000000000000000000000000000000000000000000006001600160a01b03166107587f360894a13ba1a3210667c828492db98dca3e2076cc3735a920a3ca505d382bbc546001600160a01b031690565b6001600160a01b0316146107c35760405162461bcd60e51b815260206004820152602c60248201527f46756e6374696f6e206d7573742062652063616c6c6564207468726f7567682060448201526b6163746976652070726f787960a01b60648201526084016105b9565b6107cc81610fd2565b604080516000808252602082019092526107e891839190610fda565b50565b60006107f561117f565b6107ff84846111f7565b905061080a826112c3565b9392505050565b7f00000000000000000000000000000000000000000000000000000000000000006040517fb760faf90000000000000000000000000000000000000000000000000000000081523060048201526001600160a01b03919091169063b760faf99034906024016000604051808303818588803b15801561088f57600080fd5b505af1158015610669573d6000803e3d6000fd5b6108ab611310565b7f00000000000000000000000000000000000000000000000000000000000000006040517f205c28780000000000000000000000000000000000000000000000000000000081526001600160a01b03848116600483015260248201849052919091169063205c287890604401600060405180830381600087803b15801561093157600080fd5b505af1158015610945573d6000803e3d6000fd5b505050505050565b6001600160a01b037f00000000000000000000000000000000000000000000000000000000000000001630036109da5760405162461bcd60e51b815260206004820152602c60248201527f46756e6374696f6e206d7573742062652063616c6c6564207468726f7567682060448201526b19195b1959d85d1958d85b1b60a21b60648201526084016105b9565b7f00000000000000000000000000000000000000000000000000000000000000006001600160a01b0316610a357f360894a13ba1a3210667c828492db98dca3e2076cc3735a920a3ca505d382bbc546001600160a01b031690565b6001600160a01b031614610aa05760405162461bcd60e51b815260206004820152602c60248201527f46756e6374696f6e206d7573742062652063616c6c6564207468726f7567682060448201526b6163746976652070726f787960a01b60648201526084016105b9565b610aa982610fd2565b610ab582826001610fda565b5050565b6000306001600160a01b037f00000000000000000000000000000000000000000000000000000000000000001614610b595760405162461bcd60e51b815260206004820152603860248201527f555550535570677261646561626c653a206d757374206e6f742062652063616c60448201527f6c6564207468726f7567682064656c656761746563616c6c000000000000000060648201526084016105b9565b507f360894a13ba1a3210667c828492db98dca3e2076cc3735a920a3ca505d382bbc90565b610b86610ecd565b610bc7848484848080601f016020809104026020016040519081016040528093929190818152602001838380828437600092019190915250610f6292505050565b50505050565b6040517f70a082310000000000000000000000000000000000000000000000000000000081523060048201526000906001600160a01b037f000000000000000000000000000000000000000000000000000000000000000016906370a08231906024015b602060405180830381865afa158015610c4e573d6000803e3d6000fd5b505050506040513d601f19601f82011682018060405250810190610c729190611f74565b905090565b600054610100900460ff1615808015610c975750600054600160ff909116105b80610cb15750303b158015610cb1575060005460ff166001145b610d235760405162461bcd60e51b815260206004820152602e60248201527f496e697469616c697a61626c653a20636f6e747261637420697320616c72656160448201527f647920696e697469616c697a656400000000000000000000000000000000000060648201526084016105b9565b6000805460ff191660011790558015610d46576000805461ff0019166101001790555b610d4f8261137a565b610d6182600065ffffffffffff610daa565b8015610ab5576000805461ff0019169055604051600181527f7f26b83ff96e1f2b6a682f133852f6798a09c465da95921460cefb38474024989060200160405180910390a15050565b610db2611310565b8165ffffffffffff168165ffffffffffff1611610e115760405162461bcd60e51b815260206004820152601160248201527f77726f6e6720756e74696c2f616674657200000000000000000000000000000060448201526064016105b9565b6001600160a01b03929092166000908152600160209081526040808320805465ffffffffffff95861665ffffffffffff199182161790915560029092529091208054929093169116179055565b6040517f35567e1a000000000000000000000000000000000000000000000000000000008152306004820152600060248201819052906001600160a01b037f000000000000000000000000000000000000000000000000000000000000000016906335567e1a90604401610c31565b336001600160a01b037f0000000000000000000000000000000000000000000000000000000000000000161480610f1457506000546201000090046001600160a01b031633145b610f605760405162461bcd60e51b815260206004820181905260248201527f6163636f756e743a206e6f74204f776e6572206f7220456e747279506f696e7460448201526064016105b9565b565b600080846001600160a01b03168484604051610f7e9190611fb1565b60006040518083038185875af1925050503d8060008114610fbb576040519150601f19603f3d011682016040523d82523d6000602084013e610fc0565b606091505b50915091508161066957805160208201fd5b6107e8611310565b7f4910fdfa16fed3260ed0e7147f7cc6da11a60208b5b9406d12a635614ffd91435460ff16156110125761100d8361140c565b505050565b826001600160a01b03166352d1902d6040518163ffffffff1660e01b8152600401602060405180830381865afa92505050801561106c575060408051601f3d908101601f1916820190925261106991810190611f74565b60015b6110de5760405162461bcd60e51b815260206004820152602e60248201527f45524331393637557067726164653a206e657720696d706c656d656e7461746960448201527f6f6e206973206e6f74205555505300000000000000000000000000000000000060648201526084016105b9565b7f360894a13ba1a3210667c828492db98dca3e2076cc3735a920a3ca505d382bbc81146111735760405162461bcd60e51b815260206004820152602960248201527f45524331393637557067726164653a20756e737570706f727465642070726f7860448201527f6961626c6555554944000000000000000000000000000000000000000000000060648201526084016105b9565b5061100d8383836114e2565b336001600160a01b037f00000000000000000000000000000000000000000000000000000000000000001614610f605760405162461bcd60e51b815260206004820152601c60248201527f6163636f756e743a206e6f742066726f6d20456e747279506f696e740000000060448201526064016105b9565b7f19457468657265756d205369676e6564204d6573736167653a0a3332000000006000908152601c829052603c81206000611276611239610140870187611f06565b8080601f01602080910402602001604051908101604052809392919081815260200183838082843760009201919091525086939250506115079050565b6001600160a01b03811660009081526002602090815260408083205460019092529091205491925065ffffffffffff908116911681156112b781848461152b565b98975050505050505050565b80156107e857604051600090339060001990849084818181858888f193505050503d8060008114610669576040519150601f19603f3d011682016040523d82523d6000602084013e610669565b6000546201000090046001600160a01b031633148061132e57503330145b610f605760405162461bcd60e51b815260206004820152600a60248201527f6f6e6c79206f776e65720000000000000000000000000000000000000000000060448201526064016105b9565b600080547fffffffffffffffffffff0000000000000000000000000000000000000000ffff16620100006001600160a01b038481168202929092178084556040519190048216927f0000000000000000000000000000000000000000000000000000000000000000909216917f47e55c76e7a6f1fd8996a1da8008c1ea29699cca35e7bcd057f2dec313b6e5de91a350565b6001600160a01b0381163b6114895760405162461bcd60e51b815260206004820152602d60248201527f455243313936373a206e657720696d706c656d656e746174696f6e206973206e60448201527f6f74206120636f6e74726163740000000000000000000000000000000000000060648201526084016105b9565b7f360894a13ba1a3210667c828492db98dca3e2076cc3735a920a3ca505d382bbc80547fffffffffffffffffffffffff0000000000000000000000000000000000000000166001600160a01b0392909216919091179055565b6114eb83611563565b6000825111806114f85750805b1561100d57610bc783836115a3565b600080600061151685856115c8565b915091506115238161160d565b509392505050565b600060d08265ffffffffffff16901b60a08465ffffffffffff16901b85611553576000611556565b60015b60ff161717949350505050565b61156c8161140c565b6040516001600160a01b038216907fbc7cd75a20ee27fd9adebab32041f755214dbc6bffa90cc0225b39da2e5c2d3b90600090a250565b606061080a838360405180606001604052806027815260200161201760279139611772565b60008082516041036115fe5760208301516040840151606085015160001a6115f2878285856117ea565b94509450505050611606565b506000905060025b9250929050565b600081600481111561162157611621611fcd565b036116295750565b600181600481111561163d5761163d611fcd565b0361168a5760405162461bcd60e51b815260206004820152601860248201527f45434453413a20696e76616c6964207369676e6174757265000000000000000060448201526064016105b9565b600281600481111561169e5761169e611fcd565b036116eb5760405162461bcd60e51b815260206004820152601f60248201527f45434453413a20696e76616c6964207369676e6174757265206c656e6774680060448201526064016105b9565b60038160048111156116ff576116ff611fcd565b036107e85760405162461bcd60e51b815260206004820152602260248201527f45434453413a20696e76616c6964207369676e6174757265202773272076616c60448201527f756500000000000000000000000000000000000000000000000000000000000060648201526084016105b9565b6060600080856001600160a01b03168560405161178f9190611fb1565b600060405180830381855af49150503d80600081146117ca576040519150601f19603f3d011682016040523d82523d6000602084013e6117cf565b606091505b50915091506117e0868383876118ae565b9695505050505050565b6000807f7fffffffffffffffffffffffffffffff5d576e7357a4501ddfe92f46681b20a083111561182157506000905060036118a5565b6040805160008082526020820180845289905260ff881692820192909252606081018690526080810185905260019060a0016020604051602081039080840390855afa158015611875573d6000803e3d6000fd5b5050604051601f1901519150506001600160a01b03811661189e576000600192509250506118a5565b9150600090505b94509492505050565b6060831561191d578251600003611916576001600160a01b0385163b6119165760405162461bcd60e51b815260206004820152601d60248201527f416464726573733a2063616c6c20746f206e6f6e2d636f6e747261637400000060448201526064016105b9565b5081611927565b611927838361192f565b949350505050565b81511561193f5781518083602001fd5b8060405162461bcd60e51b81526004016105b99190611fe3565b6001600160a01b03811681146107e857600080fd5b60008083601f84011261198057600080fd5b50813567ffffffffffffffff81111561199857600080fd5b60208301915083602082850101111561160657600080fd5b60008060008060008060008060c0898b0312156119cc57600080fd5b88356119d781611959565b975060208901356119e781611959565b965060408901356119f781611959565b955060608901359450608089013567ffffffffffffffff80821115611a1b57600080fd5b611a278c838d0161196e565b909650945060a08b0135915080821115611a4057600080fd5b50611a4d8b828c0161196e565b999c989b5096995094979396929594505050565b600060208284031215611a7357600080fd5b81356001600160e01b03198116811461080a57600080fd5b600080600080600060808688031215611aa357600080fd5b8535611aae81611959565b94506020860135611abe81611959565b935060408601359250606086013567ffffffffffffffff811115611ae157600080fd5b611aed8882890161196e565b969995985093965092949392505050565b60008083601f840112611b1057600080fd5b50813567ffffffffffffffff811115611b2857600080fd5b6020830191508360208260051b850101111561160657600080fd5b60008060008060408587031215611b5957600080fd5b843567ffffffffffffffff80821115611b7157600080fd5b611b7d88838901611afe565b90965094506020870135915080821115611b9657600080fd5b50611ba387828801611afe565b95989497509550505050565b600060208284031215611bc157600080fd5b813561080a81611959565b600080600060608486031215611be157600080fd5b833567ffffffffffffffff811115611bf857600080fd5b84016101608187031215611c0b57600080fd5b95602085013595506040909401359392505050565b60008060408385031215611c3357600080fd5b8235611c3e81611959565b946020939093013593505050565b634e487b7160e01b600052604160045260246000fd5b60008060408385031215611c7557600080fd5b8235611c8081611959565b9150602083013567ffffffffffffffff80821115611c9d57600080fd5b818501915085601f830112611cb157600080fd5b813581811115611cc357611cc3611c4c565b604051601f8201601f19908116603f01168101908382118183101715611ceb57611ceb611c4c565b81604052828152886020848701011115611d0457600080fd5b8260208601602083013760006020848301015280955050505050509250929050565b60008060008060608587031215611d3c57600080fd5b8435611d4781611959565b935060208501359250604085013567ffffffffffffffff811115611d6a57600080fd5b611ba38782880161196e565b60008060008060008060008060a0898b031215611d9257600080fd5b8835611d9d81611959565b97506020890135611dad81611959565b9650604089013567ffffffffffffffff80821115611dca57600080fd5b611dd68c838d01611afe565b909850965060608b0135915080821115611def57600080fd5b611dfb8c838d01611afe565b909650945060808b0135915080821115611a4057600080fd5b803565ffffffffffff81168114611e2a57600080fd5b919050565b600080600060608486031215611e4457600080fd5b8335611e4f81611959565b9250611e5d60208501611e14565b9150611e6b60408501611e14565b90509250925092565b60008060008060008060a08789031215611e8d57600080fd5b8635611e9881611959565b95506020870135611ea881611959565b94506040870135935060608701359250608087013567ffffffffffffffff811115611ed257600080fd5b611ede89828a0161196e565b979a9699509497509295939492505050565b634e487b7160e01b600052603260045260246000fd5b6000808335601e19843603018112611f1d57600080fd5b83018035915067ffffffffffffffff821115611f3857600080fd5b60200191503681900382131561160657600080fd5b600060018201611f6d57634e487b7160e01b600052601160045260246000fd5b5060010190565b600060208284031215611f8657600080fd5b5051919050565b60005b83811015611fa8578181015183820152602001611f90565b50506000910152565b60008251611fc3818460208701611f8d565b9190910192915050565b634e487b7160e01b600052602160045260246000fd5b6020815260008251806020840152612002816040850160208701611f8d565b601f01601f1916919091016040019291505056fe416464726573733a206c6f772d6c6576656c2064656c65676174652063616c6c206661696c6564a2646970667358221220109a90a74af7c277582e79af278d818238d75f447820543359dbc09fb14c395564736f6c63430008120033",
  "linkReferences": {},
  "deployedLinkReferences": {}
}