{
  "_format": "hh-sol-artifact-1",
  "contractName": "TestUniswap",
  "sourceName": "contracts/EIP4337/test/TestUniswap.sol",
  "abi": [
    {
      "inputs": [
        {
          "internalType": "contract TestWrappedNativeToken",
          "name": "_weth",
          "type": "address"
        }
      ],
      "stateMutability": "nonpayable",
      "type": "constructor"
    },
    {
      "anonymous": false,
      "inputs": [
        {
          "indexed": false,
          "internalType": "uint256",
          "name": "amountIn",
          "type": "uint256"
        },
        {
          "indexed": false,
          "internalType": "uint256",
          "name": "amountOut",
          "type": "uint256"
        },
        {
          "indexed": false,
          "internalType": "address",
          "name": "tokenIn",
          "type": "address"
        },
        {
          "indexed": false,
          "internalType": "address",
          "name": "tokenOut",
          "type": "address"
        }
      ],
      "name": "StubUniswapExchangeEvent",
      "type": "event"
    },
    {
      "inputs": [
        {
          "components": [
            {
              "internalType": "address",
              "name": "tokenIn",
              "type": "address"
            },
            {
              "internalType": "address",
              "name": "tokenOut",
              "type": "address"
            },
            {
              "internalType": "uint24",
              "name": "fee",
              "type": "uint24"
            },
            {
              "internalType": "address",
              "name": "recipient",
              "type": "address"
            },
            {
              "internalType": "uint256",
              "name": "deadline",
              "type": "uint256"
            },
            {
              "internalType": "uint256",
              "name": "amountIn",
              "type": "uint256"
            },
            {
              "internalType": "uint256",
              "name": "amountOutMinimum",
              "type": "uint256"
            },
            {
              "internalType": "uint160",
              "name": "sqrtPriceLimitX96",
              "type": "uint160"
            }
          ],
          "internalType": "struct ISwapRouter.ExactInputSingleParams",
          "name": "params",
          "type": "tuple"
        }
      ],
      "name": "exactInputSingle",
      "outputs": [
        {
          "internalType": "uint256",
          "name": "",
          "type": "uint256"
        }
      ],
      "stateMutability": "nonpayable",
      "type": "function"
    },
    {
      "inputs": [
        {
          "components": [
            {
              "internalType": "address",
              "name": "tokenIn",
              "type": "address"
            },
            {
              "internalType": "address",
              "name": "tokenOut",
              "type": "address"
            },
            {
              "internalType": "uint24",
              "name": "fee",
              "type": "uint24"
            },
            {
              "internalType": "address",
              "name": "recipient",
              "type": "address"
            },
            {
              "internalType": "uint256",
              "name": "deadline",
              "type": "uint256"
            },
            {
              "internalType": "uint256",
              "name": "amountOut",
              "type": "uint256"
            },
            {
              "internalType": "uint256",
              "name": "amountInMaximum",
              "type": "uint256"
            },
            {
              "internalType": "uint160",
              "name": "sqrtPriceLimitX96",
              "type": "uint160"
            }
          ],
          "internalType": "struct ISwapRouter.ExactOutputSingleParams",
          "name": "params",
          "type": "tuple"
        }
      ],
      "name": "exactOutputSingle",
      "outputs": [
        {
          "internalType": "uint256",
          "name": "",
          "type": "uint256"
        }
      ],
      "stateMutability": "nonpayable",
      "type": "function"
    },
    {
      "inputs": [
        {
          "internalType": "uint256",
          "name": "amountMinimum",
          "type": "uint256"
        },
        {
          "internalType": "address",
          "name": "recipient",
          "type": "address"
        }
      ],
      "name": "unwrapWETH9",
      "outputs": [],
      "stateMutability": "payable",
      "type": "function"
    },
    {
      "inputs": [],
      "name": "weth",
      "outputs": [
        {
          "internalType": "contract TestWrappedNativeToken",
          "name": "",
          "type": "address"
        }
      ],
      "stateMutability": "view",
      "type": "function"
    },
    {
      "stateMutability": "payable",
      "type": "receive"
    }
  ],
  "bytecode": "0x608060405234801561001057600080fd5b506040516107f63803806107f683398101604081905261002f91610054565b600080546001600160a01b0319166001600160a01b0392909216919091179055610084565b60006020828403121561006657600080fd5b81516001600160a01b038116811461007d57600080fd5b9392505050565b610763806100936000396000f3fe6080604052600436106100435760003560e01c80633fc8cef31461004f578063414bf3891461008c57806349404b7c146100ba578063db3e2198146100cf57600080fd5b3661004a57005b600080fd5b34801561005b57600080fd5b5060005461006f906001600160a01b031681565b6040516001600160a01b0390911681526020015b60405180910390f35b34801561009857600080fd5b506100ac6100a7366004610610565b6100ef565b604051908152602001610083565b6100cd6100c8366004610650565b6102be565b005b3480156100db57600080fd5b506100ac6100ea366004610610565b61046e565b60008061010160c084013560056106ab565b90507f29a1b057b49189ad91f5d92216fc55e37caf33e398f9e914469523c9aa5f6a0360a08401358261013760208701876106c4565b61014760408801602089016106c4565b6040805194855260208501939093526001600160a01b0391821684840152166060830152519081900360800190a161018260208401846106c4565b6040516323b872dd60e01b815233600482015230602482015260a085013560448201526001600160a01b0391909116906323b872dd906064016020604051808303816000875af11580156101da573d6000803e3d6000fd5b505050506040513d601f19601f820116820180604052508101906101fe91906106df565b5061020f60408401602085016106c4565b6001600160a01b031663a9059cbb61022d60808601606087016106c4565b6040517fffffffff0000000000000000000000000000000000000000000000000000000060e084901b1681526001600160a01b039091166004820152602481018490526044015b6020604051808303816000875af1158015610293573d6000803e3d6000fd5b505050506040513d601f19601f820116820180604052508101906102b791906106df565b5092915050565b600080546040517f70a082310000000000000000000000000000000000000000000000000000000081523060048201526001600160a01b03909116906370a0823190602401602060405180830381865afa158015610320573d6000803e3d6000fd5b505050506040513d601f19601f820116820180604052508101906103449190610701565b9050828110156103b4576040517f08c379a000000000000000000000000000000000000000000000000000000000815260206004820152601260248201527f496e73756666696369656e742057455448390000000000000000000000000000604482015260640160405180910390fd5b8015610469576000546040517f2e1a7d4d000000000000000000000000000000000000000000000000000000008152600481018390526001600160a01b0390911690632e1a7d4d90602401600060405180830381600087803b15801561041957600080fd5b505af115801561042d573d6000803e3d6000fd5b50506040516001600160a01b038516925083156108fc02915083906000818181858888f19350505050158015610467573d6000803e3d6000fd5b505b505050565b600080610480600560c085013561071a565b90507f29a1b057b49189ad91f5d92216fc55e37caf33e398f9e914469523c9aa5f6a038160a08501356104b660208701876106c4565b6104c660408801602089016106c4565b6040805194855260208501939093526001600160a01b0391821684840152166060830152519081900360800190a161050160208401846106c4565b6040516323b872dd60e01b8152336004820152306024820152604481018390526001600160a01b0391909116906323b872dd906064016020604051808303816000875af1158015610556573d6000803e3d6000fd5b505050506040513d601f19601f8201168201806040525081019061057a91906106df565b5061058b60408401602085016106c4565b6001600160a01b031663a9059cbb6105a960808601606087016106c4565b6040517fffffffff0000000000000000000000000000000000000000000000000000000060e084901b1681526001600160a01b03909116600482015260a08601356024820152604401610274565b6000610100828403121561060a57600080fd5b50919050565b6000610100828403121561062357600080fd5b61062d83836105f7565b9392505050565b80356001600160a01b038116811461064b57600080fd5b919050565b6000806040838503121561066357600080fd5b8235915061067360208401610634565b90509250929050565b7f4e487b7100000000000000000000000000000000000000000000000000000000600052601160045260246000fd5b808201808211156106be576106be61067c565b92915050565b6000602082840312156106d657600080fd5b61062d82610634565b6000602082840312156106f157600080fd5b8151801515811461062d57600080fd5b60006020828403121561071357600080fd5b5051919050565b818103818111156106be576106be61067c56fea2646970667358221220893d5c379746e561b847a6b1b3c8a96a0b99d7631a6a263df90ba0a32c316e8164736f6c63430008120033",
  "linkReferences": {},
  "deployedLinkReferences": {}
}