{
  "_format": "hh-sol-artifact-1",
  "contractName": "TestExpirePaymaster",
  "sourceName": "contracts/EIP4337/test/TestExpirePaymaster.sol",
  "abi": [
    {
      "inputs": [
        {
          "internalType": "contract IEntryPoint",
          "name": "_entryPoint",
          "type": "address"
        }
      ],
      "stateMutability": "nonpayable",
      "type": "constructor"
    },
    {
      "anonymous": false,
      "inputs": [
        {
          "indexed": true,
          "internalType": "address",
          "name": "previousOwner",
          "type": "address"
        },
        {
          "indexed": true,
          "internalType": "address",
          "name": "newOwner",
          "type": "address"
        }
      ],
      "name": "OwnershipTransferred",
      "type": "event"
    },
    {
      "inputs": [
        {
          "internalType": "uint32",
          "name": "unstakeDelaySec",
          "type": "uint32"
        }
      ],
      "name": "addStake",
      "outputs": [],
      "stateMutability": "payable",
      "type": "function"
    },
    {
      "inputs": [],
      "name": "deposit",
      "outputs": [],
      "stateMutability": "payable",
      "type": "function"
    },
    {
      "inputs": [],
      "name": "entryPoint",
      "outputs": [
        {
          "internalType": "contract IEntryPoint",
          "name": "",
          "type": "address"
        }
      ],
      "stateMutability": "view",
      "type": "function"
    },
    {
      "inputs": [],
      "name": "getDeposit",
      "outputs": [
        {
          "internalType": "uint256",
          "name": "",
          "type": "uint256"
        }
      ],
      "stateMutability": "view",
      "type": "function"
    },
    {
      "inputs": [],
      "name": "owner",
      "outputs": [
        {
          "internalType": "address",
          "name": "",
          "type": "address"
        }
      ],
      "stateMutability": "view",
      "type": "function"
    },
    {
      "inputs": [
        {
          "internalType": "enum IPaymaster.PostOpMode",
          "name": "mode",
          "type": "uint8"
        },
        {
          "internalType": "bytes",
          "name": "context",
          "type": "bytes"
        },
        {
          "internalType": "uint256",
          "name": "actualGasCost",
          "type": "uint256"
        }
      ],
      "name": "postOp",
      "outputs": [],
      "stateMutability": "nonpayable",
      "type": "function"
    },
    {
      "inputs": [],
      "name": "renounceOwnership",
      "outputs": [],
      "stateMutability": "nonpayable",
      "type": "function"
    },
    {
      "inputs": [
        {
          "internalType": "address",
          "name": "newOwner",
          "type": "address"
        }
      ],
      "name": "transferOwnership",
      "outputs": [],
      "stateMutability": "nonpayable",
      "type": "function"
    },
    {
      "inputs": [],
      "name": "unlockStake",
      "outputs": [],
      "stateMutability": "nonpayable",
      "type": "function"
    },
    {
      "inputs": [
        {
          "components": [
            {
              "internalType": "address",
              "name": "sender",
              "type": "address"
            },
            {
              "internalType": "uint256",
              "name": "nonce",
              "type": "uint256"
            },
            {
              "internalType": "bytes",
              "name": "initCode",
              "type": "bytes"
            },
            {
              "internalType": "bytes",
              "name": "callData",
              "type": "bytes"
            },
            {
              "internalType": "uint256",
              "name": "callGasLimit",
              "type": "uint256"
            },
            {
              "internalType": "uint256",
              "name": "verificationGasLimit",
              "type": "uint256"
            },
            {
              "internalType": "uint256",
              "name": "preVerificationGas",
              "type": "uint256"
            },
            {
              "internalType": "uint256",
              "name": "maxFeePerGas",
              "type": "uint256"
            },
            {
              "internalType": "uint256",
              "name": "maxPriorityFeePerGas",
              "type": "uint256"
            },
            {
              "internalType": "bytes",
              "name": "paymasterAndData",
              "type": "bytes"
            },
            {
              "internalType": "bytes",
              "name": "signature",
              "type": "bytes"
            }
          ],
          "internalType": "struct UserOperation",
          "name": "userOp",
          "type": "tuple"
        },
        {
          "internalType": "bytes32",
          "name": "userOpHash",
          "type": "bytes32"
        },
        {
          "internalType": "uint256",
          "name": "maxCost",
          "type": "uint256"
        }
      ],
      "name": "validatePaymasterUserOp",
      "outputs": [
        {
          "internalType": "bytes",
          "name": "context",
          "type": "bytes"
        },
        {
          "internalType": "uint256",
          "name": "validationData",
          "type": "uint256"
        }
      ],
      "stateMutability": "nonpayable",
      "type": "function"
    },
    {
      "inputs": [
        {
          "internalType": "address payable",
          "name": "withdrawAddress",
          "type": "address"
        }
      ],
      "name": "withdrawStake",
      "outputs": [],
      "stateMutability": "nonpayable",
      "type": "function"
    },
    {
      "inputs": [
        {
          "internalType": "address payable",
          "name": "withdrawAddress",
          "type": "address"
        },
        {
          "internalType": "uint256",
          "name": "amount",
          "type": "uint256"
        }
      ],
      "name": "withdrawTo",
      "outputs": [],
      "stateMutability": "nonpayable",
      "type": "function"
    }
  ],
  "bytecode": "0x60a060405234801561001057600080fd5b50604051610ca3380380610ca383398101604081905261002f9161009b565b806100393361004b565b6001600160a01b0316608052506100cb565b600080546001600160a01b038381166001600160a01b0319831681178455604051919092169283917f8be0079c531659141344cd1fd0a4f28419497f9722a3daafe3b4186f6b6457e09190a35050565b6000602082840312156100ad57600080fd5b81516001600160a01b03811681146100c457600080fd5b9392505050565b608051610b8c6101176000396000818161017f0152818161028b0152818161033b015281816103b701528181610464015281816104f40152818161059a015261076c0152610b8c6000f3fe6080604052600436106100c75760003560e01c8063bb9fe6bf11610074578063d0e30db01161004e578063d0e30db0146101f9578063f2fde38b14610201578063f465c77e1461022157600080fd5b8063bb9fe6bf146101a1578063c23a5cea146101b6578063c399ec88146101d657600080fd5b80638da5cb5b116100a55780638da5cb5b14610116578063a9a234091461014d578063b0d691fe1461016d57600080fd5b80630396cb60146100cc578063205c2878146100e1578063715018a614610101575b600080fd5b6100df6100da3660046108b4565b61024f565b005b3480156100ed57600080fd5b506100df6100fc3660046108f6565b6102f4565b34801561010d57600080fd5b506100df61037f565b34801561012257600080fd5b506000546001600160a01b03165b6040516001600160a01b0390911681526020015b60405180910390f35b34801561015957600080fd5b506100df610168366004610922565b610393565b34801561017957600080fd5b506101307f000000000000000000000000000000000000000000000000000000000000000081565b3480156101ad57600080fd5b506100df6103ad565b3480156101c257600080fd5b506100df6101d13660046109b1565b610424565b3480156101e257600080fd5b506101eb6104c3565b604051908152602001610144565b6100df61056c565b34801561020d57600080fd5b506100df61021c3660046109b1565b6105e7565b34801561022d57600080fd5b5061024161023c3660046109ce565b61067c565b604051610144929190610a22565b61025761069f565b6040517f0396cb6000000000000000000000000000000000000000000000000000000000815263ffffffff821660048201527f00000000000000000000000000000000000000000000000000000000000000006001600160a01b031690630396cb609034906024016000604051808303818588803b1580156102d857600080fd5b505af11580156102ec573d6000803e3d6000fd5b505050505050565b6102fc61069f565b6040517f205c28780000000000000000000000000000000000000000000000000000000081526001600160a01b038381166004830152602482018390527f0000000000000000000000000000000000000000000000000000000000000000169063205c287890604401600060405180830381600087803b1580156102d857600080fd5b61038761069f565b61039160006106f9565b565b61039b610761565b6103a7848484846107d9565b50505050565b6103b561069f565b7f00000000000000000000000000000000000000000000000000000000000000006001600160a01b031663bb9fe6bf6040518163ffffffff1660e01b8152600401600060405180830381600087803b15801561041057600080fd5b505af11580156103a7573d6000803e3d6000fd5b61042c61069f565b6040517fc23a5cea0000000000000000000000000000000000000000000000000000000081526001600160a01b0382811660048301527f0000000000000000000000000000000000000000000000000000000000000000169063c23a5cea90602401600060405180830381600087803b1580156104a857600080fd5b505af11580156104bc573d6000803e3d6000fd5b5050505050565b6040517f70a082310000000000000000000000000000000000000000000000000000000081523060048201526000907f00000000000000000000000000000000000000000000000000000000000000006001600160a01b0316906370a0823190602401602060405180830381865afa158015610543573d6000803e3d6000fd5b505050506040513d601f19601f820116820180604052508101906105679190610a77565b905090565b6040517fb760faf90000000000000000000000000000000000000000000000000000000081523060048201527f00000000000000000000000000000000000000000000000000000000000000006001600160a01b03169063b760faf99034906024016000604051808303818588803b1580156104a857600080fd5b6105ef61069f565b6001600160a01b0381166106705760405162461bcd60e51b815260206004820152602660248201527f4f776e61626c653a206e6577206f776e657220697320746865207a65726f206160448201527f646472657373000000000000000000000000000000000000000000000000000060648201526084015b60405180910390fd5b610679816106f9565b50565b60606000610688610761565b610693858585610821565b91509150935093915050565b6000546001600160a01b031633146103915760405162461bcd60e51b815260206004820181905260248201527f4f776e61626c653a2063616c6c6572206973206e6f7420746865206f776e65726044820152606401610667565b600080546001600160a01b038381167fffffffffffffffffffffffff0000000000000000000000000000000000000000831681178455604051919092169283917f8be0079c531659141344cd1fd0a4f28419497f9722a3daafe3b4186f6b6457e09190a35050565b336001600160a01b037f000000000000000000000000000000000000000000000000000000000000000016146103915760405162461bcd60e51b815260206004820152601560248201527f53656e646572206e6f7420456e747279506f696e7400000000000000000000006044820152606401610667565b60405162461bcd60e51b815260206004820152600d60248201527f6d757374206f76657272696465000000000000000000000000000000000000006044820152606401610667565b606060008080610835610120880188610a90565b610843916014908290610ade565b8101906108509190610b23565b915091506108606000828461087c565b6040805160208101909152600081529890975095505050505050565b600060d08265ffffffffffff16901b60a08465ffffffffffff16901b856108a45760006108a7565b60015b60ff161717949350505050565b6000602082840312156108c657600080fd5b813563ffffffff811681146108da57600080fd5b9392505050565b6001600160a01b038116811461067957600080fd5b6000806040838503121561090957600080fd5b8235610914816108e1565b946020939093013593505050565b6000806000806060858703121561093857600080fd5b84356003811061094757600080fd5b9350602085013567ffffffffffffffff8082111561096457600080fd5b818701915087601f83011261097857600080fd5b81358181111561098757600080fd5b88602082850101111561099957600080fd5b95986020929092019750949560400135945092505050565b6000602082840312156109c357600080fd5b81356108da816108e1565b6000806000606084860312156109e357600080fd5b833567ffffffffffffffff8111156109fa57600080fd5b84016101608187031215610a0d57600080fd5b95602085013595506040909401359392505050565b604081526000835180604084015260005b81811015610a505760208187018101516060868401015201610a33565b506000606082850101526060601f19601f8301168401019150508260208301529392505050565b600060208284031215610a8957600080fd5b5051919050565b6000808335601e19843603018112610aa757600080fd5b83018035915067ffffffffffffffff821115610ac257600080fd5b602001915036819003821315610ad757600080fd5b9250929050565b60008085851115610aee57600080fd5b83861115610afb57600080fd5b5050820193919092039150565b803565ffffffffffff81168114610b1e57600080fd5b919050565b60008060408385031215610b3657600080fd5b610b3f83610b08565b9150610b4d60208401610b08565b9050925092905056fea26469706673582212200445090986169432af35d3c98bca5ef81868012c42219a5871b9f8264561cc7c64736f6c63430008120033",
  "linkReferences": {},
  "deployedLinkReferences": {}
}