{
  "_format": "hh-sol-artifact-1",
  "contractName": "GnosisSafeProxyFactory",
  "sourceName": "@gnosis.pm/safe-contracts/contracts/proxies/GnosisSafeProxyFactory.sol",
  "abi": [
    {
      "anonymous": false,
      "inputs": [
        {
          "indexed": false,
          "internalType": "contract GnosisSafeProxy",
          "name": "proxy",
          "type": "address"
        },
        {
          "indexed": false,
          "internalType": "address",
          "name": "singleton",
          "type": "address"
        }
      ],
      "name": "ProxyCreation",
      "type": "event"
    },
    {
      "inputs": [
        {
          "internalType": "address",
          "name": "_singleton",
          "type": "address"
        },
        {
          "internalType": "bytes",
          "name": "initializer",
          "type": "bytes"
        },
        {
          "internalType": "uint256",
          "name": "saltNonce",
          "type": "uint256"
        }
      ],
      "name": "calculateCreateProxyWithNonceAddress",
      "outputs": [
        {
          "internalType": "contract GnosisSafeProxy",
          "name": "proxy",
          "type": "address"
        }
      ],
      "stateMutability": "nonpayable",
      "type": "function"
    },
    {
      "inputs": [
        {
          "internalType": "address",
          "name": "singleton",
          "type": "address"
        },
        {
          "internalType": "bytes",
          "name": "data",
          "type": "bytes"
        }
      ],
      "name": "createProxy",
      "outputs": [
        {
          "internalType": "contract GnosisSafeProxy",
          "name": "proxy",
          "type": "address"
        }
      ],
      "stateMutability": "nonpayable",
      "type": "function"
    },
    {
      "inputs": [
        {
          "internalType": "address",
          "name": "_singleton",
          "type": "address"
        },
        {
          "internalType": "bytes",
          "name": "initializer",
          "type": "bytes"
        },
        {
          "internalType": "uint256",
          "name": "saltNonce",
          "type": "uint256"
        },
        {
          "internalType": "contract IProxyCreationCallback",
          "name": "callback",
          "type": "address"
        }
      ],
      "name": "createProxyWithCallback",
      "outputs": [
        {
          "internalType": "contract GnosisSafeProxy",
          "name": "proxy",
          "type": "address"
        }
      ],
      "stateMutability": "nonpayable",
      "type": "function"
    },
    {
      "inputs": [
        {
          "internalType": "address",
          "name": "_singleton",
          "type": "address"
        },
        {
          "internalType": "bytes",
          "name": "initializer",
          "type": "bytes"
        },
        {
          "internalType": "uint256",
          "name": "saltNonce",
          "type": "uint256"
        }
      ],
      "name": "createProxyWithNonce",
      "outputs": [
        {
          "internalType": "contract GnosisSafeProxy",
          "name": "proxy",
          "type": "address"
        }
      ],
      "stateMutability": "nonpayable",
      "type": "function"
    },
    {
      "inputs": [],
      "name": "proxyCreationCode",
      "outputs": [
        {
          "internalType": "bytes",
          "name": "",
          "type": "bytes"
        }
      ],
      "stateMutability": "pure",
      "type": "function"
    },
    {
      "inputs": [],
      "name": "proxyRuntimeCode",
      "outputs": [
        {
          "internalType": "bytes",
          "name": "",
          "type": "bytes"
        }
      ],
      "stateMutability": "pure",
      "type": "function"
    }
  ],
  "bytecode": "0x608060405234801561001057600080fd5b50610a9f806100206000396000f3fe608060405234801561001057600080fd5b50600436106100725760003560e01c806361b69abd1161005057806361b69abd146100cf578063addacc0f146100e2578063d18af54d146100ea57600080fd5b80631688f0b9146100775780632500510e146100a757806353e5d935146100ba575b600080fd5b61008a6100853660046105c7565b6100fd565b6040516001600160a01b0390911681526020015b60405180910390f35b61008a6100b5366004610620565b610178565b6100c261020d565b60405161009e91906106fb565b61008a6100dd366004610715565b610237565b6100c26102e0565b61008a6100f8366004610765565b6102f2565b600061010a8484846103e1565b83519091501561012e5760008060008551602087016000865af10361012e57600080fd5b604080516001600160a01b038084168252861660208201527f4f51faf6c4561ff95f067657e43439f0f856d97c04d9ec9070a6199ad418e235910160405180910390a19392505050565b60006101bc8585858080601f0160208091040260200160405190810160405280939291908181526020018383808284376000920191909152508792506103e1915050565b6040516bffffffffffffffffffffffff19606083901b16602082015290915060340160408051601f198184030181529082905262461bcd60e51b8252610204916004016106fb565b60405180910390fd5b60606040518060200161021f906104da565b601f1982820381018352601f90910116604052919050565b600082604051610246906104da565b6001600160a01b039091168152602001604051809103906000f080158015610272573d6000803e3d6000fd5b508251909150156102975760008060008451602086016000865af10361029757600080fd5b604080516001600160a01b038084168252851660208201527f4f51faf6c4561ff95f067657e43439f0f856d97c04d9ec9070a6199ad418e235910160405180910390a192915050565b60606040518060200161021f906104e7565b600080838360405160200161032392919091825260601b6bffffffffffffffffffffffff1916602082015260340190565b6040516020818303038152906040528051906020012060001c90506103498686836100fd565b91506001600160a01b038316156103d8576040517f1e52b5180000000000000000000000000000000000000000000000000000000081526001600160a01b03841690631e52b518906103a59085908a908a908a906004016107d1565b600060405180830381600087803b1580156103bf57600080fd5b505af11580156103d3573d6000803e3d6000fd5b505050505b50949350505050565b600080838051906020012083604051602001610407929190918252602082015260400190565b604051602081830303815290604052805190602001209050600060405180602001610431906104da565b601f1982820381018352601f90910116604081905261045e91906001600160a01b0389169060200161080e565b6040516020818303038152906040529050818151826020016000f592506001600160a01b0383166104d15760405162461bcd60e51b815260206004820152601360248201527f437265617465322063616c6c206661696c6564000000000000000000000000006044820152606401610204565b50509392505050565b6101988061083183390190565b60a1806109c983390190565b6001600160a01b038116811461050857600080fd5b50565b7f4e487b7100000000000000000000000000000000000000000000000000000000600052604160045260246000fd5b600082601f83011261054b57600080fd5b813567ffffffffffffffff808211156105665761056661050b565b604051601f8301601f19908116603f0116810190828211818310171561058e5761058e61050b565b816040528381528660208588010111156105a757600080fd5b836020870160208301376000602085830101528094505050505092915050565b6000806000606084860312156105dc57600080fd5b83356105e7816104f3565b9250602084013567ffffffffffffffff81111561060357600080fd5b61060f8682870161053a565b925050604084013590509250925092565b6000806000806060858703121561063657600080fd5b8435610641816104f3565b9350602085013567ffffffffffffffff8082111561065e57600080fd5b818701915087601f83011261067257600080fd5b81358181111561068157600080fd5b88602082850101111561069357600080fd5b95986020929092019750949560400135945092505050565b60005b838110156106c65781810151838201526020016106ae565b50506000910152565b600081518084526106e78160208601602086016106ab565b601f01601f19169290920160200192915050565b60208152600061070e60208301846106cf565b9392505050565b6000806040838503121561072857600080fd5b8235610733816104f3565b9150602083013567ffffffffffffffff81111561074f57600080fd5b61075b8582860161053a565b9150509250929050565b6000806000806080858703121561077b57600080fd5b8435610786816104f3565b9350602085013567ffffffffffffffff8111156107a257600080fd5b6107ae8782880161053a565b9350506040850135915060608501356107c6816104f3565b939692955090935050565b60006001600160a01b038087168352808616602084015250608060408301526107fd60808301856106cf565b905082606083015295945050505050565b600083516108208184602088016106ab565b919091019182525060200191905056fe608060405234801561001057600080fd5b5060405161019838038061019883398101604081905261002f916100b9565b6001600160a01b0381166100945760405162461bcd60e51b815260206004820152602260248201527f496e76616c69642073696e676c65746f6e20616464726573732070726f766964604482015261195960f21b606482015260840160405180910390fd5b600080546001600160a01b0319166001600160a01b03929092169190911790556100e9565b6000602082840312156100cb57600080fd5b81516001600160a01b03811681146100e257600080fd5b9392505050565b60a1806100f76000396000f3fe6080604052600073ffffffffffffffffffffffffffffffffffffffff8154167fa619486e00000000000000000000000000000000000000000000000000000000823503604d57808252602082f35b3682833781823684845af490503d82833e806066573d82fd5b503d81f3fea2646970667358221220b5fd578783710e7421d7d508fa5a005040b2f4b1acd79f3a2c428a0c23075e4e64736f6c634300081200336080604052600073ffffffffffffffffffffffffffffffffffffffff8154167fa619486e00000000000000000000000000000000000000000000000000000000823503604d57808252602082f35b3682833781823684845af490503d82833e806066573d82fd5b503d81f3fea2646970667358221220b5fd578783710e7421d7d508fa5a005040b2f4b1acd79f3a2c428a0c23075e4e64736f6c63430008120033a2646970667358221220631abb99e044c8ed695691931866d969541758a3bee1911c438dc95ab468050c64736f6c63430008120033",
  "linkReferences": {},
  "deployedLinkReferences": {}
}