{
  "_format": "hh-sol-artifact-1",
  "contractName": "DefaultCallbackHandler",
  "sourceName": "@gnosis.pm/safe-contracts/contracts/handler/DefaultCallbackHandler.sol",
  "abi": [
    {
      "inputs": [],
      "name": "NAME",
      "outputs": [
        {
          "internalType": "string",
          "name": "",
          "type": "string"
        }
      ],
      "stateMutability": "view",
      "type": "function"
    },
    {
      "inputs": [],
      "name": "VERSION",
      "outputs": [
        {
          "internalType": "string",
          "name": "",
          "type": "string"
        }
      ],
      "stateMutability": "view",
      "type": "function"
    },
    {
      "inputs": [
        {
          "internalType": "address",
          "name": "",
          "type": "address"
        },
        {
          "internalType": "address",
          "name": "",
          "type": "address"
        },
        {
          "internalType": "uint256[]",
          "name": "",
          "type": "uint256[]"
        },
        {
          "internalType": "uint256[]",
          "name": "",
          "type": "uint256[]"
        },
        {
          "internalType": "bytes",
          "name": "",
          "type": "bytes"
        }
      ],
      "name": "onERC1155BatchReceived",
      "outputs": [
        {
          "internalType": "bytes4",
          "name": "",
          "type": "bytes4"
        }
      ],
      "stateMutability": "pure",
      "type": "function"
    },
    {
      "inputs": [
        {
          "internalType": "address",
          "name": "",
          "type": "address"
        },
        {
          "internalType": "address",
          "name": "",
          "type": "address"
        },
        {
          "internalType": "uint256",
          "name": "",
          "type": "uint256"
        },
        {
          "internalType": "uint256",
          "name": "",
          "type": "uint256"
        },
        {
          "internalType": "bytes",
          "name": "",
          "type": "bytes"
        }
      ],
      "name": "onERC1155Received",
      "outputs": [
        {
          "internalType": "bytes4",
          "name": "",
          "type": "bytes4"
        }
      ],
      "stateMutability": "pure",
      "type": "function"
    },
    {
      "inputs": [
        {
          "internalType": "address",
          "name": "",
          "type": "address"
        },
        {
          "internalType": "address",
          "name": "",
          "type": "address"
        },
        {
          "internalType": "uint256",
          "name": "",
          "type": "uint256"
        },
        {
          "internalType": "bytes",
          "name": "",
          "type": "bytes"
        }
      ],
      "name": "onERC721Received",
      "outputs": [
        {
          "internalType": "bytes4",
          "name": "",
          "type": "bytes4"
        }
      ],
      "stateMutability": "pure",
      "type": "function"
    },
    {
      "inputs": [
        {
          "internalType": "bytes4",
          "name": "interfaceId",
          "type": "bytes4"
        }
      ],
      "name": "supportsInterface",
      "outputs": [
        {
          "internalType": "bool",
          "name": "",
          "type": "bool"
        }
      ],
      "stateMutability": "view",
      "type": "function"
    },
    {
      "inputs": [
        {
          "internalType": "address",
          "name": "",
          "type": "address"
        },
        {
          "internalType": "address",
          "name": "",
          "type": "address"
        },
        {
          "internalType": "address",
          "name": "",
          "type": "address"
        },
        {
          "internalType": "uint256",
          "name": "",
          "type": "uint256"
        },
        {
          "internalType": "bytes",
          "name": "",
          "type": "bytes"
        },
        {
          "internalType": "bytes",
          "name": "",
          "type": "bytes"
        }
      ],
      "name": "tokensReceived",
      "outputs": [],
      "stateMutability": "pure",
      "type": "function"
    }
  ],
  "bytecode": "0x608060405234801561001057600080fd5b50610610806100206000396000f3fe608060405234801561001057600080fd5b506004361061007c5760003560e01c8063a3f4df7e1161005b578063a3f4df7e146100fb578063bc197c8114610144578063f23a6e611461017f578063ffa1ad74146101b857600080fd5b806223de291461008157806301ffc9a71461009b578063150b7a02146100c3575b600080fd5b61009961008f3660046102ea565b5050505050505050565b005b6100ae6100a9366004610395565b6101f4565b60405190151581526020015b60405180910390f35b6100e26100d13660046103c6565b630a85bd0160e11b95945050505050565b6040516001600160e01b031990911681526020016100ba565b6101376040518060400160405280601881526020017f44656661756c742043616c6c6261636b2048616e646c6572000000000000000081525081565b6040516100ba9190610435565b6100e26101523660046104c8565b7fbc197c810000000000000000000000000000000000000000000000000000000098975050505050505050565b6100e261018d366004610562565b7ff23a6e61000000000000000000000000000000000000000000000000000000009695505050505050565b6101376040518060400160405280600581526020017f312e302e3000000000000000000000000000000000000000000000000000000081525081565b60006001600160e01b031982167f4e2312e000000000000000000000000000000000000000000000000000000000148061023e57506001600160e01b03198216630a85bd0160e11b145b8061027257506001600160e01b031982167f01ffc9a700000000000000000000000000000000000000000000000000000000145b92915050565b803573ffffffffffffffffffffffffffffffffffffffff8116811461029c57600080fd5b919050565b60008083601f8401126102b357600080fd5b50813567ffffffffffffffff8111156102cb57600080fd5b6020830191508360208285010111156102e357600080fd5b9250929050565b60008060008060008060008060c0898b03121561030657600080fd5b61030f89610278565b975061031d60208a01610278565b965061032b60408a01610278565b955060608901359450608089013567ffffffffffffffff8082111561034f57600080fd5b61035b8c838d016102a1565b909650945060a08b013591508082111561037457600080fd5b506103818b828c016102a1565b999c989b5096995094979396929594505050565b6000602082840312156103a757600080fd5b81356001600160e01b0319811681146103bf57600080fd5b9392505050565b6000806000806000608086880312156103de57600080fd5b6103e786610278565b94506103f560208701610278565b935060408601359250606086013567ffffffffffffffff81111561041857600080fd5b610424888289016102a1565b969995985093965092949392505050565b600060208083528351808285015260005b8181101561046257858101830151858201604001528201610446565b506000604082860101526040601f19601f8301168501019250505092915050565b60008083601f84011261049557600080fd5b50813567ffffffffffffffff8111156104ad57600080fd5b6020830191508360208260051b85010111156102e357600080fd5b60008060008060008060008060a0898b0312156104e457600080fd5b6104ed89610278565b97506104fb60208a01610278565b9650604089013567ffffffffffffffff8082111561051857600080fd5b6105248c838d01610483565b909850965060608b013591508082111561053d57600080fd5b6105498c838d01610483565b909650945060808b013591508082111561037457600080fd5b60008060008060008060a0878903121561057b57600080fd5b61058487610278565b955061059260208801610278565b94506040870135935060608701359250608087013567ffffffffffffffff8111156105bc57600080fd5b6105c889828a016102a1565b979a969950949750929593949250505056fea264697066735822122061888961b953f6591cbf3c9320730cac94120a34180e451d77368b70ad6f174e64736f6c63430008120033",
  "linkReferences": {},
  "deployedLinkReferences": {}
}