{
  "_format": "hh-sol-artifact-1",
  "contractName": "EIP4337Fallback",
  "sourceName": "contracts/EIP4337/samples/gnosis/EIP4337Fallback.sol",
  "abi": [
    {
      "inputs": [
        {
          "internalType": "address",
          "name": "_eip4337manager",
          "type": "address"
        }
      ],
      "stateMutability": "nonpayable",
      "type": "constructor"
    },
    {
      "inputs": [],
      "name": "NAME",
      "outputs": [
        {
          "internalType": "string",
          "name": "",
          "type": "string"
        }
      ],
      "stateMutability": "view",
      "type": "function"
    },
    {
      "inputs": [],
      "name": "VERSION",
      "outputs": [
        {
          "internalType": "string",
          "name": "",
          "type": "string"
        }
      ],
      "stateMutability": "view",
      "type": "function"
    },
    {
      "inputs": [],
      "name": "eip4337manager",
      "outputs": [
        {
          "internalType": "address",
          "name": "",
          "type": "address"
        }
      ],
      "stateMutability": "view",
      "type": "function"
    },
    {
      "inputs": [
        {
          "internalType": "address",
          "name": "",
          "type": "address"
        },
        {
          "internalType": "uint256",
          "name": "",
          "type": "uint256"
        },
        {
          "internalType": "bytes",
          "name": "",
          "type": "bytes"
        },
        {
          "internalType": "enum Enum.Operation",
          "name": "",
          "type": "uint8"
        }
      ],
      "name": "executeAndRevert",
      "outputs": [],
      "stateMutability": "nonpayable",
      "type": "function"
    },
    {
      "inputs": [],
      "name": "getNonce",
      "outputs": [
        {
          "internalType": "uint256",
          "name": "nonce",
          "type": "uint256"
        }
      ],
      "stateMutability": "nonpayable",
      "type": "function"
    },
    {
      "inputs": [
        {
          "internalType": "bytes32",
          "name": "_hash",
          "type": "bytes32"
        },
        {
          "internalType": "bytes",
          "name": "_signature",
          "type": "bytes"
        }
      ],
      "name": "isValidSignature",
      "outputs": [
        {
          "internalType": "bytes4",
          "name": "",
          "type": "bytes4"
        }
      ],
      "stateMutability": "view",
      "type": "function"
    },
    {
      "inputs": [
        {
          "internalType": "address",
          "name": "",
          "type": "address"
        },
        {
          "internalType": "address",
          "name": "",
          "type": "address"
        },
        {
          "internalType": "uint256[]",
          "name": "",
          "type": "uint256[]"
        },
        {
          "internalType": "uint256[]",
          "name": "",
          "type": "uint256[]"
        },
        {
          "internalType": "bytes",
          "name": "",
          "type": "bytes"
        }
      ],
      "name": "onERC1155BatchReceived",
      "outputs": [
        {
          "internalType": "bytes4",
          "name": "",
          "type": "bytes4"
        }
      ],
      "stateMutability": "pure",
      "type": "function"
    },
    {
      "inputs": [
        {
          "internalType": "address",
          "name": "",
          "type": "address"
        },
        {
          "internalType": "address",
          "name": "",
          "type": "address"
        },
        {
          "internalType": "uint256",
          "name": "",
          "type": "uint256"
        },
        {
          "internalType": "uint256",
          "name": "",
          "type": "uint256"
        },
        {
          "internalType": "bytes",
          "name": "",
          "type": "bytes"
        }
      ],
      "name": "onERC1155Received",
      "outputs": [
        {
          "internalType": "bytes4",
          "name": "",
          "type": "bytes4"
        }
      ],
      "stateMutability": "pure",
      "type": "function"
    },
    {
      "inputs": [
        {
          "internalType": "address",
          "name": "",
          "type": "address"
        },
        {
          "internalType": "address",
          "name": "",
          "type": "address"
        },
        {
          "internalType": "uint256",
          "name": "",
          "type": "uint256"
        },
        {
          "internalType": "bytes",
          "name": "",
          "type": "bytes"
        }
      ],
      "name": "onERC721Received",
      "outputs": [
        {
          "internalType": "bytes4",
          "name": "",
          "type": "bytes4"
        }
      ],
      "stateMutability": "pure",
      "type": "function"
    },
    {
      "inputs": [
        {
          "internalType": "bytes4",
          "name": "interfaceId",
          "type": "bytes4"
        }
      ],
      "name": "supportsInterface",
      "outputs": [
        {
          "internalType": "bool",
          "name": "",
          "type": "bool"
        }
      ],
      "stateMutability": "view",
      "type": "function"
    },
    {
      "inputs": [
        {
          "internalType": "address",
          "name": "",
          "type": "address"
        },
        {
          "internalType": "address",
          "name": "",
          "type": "address"
        },
        {
          "internalType": "address",
          "name": "",
          "type": "address"
        },
        {
          "internalType": "uint256",
          "name": "",
          "type": "uint256"
        },
        {
          "internalType": "bytes",
          "name": "",
          "type": "bytes"
        },
        {
          "internalType": "bytes",
          "name": "",
          "type": "bytes"
        }
      ],
      "name": "tokensReceived",
      "outputs": [],
      "stateMutability": "pure",
      "type": "function"
    },
    {
      "inputs": [
        {
          "components": [
            {
              "internalType": "address",
              "name": "sender",
              "type": "address"
            },
            {
              "internalType": "uint256",
              "name": "nonce",
              "type": "uint256"
            },
            {
              "internalType": "bytes",
              "name": "initCode",
              "type": "bytes"
            },
            {
              "internalType": "bytes",
              "name": "callData",
              "type": "bytes"
            },
            {
              "internalType": "uint256",
              "name": "callGasLimit",
              "type": "uint256"
            },
            {
              "internalType": "uint256",
              "name": "verificationGasLimit",
              "type": "uint256"
            },
            {
              "internalType": "uint256",
              "name": "preVerificationGas",
              "type": "uint256"
            },
            {
              "internalType": "uint256",
              "name": "maxFeePerGas",
              "type": "uint256"
            },
            {
              "internalType": "uint256",
              "name": "maxPriorityFeePerGas",
              "type": "uint256"
            },
            {
              "internalType": "bytes",
              "name": "paymasterAndData",
              "type": "bytes"
            },
            {
              "internalType": "bytes",
              "name": "signature",
              "type": "bytes"
            }
          ],
          "internalType": "struct UserOperation",
          "name": "",
          "type": "tuple"
        },
        {
          "internalType": "bytes32",
          "name": "",
          "type": "bytes32"
        },
        {
          "internalType": "uint256",
          "name": "",
          "type": "uint256"
        }
      ],
      "name": "validateUserOp",
      "outputs": [
        {
          "internalType": "uint256",
          "name": "deadline",
          "type": "uint256"
        }
      ],
      "stateMutability": "nonpayable",
      "type": "function"
    }
  ],
  "bytecode": "0x60a060405234801561001057600080fd5b50604051610f63380380610f6383398101604081905261002f91610040565b6001600160a01b0316608052610070565b60006020828403121561005257600080fd5b81516001600160a01b038116811461006957600080fd5b9392505050565b608051610ed16100926000396000818161016a01526105250152610ed16000f3fe608060405234801561001057600080fd5b50600436106100d35760003560e01c8063940d3c6011610081578063d087d2881161005b578063d087d2881461025c578063f23a6e6114610264578063ffa1ad741461029d57600080fd5b8063940d3c60146101c5578063a3f4df7e146101d8578063bc197c811461022157600080fd5b80631626ba7e116100b25780631626ba7e146101525780632bcadc24146101655780633a871cdd146101a457600080fd5b806223de29146100d857806301ffc9a7146100f2578063150b7a021461011a575b600080fd5b6100f06100e6366004610889565b5050505050505050565b005b610105610100366004610934565b6102d9565b60405190151581526020015b60405180910390f35b61013961012836600461095e565b630a85bd0160e11b95945050505050565b6040516001600160e01b03199091168152602001610111565b610139610160366004610a92565b61035d565b61018c7f000000000000000000000000000000000000000000000000000000000000000081565b6040516001600160a01b039091168152602001610111565b6101b76101b2366004610ad9565b610463565b604051908152602001610111565b6100f06101d3366004610b2d565b61048d565b6102146040518060400160405280601881526020017f44656661756c742043616c6c6261636b2048616e646c6572000000000000000081525081565b6040516101119190610bbf565b61013961022f366004610c37565b7fbc197c810000000000000000000000000000000000000000000000000000000098975050505050505050565b6101b761049c565b610139610272366004610cd1565b7ff23a6e61000000000000000000000000000000000000000000000000000000009695505050505050565b6102146040518060400160405280600581526020017f312e302e3000000000000000000000000000000000000000000000000000000081525081565b60006001600160e01b031982167f4e2312e000000000000000000000000000000000000000000000000000000000148061032357506001600160e01b03198216630a85bd0160e11b145b8061035757506001600160e01b031982167f01ffc9a700000000000000000000000000000000000000000000000000000000145b92915050565b7f19457468657265756d205369676e6564204d6573736167653a0a3332000000006000908152601c839052603c8120600061039882856104c3565b6040517f2f54bf6e0000000000000000000000000000000000000000000000000000000081526001600160a01b038216600482015290915033908190632f54bf6e90602401602060405180830381865afa1580156103fa573d6000803e3d6000fd5b505050506040513d601f19601f8201168201806040525081019061041e9190610d59565b1561044f57507f1626ba7e000000000000000000000000000000000000000000000000000000009250610357915050565b506001600160e01b03199250610357915050565b60008061046e6104e7565b9050808060200190518101906104849190610d74565b95945050505050565b6104956104e7565b5050505050565b6000806104a76104e7565b9050808060200190518101906104bd9190610d74565b91505090565b60008060006104d285856105b5565b915091506104df816105fa565b509392505050565b6040517f5229073f000000000000000000000000000000000000000000000000000000008152606090339060009081908390635229073f90610556907f000000000000000000000000000000000000000000000000000000000000000090859081903690600190600401610da3565b6000604051808303816000875af1158015610575573d6000803e3d6000fd5b505050506040513d6000823e601f3d908101601f1916820160405261059d9190810190610e11565b91509150816105ae57805160208201fd5b9392505050565b60008082516041036105eb5760208301516040840151606085015160001a6105df87828585610767565b945094505050506105f3565b506000905060025b9250929050565b600081600481111561060e5761060e610d8d565b036106165750565b600181600481111561062a5761062a610d8d565b0361067c5760405162461bcd60e51b815260206004820152601860248201527f45434453413a20696e76616c6964207369676e6174757265000000000000000060448201526064015b60405180910390fd5b600281600481111561069057610690610d8d565b036106dd5760405162461bcd60e51b815260206004820152601f60248201527f45434453413a20696e76616c6964207369676e6174757265206c656e677468006044820152606401610673565b60038160048111156106f1576106f1610d8d565b036107645760405162461bcd60e51b815260206004820152602260248201527f45434453413a20696e76616c6964207369676e6174757265202773272076616c60448201527f75650000000000000000000000000000000000000000000000000000000000006064820152608401610673565b50565b6000807f7fffffffffffffffffffffffffffffff5d576e7357a4501ddfe92f46681b20a083111561079e5750600090506003610822565b6040805160008082526020820180845289905260ff881692820192909252606081018690526080810185905260019060a0016020604051602081039080840390855afa1580156107f2573d6000803e3d6000fd5b5050604051601f1901519150506001600160a01b03811661081b57600060019250925050610822565b9150600090505b94509492505050565b80356001600160a01b038116811461084257600080fd5b919050565b60008083601f84011261085957600080fd5b50813567ffffffffffffffff81111561087157600080fd5b6020830191508360208285010111156105f357600080fd5b60008060008060008060008060c0898b0312156108a557600080fd5b6108ae8961082b565b97506108bc60208a0161082b565b96506108ca60408a0161082b565b955060608901359450608089013567ffffffffffffffff808211156108ee57600080fd5b6108fa8c838d01610847565b909650945060a08b013591508082111561091357600080fd5b506109208b828c01610847565b999c989b5096995094979396929594505050565b60006020828403121561094657600080fd5b81356001600160e01b0319811681146105ae57600080fd5b60008060008060006080868803121561097657600080fd5b61097f8661082b565b945061098d6020870161082b565b935060408601359250606086013567ffffffffffffffff8111156109b057600080fd5b6109bc88828901610847565b969995985093965092949392505050565b634e487b7160e01b600052604160045260246000fd5b604051601f8201601f1916810167ffffffffffffffff81118282101715610a0c57610a0c6109cd565b604052919050565b600067ffffffffffffffff821115610a2e57610a2e6109cd565b50601f01601f191660200190565b600082601f830112610a4d57600080fd5b8135610a60610a5b82610a14565b6109e3565b818152846020838601011115610a7557600080fd5b816020850160208301376000918101602001919091529392505050565b60008060408385031215610aa557600080fd5b82359150602083013567ffffffffffffffff811115610ac357600080fd5b610acf85828601610a3c565b9150509250929050565b600080600060608486031215610aee57600080fd5b833567ffffffffffffffff811115610b0557600080fd5b84016101608187031215610b1857600080fd5b95602085013595506040909401359392505050565b60008060008060808587031215610b4357600080fd5b610b4c8561082b565b935060208501359250604085013567ffffffffffffffff811115610b6f57600080fd5b610b7b87828801610a3c565b925050606085013560028110610b9057600080fd5b939692955090935050565b60005b83811015610bb6578181015183820152602001610b9e565b50506000910152565b6020815260008251806020840152610bde816040850160208701610b9b565b601f01601f19169190910160400192915050565b60008083601f840112610c0457600080fd5b50813567ffffffffffffffff811115610c1c57600080fd5b6020830191508360208260051b85010111156105f357600080fd5b60008060008060008060008060a0898b031215610c5357600080fd5b610c5c8961082b565b9750610c6a60208a0161082b565b9650604089013567ffffffffffffffff80821115610c8757600080fd5b610c938c838d01610bf2565b909850965060608b0135915080821115610cac57600080fd5b610cb88c838d01610bf2565b909650945060808b013591508082111561091357600080fd5b60008060008060008060a08789031215610cea57600080fd5b610cf38761082b565b9550610d016020880161082b565b94506040870135935060608701359250608087013567ffffffffffffffff811115610d2b57600080fd5b610d3789828a01610847565b979a9699509497509295939492505050565b8051801515811461084257600080fd5b600060208284031215610d6b57600080fd5b6105ae82610d49565b600060208284031215610d8657600080fd5b5051919050565b634e487b7160e01b600052602160045260246000fd5b6001600160a01b038616815284602082015260806040820152826080820152828460a0830137600060a08483010152600060a0601f19601f860116830101905060028310610e0157634e487b7160e01b600052602160045260246000fd5b8260608301529695505050505050565b60008060408385031215610e2457600080fd5b610e2d83610d49565b9150602083015167ffffffffffffffff811115610e4957600080fd5b8301601f81018513610e5a57600080fd5b8051610e68610a5b82610a14565b818152866020838501011115610e7d57600080fd5b610e8e826020830160208601610b9b565b809350505050925092905056fea26469706673582212205033f3d7a21db1c938beaaf436a50c7f0ed564705e02532a1881bef3c407b5ae64736f6c63430008120033",
  "linkReferences": {},
  "deployedLinkReferences": {}
}