{
  "_format": "hh-sol-artifact-1",
  "contractName": "DepositPaymaster",
  "sourceName": "contracts/EIP4337/samples/DepositPaymaster.sol",
  "abi": [
    {
      "inputs": [
        {
          "internalType": "contract IEntryPoint",
          "name": "_entryPoint",
          "type": "address"
        }
      ],
      "stateMutability": "nonpayable",
      "type": "constructor"
    },
    {
      "anonymous": false,
      "inputs": [
        {
          "indexed": true,
          "internalType": "address",
          "name": "previousOwner",
          "type": "address"
        },
        {
          "indexed": true,
          "internalType": "address",
          "name": "newOwner",
          "type": "address"
        }
      ],
      "name": "OwnershipTransferred",
      "type": "event"
    },
    {
      "inputs": [],
      "name": "COST_OF_POST",
      "outputs": [
        {
          "internalType": "uint256",
          "name": "",
          "type": "uint256"
        }
      ],
      "stateMutability": "view",
      "type": "function"
    },
    {
      "inputs": [
        {
          "internalType": "contract IERC20",
          "name": "token",
          "type": "address"
        },
        {
          "internalType": "address",
          "name": "account",
          "type": "address"
        },
        {
          "internalType": "uint256",
          "name": "amount",
          "type": "uint256"
        }
      ],
      "name": "addDepositFor",
      "outputs": [],
      "stateMutability": "nonpayable",
      "type": "function"
    },
    {
      "inputs": [
        {
          "internalType": "uint32",
          "name": "unstakeDelaySec",
          "type": "uint32"
        }
      ],
      "name": "addStake",
      "outputs": [],
      "stateMutability": "payable",
      "type": "function"
    },
    {
      "inputs": [
        {
          "internalType": "contract IERC20",
          "name": "token",
          "type": "address"
        },
        {
          "internalType": "contract IOracle",
          "name": "tokenPriceOracle",
          "type": "address"
        }
      ],
      "name": "addToken",
      "outputs": [],
      "stateMutability": "nonpayable",
      "type": "function"
    },
    {
      "inputs": [
        {
          "internalType": "contract IERC20",
          "name": "",
          "type": "address"
        },
        {
          "internalType": "address",
          "name": "",
          "type": "address"
        }
      ],
      "name": "balances",
      "outputs": [
        {
          "internalType": "uint256",
          "name": "",
          "type": "uint256"
        }
      ],
      "stateMutability": "view",
      "type": "function"
    },
    {
      "inputs": [],
      "name": "deposit",
      "outputs": [],
      "stateMutability": "payable",
      "type": "function"
    },
    {
      "inputs": [
        {
          "internalType": "contract IERC20",
          "name": "token",
          "type": "address"
        },
        {
          "internalType": "address",
          "name": "account",
          "type": "address"
        }
      ],
      "name": "depositInfo",
      "outputs": [
        {
          "internalType": "uint256",
          "name": "amount",
          "type": "uint256"
        },
        {
          "internalType": "uint256",
          "name": "_unlockBlock",
          "type": "uint256"
        }
      ],
      "stateMutability": "view",
      "type": "function"
    },
    {
      "inputs": [],
      "name": "entryPoint",
      "outputs": [
        {
          "internalType": "contract IEntryPoint",
          "name": "",
          "type": "address"
        }
      ],
      "stateMutability": "view",
      "type": "function"
    },
    {
      "inputs": [],
      "name": "getDeposit",
      "outputs": [
        {
          "internalType": "uint256",
          "name": "",
          "type": "uint256"
        }
      ],
      "stateMutability": "view",
      "type": "function"
    },
    {
      "inputs": [],
      "name": "lockTokenDeposit",
      "outputs": [],
      "stateMutability": "nonpayable",
      "type": "function"
    },
    {
      "inputs": [
        {
          "internalType": "contract IERC20",
          "name": "",
          "type": "address"
        }
      ],
      "name": "oracles",
      "outputs": [
        {
          "internalType": "contract IOracle",
          "name": "",
          "type": "address"
        }
      ],
      "stateMutability": "view",
      "type": "function"
    },
    {
      "inputs": [],
      "name": "owner",
      "outputs": [
        {
          "internalType": "address",
          "name": "",
          "type": "address"
        }
      ],
      "stateMutability": "view",
      "type": "function"
    },
    {
      "inputs": [
        {
          "internalType": "enum IPaymaster.PostOpMode",
          "name": "mode",
          "type": "uint8"
        },
        {
          "internalType": "bytes",
          "name": "context",
          "type": "bytes"
        },
        {
          "internalType": "uint256",
          "name": "actualGasCost",
          "type": "uint256"
        }
      ],
      "name": "postOp",
      "outputs": [],
      "stateMutability": "nonpayable",
      "type": "function"
    },
    {
      "inputs": [],
      "name": "renounceOwnership",
      "outputs": [],
      "stateMutability": "nonpayable",
      "type": "function"
    },
    {
      "inputs": [
        {
          "internalType": "address",
          "name": "newOwner",
          "type": "address"
        }
      ],
      "name": "transferOwnership",
      "outputs": [],
      "stateMutability": "nonpayable",
      "type": "function"
    },
    {
      "inputs": [
        {
          "internalType": "address",
          "name": "",
          "type": "address"
        }
      ],
      "name": "unlockBlock",
      "outputs": [
        {
          "internalType": "uint256",
          "name": "",
          "type": "uint256"
        }
      ],
      "stateMutability": "view",
      "type": "function"
    },
    {
      "inputs": [],
      "name": "unlockStake",
      "outputs": [],
      "stateMutability": "nonpayable",
      "type": "function"
    },
    {
      "inputs": [],
      "name": "unlockTokenDeposit",
      "outputs": [],
      "stateMutability": "nonpayable",
      "type": "function"
    },
    {
      "inputs": [
        {
          "components": [
            {
              "internalType": "address",
              "name": "sender",
              "type": "address"
            },
            {
              "internalType": "uint256",
              "name": "nonce",
              "type": "uint256"
            },
            {
              "internalType": "bytes",
              "name": "initCode",
              "type": "bytes"
            },
            {
              "internalType": "bytes",
              "name": "callData",
              "type": "bytes"
            },
            {
              "internalType": "uint256",
              "name": "callGasLimit",
              "type": "uint256"
            },
            {
              "internalType": "uint256",
              "name": "verificationGasLimit",
              "type": "uint256"
            },
            {
              "internalType": "uint256",
              "name": "preVerificationGas",
              "type": "uint256"
            },
            {
              "internalType": "uint256",
              "name": "maxFeePerGas",
              "type": "uint256"
            },
            {
              "internalType": "uint256",
              "name": "maxPriorityFeePerGas",
              "type": "uint256"
            },
            {
              "internalType": "bytes",
              "name": "paymasterAndData",
              "type": "bytes"
            },
            {
              "internalType": "bytes",
              "name": "signature",
              "type": "bytes"
            }
          ],
          "internalType": "struct UserOperation",
          "name": "userOp",
          "type": "tuple"
        },
        {
          "internalType": "bytes32",
          "name": "userOpHash",
          "type": "bytes32"
        },
        {
          "internalType": "uint256",
          "name": "maxCost",
          "type": "uint256"
        }
      ],
      "name": "validatePaymasterUserOp",
      "outputs": [
        {
          "internalType": "bytes",
          "name": "context",
          "type": "bytes"
        },
        {
          "internalType": "uint256",
          "name": "validationData",
          "type": "uint256"
        }
      ],
      "stateMutability": "nonpayable",
      "type": "function"
    },
    {
      "inputs": [
        {
          "internalType": "address payable",
          "name": "withdrawAddress",
          "type": "address"
        }
      ],
      "name": "withdrawStake",
      "outputs": [],
      "stateMutability": "nonpayable",
      "type": "function"
    },
    {
      "inputs": [
        {
          "internalType": "address payable",
          "name": "withdrawAddress",
          "type": "address"
        },
        {
          "internalType": "uint256",
          "name": "amount",
          "type": "uint256"
        }
      ],
      "name": "withdrawTo",
      "outputs": [],
      "stateMutability": "nonpayable",
      "type": "function"
    },
    {
      "inputs": [
        {
          "internalType": "contract IERC20",
          "name": "token",
          "type": "address"
        },
        {
          "internalType": "address",
          "name": "target",
          "type": "address"
        },
        {
          "internalType": "uint256",
          "name": "amount",
          "type": "uint256"
        }
      ],
      "name": "withdrawTokensTo",
      "outputs": [],
      "stateMutability": "nonpayable",
      "type": "function"
    }
  ],
  "bytecode": "0x60a06040523480156200001157600080fd5b5060405162001b3038038062001b308339810160408190526200003491620000bb565b8062000040336200006b565b6001600160a01b031660805262000064336000908152600360205260409020439055565b50620000ed565b600080546001600160a01b038381166001600160a01b0319831681178455604051919092169283917f8be0079c531659141344cd1fd0a4f28419497f9722a3daafe3b4186f6b6457e09190a35050565b600060208284031215620000ce57600080fd5b81516001600160a01b0381168114620000e657600080fd5b9392505050565b6080516119f66200013a6000396000818161037f015281816104f7015281816105a7015281816107b501528181610862015281816108f201528181610a830152610cf601526119f66000f3fe6080604052600436106101755760003560e01c8063addd5099116100cb578063c399ec881161007f578063d0e30db011610059578063d0e30db014610465578063f2fde38b1461046d578063f465c77e1461048d57600080fd5b8063c399ec881461040e578063cc9c837c14610423578063cd8f80c21461044357600080fd5b8063bb9fe6bf116100b0578063bb9fe6bf146103a1578063c23a5cea146103b6578063c23f001f146103d657600080fd5b8063addd509914610337578063b0d691fe1461036d57600080fd5b80635476bd721161012d5780638da5cb5b116101075780638da5cb5b146102c15780639ed0fb68146102f3578063a9a234091461031757600080fd5b80635476bd7214610276578063715018a614610296578063796d4371146102ab57600080fd5b8063382edd9e1161015e578063382edd9e146101af578063493b0170146101cf5780634a6f84cf1461023b57600080fd5b80630396cb601461017a578063205c28781461018f575b600080fd5b61018d61018836600461157a565b6104bb565b005b34801561019b57600080fd5b5061018d6101aa3660046115b5565b610560565b3480156101bb57600080fd5b5061018d6101ca3660046115e1565b6105eb565b3480156101db57600080fd5b506102216101ea366004611622565b6001600160a01b03918216600090815260026020908152604080832093909416825291825282812054600390925291909120549091565b604080519283526020830191909152015b60405180910390f35b34801561024757600080fd5b5061026861025636600461165b565b60036020526000908152604090205481565b604051908152602001610232565b34801561028257600080fd5b5061018d610291366004611622565b6106d2565b3480156102a257600080fd5b5061018d61077d565b3480156102b757600080fd5b506102686188b881565b3480156102cd57600080fd5b506000546001600160a01b03165b6040516001600160a01b039091168152602001610232565b3480156102ff57600080fd5b5061018d336000908152600360205260409020439055565b34801561032357600080fd5b5061018d610332366004611678565b610791565b34801561034357600080fd5b506102db61035236600461165b565b6001602052600090815260409020546001600160a01b031681565b34801561037957600080fd5b506102db7f000000000000000000000000000000000000000000000000000000000000000081565b3480156103ad57600080fd5b5061018d6107ab565b3480156103c257600080fd5b5061018d6103d136600461165b565b610822565b3480156103e257600080fd5b506102686103f1366004611622565b600260209081526000928352604080842090915290825290205481565b34801561041a57600080fd5b506102686108c1565b34801561042f57600080fd5b5061018d61043e3660046115e1565b61096a565b34801561044f57600080fd5b5061018d33600090815260036020526040812055565b61018d610a55565b34801561047957600080fd5b5061018d61048836600461165b565b610ad0565b34801561049957600080fd5b506104ad6104a8366004611707565b610b60565b6040516102329291906117ab565b6104c3610b83565b6040517f0396cb6000000000000000000000000000000000000000000000000000000000815263ffffffff821660048201527f00000000000000000000000000000000000000000000000000000000000000006001600160a01b031690630396cb609034906024016000604051808303818588803b15801561054457600080fd5b505af1158015610558573d6000803e3d6000fd5b505050505050565b610568610b83565b6040517f205c28780000000000000000000000000000000000000000000000000000000081526001600160a01b038381166004830152602482018390527f0000000000000000000000000000000000000000000000000000000000000000169063205c287890604401600060405180830381600087803b15801561054457600080fd5b6001600160a01b03838116600090815260016020526040902054166106575760405162461bcd60e51b815260206004820152601160248201527f756e737570706f7274656420746f6b656e00000000000000000000000000000060448201526064015b60405180910390fd5b61066c6001600160a01b038416333084610bdd565b6001600160a01b038084166000908152600260209081526040808320938616835292905290812080548392906106a39084906117e3565b90915550506001600160a01b03821633036106cd576106cd33600090815260036020526040812055565b505050565b6106da610b83565b6001600160a01b0382811660009081526001602052604090205416156107425760405162461bcd60e51b815260206004820152601160248201527f546f6b656e20616c726561647920736574000000000000000000000000000000604482015260640161064e565b6001600160a01b039182166000908152600160205260409020805473ffffffffffffffffffffffffffffffffffffffff191691909216179055565b610785610b83565b61078f6000610c8e565b565b610799610ceb565b6107a584848484610d63565b50505050565b6107b3610b83565b7f00000000000000000000000000000000000000000000000000000000000000006001600160a01b031663bb9fe6bf6040518163ffffffff1660e01b8152600401600060405180830381600087803b15801561080e57600080fd5b505af11580156107a5573d6000803e3d6000fd5b61082a610b83565b6040517fc23a5cea0000000000000000000000000000000000000000000000000000000081526001600160a01b0382811660048301527f0000000000000000000000000000000000000000000000000000000000000000169063c23a5cea90602401600060405180830381600087803b1580156108a657600080fd5b505af11580156108ba573d6000803e3d6000fd5b5050505050565b6040517f70a082310000000000000000000000000000000000000000000000000000000081523060048201526000907f00000000000000000000000000000000000000000000000000000000000000006001600160a01b0316906370a0823190602401602060405180830381865afa158015610941573d6000803e3d6000fd5b505050506040513d601f19601f8201168201806040525081019061096591906117f6565b905090565b336000908152600360205260409020541580159061099657503360009081526003602052604090205443115b610a085760405162461bcd60e51b815260206004820152602960248201527f4465706f7369745061796d61737465723a206d75737420756e6c6f636b546f6b60448201527f656e4465706f7369740000000000000000000000000000000000000000000000606482015260840161064e565b6001600160a01b038316600090815260026020908152604080832033845290915281208054839290610a3b90849061180f565b909155506106cd90506001600160a01b0384168383610e8d565b6040517fb760faf90000000000000000000000000000000000000000000000000000000081523060048201527f00000000000000000000000000000000000000000000000000000000000000006001600160a01b03169063b760faf99034906024016000604051808303818588803b1580156108a657600080fd5b610ad8610b83565b6001600160a01b038116610b545760405162461bcd60e51b815260206004820152602660248201527f4f776e61626c653a206e6577206f776e657220697320746865207a65726f206160448201527f6464726573730000000000000000000000000000000000000000000000000000606482015260840161064e565b610b5d81610c8e565b50565b60606000610b6c610ceb565b610b77858585610ed6565b91509150935093915050565b6000546001600160a01b0316331461078f5760405162461bcd60e51b815260206004820181905260248201527f4f776e61626c653a2063616c6c6572206973206e6f7420746865206f776e6572604482015260640161064e565b6040516001600160a01b03808516602483015283166044820152606481018290526107a59085907f23b872dd00000000000000000000000000000000000000000000000000000000906084015b60408051601f198184030181529190526020810180517bffffffffffffffffffffffffffffffffffffffffffffffffffffffff167fffffffff0000000000000000000000000000000000000000000000000000000090931692909217909152611190565b600080546001600160a01b0383811673ffffffffffffffffffffffffffffffffffffffff19831681178455604051919092169283917f8be0079c531659141344cd1fd0a4f28419497f9722a3daafe3b4186f6b6457e09190a35050565b336001600160a01b037f0000000000000000000000000000000000000000000000000000000000000000161461078f5760405162461bcd60e51b815260206004820152601560248201527f53656e646572206e6f7420456e747279506f696e740000000000000000000000604482015260640161064e565b600080808080610d7587890189611822565b9450945094509450945060008183856188b8610d919190611873565b610d9b908a6117e3565b610da59190611873565b610daf919061188a565b905060028a6002811115610dc557610dc56118ac565b14610de457610ddf6001600160a01b038616873084610bdd565b610e21565b6001600160a01b038086166000908152600260209081526040808320938a1683529290529081208054839290610e1b90849061180f565b90915550505b6001600160a01b03851660009081526002602052604081208291610e4d6000546001600160a01b031690565b6001600160a01b03166001600160a01b031681526020019081526020016000206000828254610e7c91906117e3565b909155505050505050505050505050565b6040516001600160a01b0383166024820152604481018290526106cd9084907fa9059cbb0000000000000000000000000000000000000000000000000000000090606401610c2a565b606060006188b88560a0013511610f555760405162461bcd60e51b815260206004820152602860248201527f4465706f7369745061796d61737465723a2067617320746f6f206c6f7720666f60448201527f7220706f73744f70000000000000000000000000000000000000000000000000606482015260840161064e565b366000610f666101208801886118c2565b909250905060288114610fe15760405162461bcd60e51b815260206004820152603560248201527f4465706f7369745061796d61737465723a207061796d6173746572416e64446160448201527f7461206d757374207370656369667920746f6b656e0000000000000000000000606482015260840161064e565b6000610ff08260148186611910565b610ff99161193a565b60601c90508735600061100c8389611278565b905060006110198b611394565b6001600160a01b038416600090815260036020526040902054909150156110a75760405162461bcd60e51b8152602060048201526024808201527f4465706f7369745061796d61737465723a206465706f736974206e6f74206c6f60448201527f636b656400000000000000000000000000000000000000000000000000000000606482015260840161064e565b6001600160a01b038085166000908152600260209081526040808320938716835292905220548211156111425760405162461bcd60e51b815260206004820152602160248201527f4465706f7369745061796d61737465723a206465706f73697420746f6f206c6f60448201527f7700000000000000000000000000000000000000000000000000000000000000606482015260840161064e565b604080516001600160a01b03948516602082015294909316848401526060840152608083015260a0808301979097528051808303909701875260c09091019052509295600095509350505050565b60006111e5826040518060400160405280602081526020017f5361666545524332303a206c6f772d6c6576656c2063616c6c206661696c6564815250856001600160a01b03166113c39092919063ffffffff16565b9050805160001480611206575080806020019051810190611206919061196f565b6106cd5760405162461bcd60e51b815260206004820152602a60248201527f5361666545524332303a204552433230206f7065726174696f6e20646964206e60448201527f6f74207375636365656400000000000000000000000000000000000000000000606482015260840161064e565b6001600160a01b03808316600090815260016020526040812054909116806113085760405162461bcd60e51b815260206004820152602360248201527f4465706f7369745061796d61737465723a20756e737570706f7274656420746f60448201527f6b656e0000000000000000000000000000000000000000000000000000000000606482015260840161064e565b6040517fd1eca9cf000000000000000000000000000000000000000000000000000000008152600481018490526001600160a01b0382169063d1eca9cf90602401602060405180830381865afa158015611366573d6000803e3d6000fd5b505050506040513d601f19601f8201168201806040525081019061138a91906117f6565b9150505b92915050565b600060e08201356101008301358082036113af575092915050565b6113bb824883016113d2565b949350505050565b60606113bb84846000856113ea565b60008183106113e157816113e3565b825b9392505050565b6060824710156114625760405162461bcd60e51b815260206004820152602660248201527f416464726573733a20696e73756666696369656e742062616c616e636520666f60448201527f722063616c6c0000000000000000000000000000000000000000000000000000606482015260840161064e565b600080866001600160a01b0316858760405161147e9190611991565b60006040518083038185875af1925050503d80600081146114bb576040519150601f19603f3d011682016040523d82523d6000602084013e6114c0565b606091505b50915091506114d1878383876114dc565b979650505050505050565b6060831561154b578251600003611544576001600160a01b0385163b6115445760405162461bcd60e51b815260206004820152601d60248201527f416464726573733a2063616c6c20746f206e6f6e2d636f6e7472616374000000604482015260640161064e565b50816113bb565b6113bb83838151156115605781518083602001fd5b8060405162461bcd60e51b815260040161064e91906119ad565b60006020828403121561158c57600080fd5b813563ffffffff811681146113e357600080fd5b6001600160a01b0381168114610b5d57600080fd5b600080604083850312156115c857600080fd5b82356115d3816115a0565b946020939093013593505050565b6000806000606084860312156115f657600080fd5b8335611601816115a0565b92506020840135611611816115a0565b929592945050506040919091013590565b6000806040838503121561163557600080fd5b8235611640816115a0565b91506020830135611650816115a0565b809150509250929050565b60006020828403121561166d57600080fd5b81356113e3816115a0565b6000806000806060858703121561168e57600080fd5b84356003811061169d57600080fd5b9350602085013567ffffffffffffffff808211156116ba57600080fd5b818701915087601f8301126116ce57600080fd5b8135818111156116dd57600080fd5b8860208285010111156116ef57600080fd5b95986020929092019750949560400135945092505050565b60008060006060848603121561171c57600080fd5b833567ffffffffffffffff81111561173357600080fd5b8401610160818703121561174657600080fd5b95602085013595506040909401359392505050565b60005b8381101561177657818101518382015260200161175e565b50506000910152565b6000815180845261179781602086016020860161175b565b601f01601f19169290920160200192915050565b6040815260006117be604083018561177f565b90508260208301529392505050565b634e487b7160e01b600052601160045260246000fd5b8082018082111561138e5761138e6117cd565b60006020828403121561180857600080fd5b5051919050565b8181038181111561138e5761138e6117cd565b600080600080600060a0868803121561183a57600080fd5b8535611845816115a0565b94506020860135611855816115a0565b94979496505050506040830135926060810135926080909101359150565b808202811582820484141761138e5761138e6117cd565b6000826118a757634e487b7160e01b600052601260045260246000fd5b500490565b634e487b7160e01b600052602160045260246000fd5b6000808335601e198436030181126118d957600080fd5b83018035915067ffffffffffffffff8211156118f457600080fd5b60200191503681900382131561190957600080fd5b9250929050565b6000808585111561192057600080fd5b8386111561192d57600080fd5b5050820193919092039150565b6bffffffffffffffffffffffff1981358181169160148510156119675780818660140360031b1b83161692505b505092915050565b60006020828403121561198157600080fd5b815180151581146113e357600080fd5b600082516119a381846020870161175b565b9190910192915050565b6020815260006113e3602083018461177f56fea264697066735822122055f0208011b616c79d2f3fb70276b9fcd3498154e2077fb1c39e7276b5835b3064736f6c63430008120033",
  "linkReferences": {},
  "deployedLinkReferences": {}
}