{
  "_format": "hh-sol-artifact-1",
  "contractName": "BLSAccount",
  "sourceName": "contracts/EIP4337/samples/bls/BLSAccount.sol",
  "abi": [
    {
      "inputs": [
        {
          "internalType": "contract IEntryPoint",
          "name": "anEntryPoint",
          "type": "address"
        },
        {
          "internalType": "address",
          "name": "anAggregator",
          "type": "address"
        }
      ],
      "stateMutability": "nonpayable",
      "type": "constructor"
    },
    {
      "anonymous": false,
      "inputs": [
        {
          "indexed": false,
          "internalType": "address",
          "name": "previousAdmin",
          "type": "address"
        },
        {
          "indexed": false,
          "internalType": "address",
          "name": "newAdmin",
          "type": "address"
        }
      ],
      "name": "AdminChanged",
      "type": "event"
    },
    {
      "anonymous": false,
      "inputs": [
        {
          "indexed": true,
          "internalType": "address",
          "name": "beacon",
          "type": "address"
        }
      ],
      "name": "BeaconUpgraded",
      "type": "event"
    },
    {
      "anonymous": false,
      "inputs": [
        {
          "indexed": false,
          "internalType": "uint8",
          "name": "version",
          "type": "uint8"
        }
      ],
      "name": "Initialized",
      "type": "event"
    },
    {
      "anonymous": false,
      "inputs": [
        {
          "indexed": false,
          "internalType": "uint256[4]",
          "name": "oldPublicKey",
          "type": "uint256[4]"
        },
        {
          "indexed": false,
          "internalType": "uint256[4]",
          "name": "newPublicKey",
          "type": "uint256[4]"
        }
      ],
      "name": "PublicKeyChanged",
      "type": "event"
    },
    {
      "anonymous": false,
      "inputs": [
        {
          "indexed": true,
          "internalType": "contract IEntryPoint",
          "name": "entryPoint",
          "type": "address"
        },
        {
          "indexed": true,
          "internalType": "address",
          "name": "owner",
          "type": "address"
        }
      ],
      "name": "SimpleAccountInitialized",
      "type": "event"
    },
    {
      "anonymous": false,
      "inputs": [
        {
          "indexed": true,
          "internalType": "address",
          "name": "implementation",
          "type": "address"
        }
      ],
      "name": "Upgraded",
      "type": "event"
    },
    {
      "inputs": [],
      "name": "addDeposit",
      "outputs": [],
      "stateMutability": "payable",
      "type": "function"
    },
    {
      "inputs": [],
      "name": "aggregator",
      "outputs": [
        {
          "internalType": "address",
          "name": "",
          "type": "address"
        }
      ],
      "stateMutability": "view",
      "type": "function"
    },
    {
      "inputs": [],
      "name": "entryPoint",
      "outputs": [
        {
          "internalType": "contract IEntryPoint",
          "name": "",
          "type": "address"
        }
      ],
      "stateMutability": "view",
      "type": "function"
    },
    {
      "inputs": [
        {
          "internalType": "address",
          "name": "dest",
          "type": "address"
        },
        {
          "internalType": "uint256",
          "name": "value",
          "type": "uint256"
        },
        {
          "internalType": "bytes",
          "name": "func",
          "type": "bytes"
        }
      ],
      "name": "execute",
      "outputs": [],
      "stateMutability": "nonpayable",
      "type": "function"
    },
    {
      "inputs": [
        {
          "internalType": "address[]",
          "name": "dest",
          "type": "address[]"
        },
        {
          "internalType": "bytes[]",
          "name": "func",
          "type": "bytes[]"
        }
      ],
      "name": "executeBatch",
      "outputs": [],
      "stateMutability": "nonpayable",
      "type": "function"
    },
    {
      "inputs": [],
      "name": "getBlsPublicKey",
      "outputs": [
        {
          "internalType": "uint256[4]",
          "name": "",
          "type": "uint256[4]"
        }
      ],
      "stateMutability": "view",
      "type": "function"
    },
    {
      "inputs": [],
      "name": "getDeposit",
      "outputs": [
        {
          "internalType": "uint256",
          "name": "",
          "type": "uint256"
        }
      ],
      "stateMutability": "view",
      "type": "function"
    },
    {
      "inputs": [],
      "name": "getNonce",
      "outputs": [
        {
          "internalType": "uint256",
          "name": "",
          "type": "uint256"
        }
      ],
      "stateMutability": "view",
      "type": "function"
    },
    {
      "inputs": [
        {
          "internalType": "address",
          "name": "anOwner",
          "type": "address"
        }
      ],
      "name": "initialize",
      "outputs": [],
      "stateMutability": "nonpayable",
      "type": "function"
    },
    {
      "inputs": [
        {
          "internalType": "uint256[4]",
          "name": "aPublicKey",
          "type": "uint256[4]"
        }
      ],
      "name": "initialize",
      "outputs": [],
      "stateMutability": "nonpayable",
      "type": "function"
    },
    {
      "inputs": [
        {
          "internalType": "address",
          "name": "",
          "type": "address"
        },
        {
          "internalType": "address",
          "name": "",
          "type": "address"
        },
        {
          "internalType": "uint256[]",
          "name": "",
          "type": "uint256[]"
        },
        {
          "internalType": "uint256[]",
          "name": "",
          "type": "uint256[]"
        },
        {
          "internalType": "bytes",
          "name": "",
          "type": "bytes"
        }
      ],
      "name": "onERC1155BatchReceived",
      "outputs": [
        {
          "internalType": "bytes4",
          "name": "",
          "type": "bytes4"
        }
      ],
      "stateMutability": "pure",
      "type": "function"
    },
    {
      "inputs": [
        {
          "internalType": "address",
          "name": "",
          "type": "address"
        },
        {
          "internalType": "address",
          "name": "",
          "type": "address"
        },
        {
          "internalType": "uint256",
          "name": "",
          "type": "uint256"
        },
        {
          "internalType": "uint256",
          "name": "",
          "type": "uint256"
        },
        {
          "internalType": "bytes",
          "name": "",
          "type": "bytes"
        }
      ],
      "name": "onERC1155Received",
      "outputs": [
        {
          "internalType": "bytes4",
          "name": "",
          "type": "bytes4"
        }
      ],
      "stateMutability": "pure",
      "type": "function"
    },
    {
      "inputs": [
        {
          "internalType": "address",
          "name": "",
          "type": "address"
        },
        {
          "internalType": "address",
          "name": "",
          "type": "address"
        },
        {
          "internalType": "uint256",
          "name": "",
          "type": "uint256"
        },
        {
          "internalType": "bytes",
          "name": "",
          "type": "bytes"
        }
      ],
      "name": "onERC721Received",
      "outputs": [
        {
          "internalType": "bytes4",
          "name": "",
          "type": "bytes4"
        }
      ],
      "stateMutability": "pure",
      "type": "function"
    },
    {
      "inputs": [],
      "name": "owner",
      "outputs": [
        {
          "internalType": "address",
          "name": "",
          "type": "address"
        }
      ],
      "stateMutability": "view",
      "type": "function"
    },
    {
      "inputs": [],
      "name": "proxiableUUID",
      "outputs": [
        {
          "internalType": "bytes32",
          "name": "",
          "type": "bytes32"
        }
      ],
      "stateMutability": "view",
      "type": "function"
    },
    {
      "inputs": [
        {
          "internalType": "uint256[4]",
          "name": "newPublicKey",
          "type": "uint256[4]"
        }
      ],
      "name": "setBlsPublicKey",
      "outputs": [],
      "stateMutability": "nonpayable",
      "type": "function"
    },
    {
      "inputs": [
        {
          "internalType": "bytes4",
          "name": "interfaceId",
          "type": "bytes4"
        }
      ],
      "name": "supportsInterface",
      "outputs": [
        {
          "internalType": "bool",
          "name": "",
          "type": "bool"
        }
      ],
      "stateMutability": "view",
      "type": "function"
    },
    {
      "inputs": [
        {
          "internalType": "address",
          "name": "",
          "type": "address"
        },
        {
          "internalType": "address",
          "name": "",
          "type": "address"
        },
        {
          "internalType": "address",
          "name": "",
          "type": "address"
        },
        {
          "internalType": "uint256",
          "name": "",
          "type": "uint256"
        },
        {
          "internalType": "bytes",
          "name": "",
          "type": "bytes"
        },
        {
          "internalType": "bytes",
          "name": "",
          "type": "bytes"
        }
      ],
      "name": "tokensReceived",
      "outputs": [],
      "stateMutability": "pure",
      "type": "function"
    },
    {
      "inputs": [
        {
          "internalType": "address",
          "name": "newImplementation",
          "type": "address"
        }
      ],
      "name": "upgradeTo",
      "outputs": [],
      "stateMutability": "nonpayable",
      "type": "function"
    },
    {
      "inputs": [
        {
          "internalType": "address",
          "name": "newImplementation",
          "type": "address"
        },
        {
          "internalType": "bytes",
          "name": "data",
          "type": "bytes"
        }
      ],
      "name": "upgradeToAndCall",
      "outputs": [],
      "stateMutability": "payable",
      "type": "function"
    },
    {
      "inputs": [
        {
          "components": [
            {
              "internalType": "address",
              "name": "sender",
              "type": "address"
            },
            {
              "internalType": "uint256",
              "name": "nonce",
              "type": "uint256"
            },
            {
              "internalType": "bytes",
              "name": "initCode",
              "type": "bytes"
            },
            {
              "internalType": "bytes",
              "name": "callData",
              "type": "bytes"
            },
            {
              "internalType": "uint256",
              "name": "callGasLimit",
              "type": "uint256"
            },
            {
              "internalType": "uint256",
              "name": "verificationGasLimit",
              "type": "uint256"
            },
            {
              "internalType": "uint256",
              "name": "preVerificationGas",
              "type": "uint256"
            },
            {
              "internalType": "uint256",
              "name": "maxFeePerGas",
              "type": "uint256"
            },
            {
              "internalType": "uint256",
              "name": "maxPriorityFeePerGas",
              "type": "uint256"
            },
            {
              "internalType": "bytes",
              "name": "paymasterAndData",
              "type": "bytes"
            },
            {
              "internalType": "bytes",
              "name": "signature",
              "type": "bytes"
            }
          ],
          "internalType": "struct UserOperation",
          "name": "userOp",
          "type": "tuple"
        },
        {
          "internalType": "bytes32",
          "name": "userOpHash",
          "type": "bytes32"
        },
        {
          "internalType": "uint256",
          "name": "missingAccountFunds",
          "type": "uint256"
        }
      ],
      "name": "validateUserOp",
      "outputs": [
        {
          "internalType": "uint256",
          "name": "validationData",
          "type": "uint256"
        }
      ],
      "stateMutability": "nonpayable",
      "type": "function"
    },
    {
      "inputs": [
        {
          "internalType": "address payable",
          "name": "withdrawAddress",
          "type": "address"
        },
        {
          "internalType": "uint256",
          "name": "amount",
          "type": "uint256"
        }
      ],
      "name": "withdrawDepositTo",
      "outputs": [],
      "stateMutability": "nonpayable",
      "type": "function"
    },
    {
      "stateMutability": "payable",
      "type": "receive"
    }
  ],
  "bytecode": "0x60e0604052306080523480156200001557600080fd5b506040516200220b3803806200220b83398101604081905262000038916200013e565b6001600160a01b03821660a052816200005062000064565b506001600160a01b031660c052506200017d565b600054610100900460ff1615620000d15760405162461bcd60e51b815260206004820152602760248201527f496e697469616c697a61626c653a20636f6e747261637420697320696e697469604482015266616c697a696e6760c81b606482015260840160405180910390fd5b60005460ff9081161462000123576000805460ff191660ff9081179091556040519081527f7f26b83ff96e1f2b6a682f133852f6798a09c465da95921460cefb38474024989060200160405180910390a15b565b6001600160a01b03811681146200013b57600080fd5b50565b600080604083850312156200015257600080fd5b82516200015f8162000125565b6020840151909250620001728162000125565b809150509250929050565b60805160a05160c05161200a6200020160003960008181610277015261140701526000818161038401528181610824015281816108be01528181610c1701528181610de901528181610f40015281816112a301526114d501526000818161068e0152818161071301528181610968015281816109ed0152610ad7015261200a6000f3fe6080604052600436106101785760003560e01c806352d1902d116100cb578063c399ec881161007f578063e02afbae11610059578063e02afbae1461045a578063ee472f361461047c578063f23a6e611461049c57600080fd5b8063c399ec8814610410578063c4d66de814610425578063d087d2881461044557600080fd5b8063b0d691fe116100b0578063b0d691fe14610375578063b61d27f6146103a8578063bc197c81146103c857600080fd5b806352d1902d1461033a5780638da5cb5b1461034f57600080fd5b8063245a7bfc1161012d5780634a58db19116101075780634a58db19146102ff5780634d44560d146103075780634f1ef2861461032757600080fd5b8063245a7bfc146102655780633659cfe6146102b15780633a871cdd146102d157600080fd5b8063150b7a021161015e578063150b7a02146101e057806318dfb3c71461022557806318fc5c441461024557600080fd5b806223de291461018457806301ffc9a7146101ab57600080fd5b3661017f57005b600080fd5b34801561019057600080fd5b506101a961019f36600461186b565b5050505050505050565b005b3480156101b757600080fd5b506101cb6101c636600461191c565b6104e2565b60405190151581526020015b60405180910390f35b3480156101ec57600080fd5b5061020c6101fb366004611946565b630a85bd0160e11b95945050505050565b6040516001600160e01b031990911681526020016101d7565b34801561023157600080fd5b506101a96102403660046119fe565b610566565b34801561025157600080fd5b506101a9610260366004611ab1565b610670565b34801561027157600080fd5b506102997f000000000000000000000000000000000000000000000000000000000000000081565b6040516001600160a01b0390911681526020016101d7565b3480156102bd57600080fd5b506101a96102cc366004611b2f565b610684565b3480156102dd57600080fd5b506102f16102ec366004611b4c565b6107fc565b6040519081526020016101d7565b6101a9610822565b34801561031357600080fd5b506101a9610322366004611ba0565b6108b4565b6101a9610335366004611bcc565b61095e565b34801561034657600080fd5b506102f1610aca565b34801561035b57600080fd5b50600054610299906201000090046001600160a01b031681565b34801561038157600080fd5b507f0000000000000000000000000000000000000000000000000000000000000000610299565b3480156103b457600080fd5b506101a96103c3366004611c74565b610b8f565b3480156103d457600080fd5b5061020c6103e3366004611cc4565b7fbc197c810000000000000000000000000000000000000000000000000000000098975050505050505050565b34801561041c57600080fd5b506102f1610bde565b34801561043157600080fd5b506101a9610440366004611b2f565b610c88565b34801561045157600080fd5b506102f1610da9565b34801561046657600080fd5b5061046f610e18565b6040516101d79190611d85565b34801561048857600080fd5b506101a9610497366004611ab1565b610e53565b3480156104a857600080fd5b5061020c6104b7366004611d93565b7ff23a6e61000000000000000000000000000000000000000000000000000000009695505050505050565b60006001600160e01b03198216630a85bd0160e11b148061052c57506001600160e01b031982167f4e2312e000000000000000000000000000000000000000000000000000000000145b8061056057506001600160e01b031982167f01ffc9a700000000000000000000000000000000000000000000000000000000145b92915050565b61056e610f35565b8281146105c25760405162461bcd60e51b815260206004820152601360248201527f77726f6e67206172726179206c656e677468730000000000000000000000000060448201526064015b60405180910390fd5b60005b83811015610669576106578585838181106105e2576105e2611e0f565b90506020020160208101906105f79190611b2f565b600085858581811061060b5761060b611e0f565b905060200281019061061d9190611e25565b8080601f016020809104026020016040519081016040528093929190818152602001838380828437600092019190915250610fca92505050565b8061066181611e82565b9150506105c5565b5050505050565b61067861103a565b610681816110a4565b50565b6001600160a01b037f00000000000000000000000000000000000000000000000000000000000000001630036107115760405162461bcd60e51b815260206004820152602c60248201527f46756e6374696f6e206d7573742062652063616c6c6564207468726f7567682060448201526b19195b1959d85d1958d85b1b60a21b60648201526084016105b9565b7f00000000000000000000000000000000000000000000000000000000000000006001600160a01b031661076c7f360894a13ba1a3210667c828492db98dca3e2076cc3735a920a3ca505d382bbc546001600160a01b031690565b6001600160a01b0316146107d75760405162461bcd60e51b815260206004820152602c60248201527f46756e6374696f6e206d7573742062652063616c6c6564207468726f7567682060448201526b6163746976652070726f787960a01b60648201526084016105b9565b6107e0816110eb565b60408051600080825260208201909252610681918391906110f3565b6000610806611298565b6108108484611310565b905061081b8261143f565b9392505050565b7f00000000000000000000000000000000000000000000000000000000000000006040517fb760faf90000000000000000000000000000000000000000000000000000000081523060048201526001600160a01b03919091169063b760faf99034906024016000604051808303818588803b1580156108a057600080fd5b505af1158015610669573d6000803e3d6000fd5b6108bc61103a565b7f00000000000000000000000000000000000000000000000000000000000000006040517f205c28780000000000000000000000000000000000000000000000000000000081526001600160a01b03848116600483015260248201849052919091169063205c287890604401600060405180830381600087803b15801561094257600080fd5b505af1158015610956573d6000803e3d6000fd5b505050505050565b6001600160a01b037f00000000000000000000000000000000000000000000000000000000000000001630036109eb5760405162461bcd60e51b815260206004820152602c60248201527f46756e6374696f6e206d7573742062652063616c6c6564207468726f7567682060448201526b19195b1959d85d1958d85b1b60a21b60648201526084016105b9565b7f00000000000000000000000000000000000000000000000000000000000000006001600160a01b0316610a467f360894a13ba1a3210667c828492db98dca3e2076cc3735a920a3ca505d382bbc546001600160a01b031690565b6001600160a01b031614610ab15760405162461bcd60e51b815260206004820152602c60248201527f46756e6374696f6e206d7573742062652063616c6c6564207468726f7567682060448201526b6163746976652070726f787960a01b60648201526084016105b9565b610aba826110eb565b610ac6828260016110f3565b5050565b6000306001600160a01b037f00000000000000000000000000000000000000000000000000000000000000001614610b6a5760405162461bcd60e51b815260206004820152603860248201527f555550535570677261646561626c653a206d757374206e6f742062652063616c60448201527f6c6564207468726f7567682064656c656761746563616c6c000000000000000060648201526084016105b9565b507f360894a13ba1a3210667c828492db98dca3e2076cc3735a920a3ca505d382bbc90565b610b97610f35565b610bd8848484848080601f016020809104026020016040519081016040528093929190818152602001838380828437600092019190915250610fca92505050565b50505050565b6040517f70a082310000000000000000000000000000000000000000000000000000000081523060048201526000906001600160a01b037f000000000000000000000000000000000000000000000000000000000000000016906370a08231906024015b602060405180830381865afa158015610c5f573d6000803e3d6000fd5b505050506040513d601f19601f82011682018060405250810190610c839190611e9b565b905090565b600054610100900460ff1615808015610ca85750600054600160ff909116105b80610cc25750303b158015610cc2575060005460ff166001145b610d345760405162461bcd60e51b815260206004820152602e60248201527f496e697469616c697a61626c653a20636f6e747261637420697320616c72656160448201527f647920696e697469616c697a656400000000000000000000000000000000000060648201526084016105b9565b6000805460ff191660011790558015610d57576000805461ff0019166101001790555b610d608261148c565b8015610ac6576000805461ff0019169055604051600181527f7f26b83ff96e1f2b6a682f133852f6798a09c465da95921460cefb38474024989060200160405180910390a15050565b6040517f35567e1a000000000000000000000000000000000000000000000000000000008152306004820152600060248201819052906001600160a01b037f000000000000000000000000000000000000000000000000000000000000000016906335567e1a90604401610c42565b610e2061179c565b6040805160808101918290529060019060049082845b815481526020019060010190808311610e36575050505050905090565b600054610100900460ff1615808015610e735750600054600160ff909116105b80610e8d5750303b158015610e8d575060005460ff166001145b610eff5760405162461bcd60e51b815260206004820152602e60248201527f496e697469616c697a61626c653a20636f6e747261637420697320616c72656160448201527f647920696e697469616c697a656400000000000000000000000000000000000060648201526084016105b9565b6000805460ff191660011790558015610f22576000805461ff0019166101001790555b610f2c600061148c565b610d60826110a4565b336001600160a01b037f0000000000000000000000000000000000000000000000000000000000000000161480610f7c57506000546201000090046001600160a01b031633145b610fc85760405162461bcd60e51b815260206004820181905260248201527f6163636f756e743a206e6f74204f776e6572206f7220456e747279506f696e7460448201526064016105b9565b565b600080846001600160a01b03168484604051610fe69190611ed8565b60006040518083038185875af1925050503d8060008114611023576040519150601f19603f3d011682016040523d82523d6000602084013e611028565b606091505b50915091508161066957805160208201fd5b6000546201000090046001600160a01b031633148061105857503330145b610fc85760405162461bcd60e51b815260206004820152600a60248201527f6f6e6c79206f776e65720000000000000000000000000000000000000000000060448201526064016105b9565b7f42e4c4ce1432650f17e41c4ea77ed12c0ab20b229d3ffd84a2ebc9f8abb25a836001826040516110d6929190611ef4565b60405180910390a1610ac660018260046117ba565b61068161103a565b7f4910fdfa16fed3260ed0e7147f7cc6da11a60208b5b9406d12a635614ffd91435460ff161561112b576111268361151e565b505050565b826001600160a01b03166352d1902d6040518163ffffffff1660e01b8152600401602060405180830381865afa925050508015611185575060408051601f3d908101601f1916820190925261118291810190611e9b565b60015b6111f75760405162461bcd60e51b815260206004820152602e60248201527f45524331393637557067726164653a206e657720696d706c656d656e7461746960448201527f6f6e206973206e6f74205555505300000000000000000000000000000000000060648201526084016105b9565b7f360894a13ba1a3210667c828492db98dca3e2076cc3735a920a3ca505d382bbc811461128c5760405162461bcd60e51b815260206004820152602960248201527f45524331393637557067726164653a20756e737570706f727465642070726f7860448201527f6961626c6555554944000000000000000000000000000000000000000000000060648201526084016105b9565b506111268383836115f4565b336001600160a01b037f00000000000000000000000000000000000000000000000000000000000000001614610fc85760405162461bcd60e51b815260206004820152601c60248201527f6163636f756e743a206e6f742066726f6d20456e747279506f696e740000000060448201526064016105b9565b600061131f6040840184611e25565b1590506113f3576000611330610e18565b6040516020016113409190611d85565b604051602081830303815290604052805190602001209050808480604001906113699190611e25565b60806113786040890189611e25565b611383929150611f2d565b61138e928290611f40565b60405161139c929190611f6a565b6040518091039020146113f15760405162461bcd60e51b815260206004820152600c60248201527f77726f6e67207075626b6579000000000000000000000000000000000000000060448201526064016105b9565b505b604080516060810182526001600160a01b037f00000000000000000000000000000000000000000000000000000000000000001680825260006020830181905291909201529392505050565b801561068157604051600090339060001990849084818181858888f193505050503d8060008114610669576040519150601f19603f3d011682016040523d82523d6000602084013e610669565b600080547fffffffffffffffffffff0000000000000000000000000000000000000000ffff16620100006001600160a01b038481168202929092178084556040519190048216927f0000000000000000000000000000000000000000000000000000000000000000909216917f47e55c76e7a6f1fd8996a1da8008c1ea29699cca35e7bcd057f2dec313b6e5de91a350565b6001600160a01b0381163b61159b5760405162461bcd60e51b815260206004820152602d60248201527f455243313936373a206e657720696d706c656d656e746174696f6e206973206e60448201527f6f74206120636f6e74726163740000000000000000000000000000000000000060648201526084016105b9565b7f360894a13ba1a3210667c828492db98dca3e2076cc3735a920a3ca505d382bbc80547fffffffffffffffffffffffff0000000000000000000000000000000000000000166001600160a01b0392909216919091179055565b6115fd83611619565b60008251118061160a5750805b1561112657610bd88383611659565b6116228161151e565b6040516001600160a01b038216907fbc7cd75a20ee27fd9adebab32041f755214dbc6bffa90cc0225b39da2e5c2d3b90600090a250565b606061081b8383604051806060016040528060278152602001611fae602791396060600080856001600160a01b0316856040516116969190611ed8565b600060405180830381855af49150503d80600081146116d1576040519150601f19603f3d011682016040523d82523d6000602084013e6116d6565b606091505b50915091506116e7868383876116f1565b9695505050505050565b60608315611760578251600003611759576001600160a01b0385163b6117595760405162461bcd60e51b815260206004820152601d60248201527f416464726573733a2063616c6c20746f206e6f6e2d636f6e747261637400000060448201526064016105b9565b508161176a565b61176a8383611772565b949350505050565b8151156117825781518083602001fd5b8060405162461bcd60e51b81526004016105b99190611f7a565b60405180608001604052806004906020820280368337509192915050565b82600481019282156117e8579160200282015b828111156117e85782518255916020019190600101906117cd565b506117f49291506117f8565b5090565b5b808211156117f457600081556001016117f9565b6001600160a01b038116811461068157600080fd5b60008083601f84011261183457600080fd5b50813567ffffffffffffffff81111561184c57600080fd5b60208301915083602082850101111561186457600080fd5b9250929050565b60008060008060008060008060c0898b03121561188757600080fd5b88356118928161180d565b975060208901356118a28161180d565b965060408901356118b28161180d565b955060608901359450608089013567ffffffffffffffff808211156118d657600080fd5b6118e28c838d01611822565b909650945060a08b01359150808211156118fb57600080fd5b506119088b828c01611822565b999c989b5096995094979396929594505050565b60006020828403121561192e57600080fd5b81356001600160e01b03198116811461081b57600080fd5b60008060008060006080868803121561195e57600080fd5b85356119698161180d565b945060208601356119798161180d565b935060408601359250606086013567ffffffffffffffff81111561199c57600080fd5b6119a888828901611822565b969995985093965092949392505050565b60008083601f8401126119cb57600080fd5b50813567ffffffffffffffff8111156119e357600080fd5b6020830191508360208260051b850101111561186457600080fd5b60008060008060408587031215611a1457600080fd5b843567ffffffffffffffff80821115611a2c57600080fd5b611a38888389016119b9565b90965094506020870135915080821115611a5157600080fd5b50611a5e878288016119b9565b95989497509550505050565b634e487b7160e01b600052604160045260246000fd5b604051601f8201601f1916810167ffffffffffffffff81118282101715611aa957611aa9611a6a565b604052919050565b600060808284031215611ac357600080fd5b82601f830112611ad257600080fd5b6040516080810181811067ffffffffffffffff82111715611af557611af5611a6a565b604052806080840185811115611b0a57600080fd5b845b81811015611b24578035835260209283019201611b0c565b509195945050505050565b600060208284031215611b4157600080fd5b813561081b8161180d565b600080600060608486031215611b6157600080fd5b833567ffffffffffffffff811115611b7857600080fd5b84016101608187031215611b8b57600080fd5b95602085013595506040909401359392505050565b60008060408385031215611bb357600080fd5b8235611bbe8161180d565b946020939093013593505050565b60008060408385031215611bdf57600080fd5b8235611bea8161180d565b915060208381013567ffffffffffffffff80821115611c0857600080fd5b818601915086601f830112611c1c57600080fd5b813581811115611c2e57611c2e611a6a565b611c40601f8201601f19168501611a80565b91508082528784828501011115611c5657600080fd5b80848401858401376000848284010152508093505050509250929050565b60008060008060608587031215611c8a57600080fd5b8435611c958161180d565b935060208501359250604085013567ffffffffffffffff811115611cb857600080fd5b611a5e87828801611822565b60008060008060008060008060a0898b031215611ce057600080fd5b8835611ceb8161180d565b97506020890135611cfb8161180d565b9650604089013567ffffffffffffffff80821115611d1857600080fd5b611d248c838d016119b9565b909850965060608b0135915080821115611d3d57600080fd5b611d498c838d016119b9565b909650945060808b01359150808211156118fb57600080fd5b8060005b6004811015610bd8578151845260209384019390910190600101611d66565b608081016105608284611d62565b60008060008060008060a08789031215611dac57600080fd5b8635611db78161180d565b95506020870135611dc78161180d565b94506040870135935060608701359250608087013567ffffffffffffffff811115611df157600080fd5b611dfd89828a01611822565b979a9699509497509295939492505050565b634e487b7160e01b600052603260045260246000fd5b6000808335601e19843603018112611e3c57600080fd5b83018035915067ffffffffffffffff821115611e5757600080fd5b60200191503681900382131561186457600080fd5b634e487b7160e01b600052601160045260246000fd5b600060018201611e9457611e94611e6c565b5060010190565b600060208284031215611ead57600080fd5b5051919050565b60005b83811015611ecf578181015183820152602001611eb7565b50506000910152565b60008251611eea818460208701611eb4565b9190910192915050565b6101008101818460005b6004811015611f1d578154835260209092019160019182019101611efe565b50505061081b6080830184611d62565b8181038181111561056057610560611e6c565b60008085851115611f5057600080fd5b83861115611f5d57600080fd5b5050820193919092039150565b8183823760009101908152919050565b6020815260008251806020840152611f99816040850160208701611eb4565b601f01601f1916919091016040019291505056fe416464726573733a206c6f772d6c6576656c2064656c65676174652063616c6c206661696c6564a26469706673582212206f751ef93ac1b256f1903e24e9b167e1ae3bbe98c1006dadc788b3b025044fd364736f6c63430008120033",
  "linkReferences": {},
  "deployedLinkReferences": {}
}